:020000040800F2
:1000000000500020912200084D1A0008531A0008E1
:10001000591A00085F1A0008651A0008000000005D
:100020000000000000000000000000006B1A000843
:10003000771A000800000000831A00088F1A0008D1
:10004000D9220008D9220008D9220008D9220008A4
:10005000D9220008D9220008D9220008D922000894
:10006000D9220008D9220008D92200089D1A0008C8
:10007000D9220008D9220008D9220008D922000874
:10008000D9220008D9220008D9220008D922000864
:10009000D9220008D9220008D9220008D922000854
:1000A000D9220008D9220008D9220008D922000844
:1000B000D9220008B11A0008051B0008D92200083F
:1000C000D9220008D9220008D9220008D922000824
:1000D000D9220008D9220008D9220008D922000814
:1000E000D9220008D9220008D92200080000000007
:1000F0000000000000000000000000000000000000
:0C01000000000000000000005FF808F1A3
:10010C0010B5054C237833B9044B13B10448AFF345
:10011C0000800123237010BD60000020000000004F
:10012C00C85B000808B5034B1BB103490348AFF388
:10013C00008008BD0000000064000020C85B0008BF
:10014C0080F0004002E000BF81F0004142001FBF80
:10015C005FEA410392EA030F7FEA226C7FEA236C89
:10016C006AD04FEA1262D2EB1363C1BFD21841407E
:10017C0048404140B8BF5B42192B88BF704710F014
:10018C00004F40F4000020F07F4018BF404211F0B7
:10019C00004F41F4000121F07F4118BF494292EA1F
:1001AC00030F3FD0A2F1010241FA03FC10EB0C004B
:1001BC00C3F1200301FA03F100F0004302D54942D8
:1001CC0060EB4000B0F5000F13D3B0F1807F06D385
:1001DC0040084FEA310102F10102FE2A51D2B1F17D
:1001EC00004F40EBC25008BF20F0010040EA030072
:1001FC007047490040EB0000013A28BFB0F5000FF2
:10020C00EDD2B0FA80FCACF1080CB2EB0C0200FAA7
:10021C000CF0AABF00EBC25052421843BCBFD040F6
:10022C001843704792F0000F81F4000106BF80F470
:10023C0000000132013BB5E74FEA41037FEA226C33
:10024C0018BF7FEA236C21D092EA030F04D092F0FE
:10025C00000F08BF0846704790EA010F1CBF002032
:10026C00704712F07F4F04D1400028BF40F000408F
:10027C00704712F100723CBF00F50000704700F0AF
:10028C00004343F0FE4040F4000070477FEA2262D6
:10029C0016BF08467FEA23630146420206BF5FEAA7
:1002AC00412390EA010F40F4800070474FF00003A7
:1002BC0004E000BF10F0004348BF40425FEA000C6E
:1002CC0008BF704743F0964301464FF000001CE016
:1002DC0050EA010208BF70474FF000030AE000BF6C
:1002EC0050EA010208BF704711F0004302D54042AA
:1002FC0061EB41015FEA010C02BF8446014600201C
:10030C0043F0B64308BFA3F18053A3F50003BCFA36
:10031C008CF2083AA3EBC25310DB01FA02FC6344E3
:10032C0000FA02FCC2F12002BCF1004F20FA02F2EA
:10033C0043EB020008BF20F00100704702F12002DD
:10034C0001FA02FCC2F1200250EA4C0021FA02F23E
:10035C0043EB020008BF20EADC7070474FF0FF0C43
:10036C001CEAD0521EBF1CEAD15392EA0C0F93EA3E
:10037C000C0F6FD01A4480EA010C400218BF5FEAE0
:10038C0041211ED04FF0006343EA501043EA511153
:10039C00A0FB01310CF00040B1F5000F3EBF49004D
:1003AC0041EAD3715B0040EA010062F17F02FD2A51
:1003BC001DD8B3F1004F40EBC25008BF20F0010034
:1003CC00704790F0000F0CF0004C08BF49024CEA4B
:1003DC00502040EA51207F3AC2BFD2F1FF0340EADD
:1003EC00C250704740F400004FF00003013A5DDC4E
:1003FC0012F1190FDCBF00F000407047C2F100028F
:10040C00410021FA02F1C2F1200200FA02FC5FEA7B
:10041C00310040F1000053EA4C0308BF20EADC70C5
:10042C00704792F0000F00F0004C02BF400010F437
:10043C00000F013AF9D040EA0C0093F0000F01F0E4
:10044C00004C02BF490011F4000F013BF9D041EA06
:10045C000C018FE70CEAD15392EA0C0F18BF93EA08
:10046C000C0F0AD030F0004C18BF31F0004CD8D132
:10047C0080EA010000F00040704790F0000F17BFB9
:10048C0090F0004F084691F0000F91F0004F14D0FF
:10049C0092EA0C0F01D142020FD193EA0C0F03D157
:1004AC004B0218BF084608D180EA010000F000405A
:1004BC0040F0FE4040F40000704740F0FE4040F435
:1004CC00400070474FF0FF0C1CEAD0521EBF1CEAD4
:1004DC00D15392EA0C0F93EA0C0F69D0A2EB0302F2
:1004EC0080EA010C49024FEA402037D04FF080538C
:1004FC0043EA111143EA10130CF000408B4238BF51
:10050C005B0042F17D024FF4000C8B4224BF5B1A5E
:10051C0040EA0C00B3EB510F24BFA3EB510340EAAC
:10052C005C00B3EB910F24BFA3EB910340EA9C005A
:10053C00B3EBD10F24BFA3EBD10340EADC001B01CA
:10054C0018BF5FEA1C1CE0D1FD2A3FF650AF8B426E
:10055C0040EBC25008BF20F0010070470CF0004C7B
:10056C004CEA50207F32C2BFD2F1FF0340EAC250A6
:10057C00704740F400004FF00003013A37E792F067
:10058C00000F00F0004C02BF400010F4000F013AC5
:10059C00F9D040EA0C0093F0000F01F0004C02BFC0
:1005AC00490011F4000F013BF9D041EA0C0195E729
:1005BC000CEAD15392EA0C0F08D142027FF47DAFC2
:1005CC0093EA0C0F7FF470AF084676E793EA0C0FB2
:1005DC0004D14B023FF44CAF08466EE730F0004CB0
:1005EC0018BF31F0004CCAD130F000427FF45CAF40
:1005FC0031F000437FF43CAF5FE700BF4FEA4002AD
:10060C00B2F1FE4F0FD34FF09E03B3EB12620DD934
:10061C004FEA002343F0004310F0004F23FA02F09E
:10062C0018BF404270474FF00000704712F1610F45
:10063C0001D1420205D110F0004008BF6FF000401C
:10064C0070474FF00000704780B584B000AF3B1D81
:10065C0000221A605A609A60204B214A1A601F4B84
:10066C004FF480729A601D4B00221A731B4B0022B0
:10067C001A751A4B4FF40022DA61184B00225A609B
:10068C00164B02221A61154801F084FE0346002B1A
:10069C0001D000F005FC02237B600123BB60072323
:1006AC00FB603B1D19460D4802F03CF80346002B3D
:1006BC0001D000F0F5FB03237B600223BB603B1DE4
:1006CC001946064802F02EF80346002B01D000F024
:1006DC00E7FB00BF1037BD4680BD00BF7C0000208B
:1006EC000024014080B588B000AF786007F110039A
:1006FC0000221A605A609A60DA607B681B68284A8C
:10070C00934249D1274B9B69264A43F4007393616A
:10071C00244B9B6903F40073FB60FB68214B9B69C2
:10072C00204A43F0040393611E4B9B6903F00403BE
:10073C00BB60BB680C233B6103237B6107F1100397
:10074C001946194802F092FD184B194A1A60174BBA
:10075C0000225A60154B00229A60144B8022DA60FA
:10076C00124B4FF480721A61104B4FF480625A6135
:10077C000E4B20229A610D4B0022DA610B4802F0DD
:10078C0087FB0346002B01D000F08AFB7B68074AED
:10079C001A62064A7B68536200BF2037BD4680BD93
:1007AC00002401400010024000080140AC00002071
:1007BC000800024080B582B000AF0C4B5B690B4A5D
:1007CC0043F001035361094B5B6903F001037B6048
:1007DC007B68002200210B2002F023FB0B2002F08F
:1007EC003CFB00BF0837BD4680BD00BF0010024077
:1007FC0080B584B000AF7860082005F0E7F80346B8
:10080C00FB60FB68002B0ED04FF091417868FFF72E
:10081C00A5FD03461846FFF7F1FE0246FB681A6079
:10082C00FB6800225A60FB6818461037BD4680BD35
:10083C0090B585B000AF786039607B68002B18D01C
:10084C007B681B683968184605F0B8F804467B6865
:10085C001B68C3F580227B685B681946104605F05F
:10086C00ADF803462344FB607B68FA685A60FB686A
:10087C0000E0002318461437BD4690BD90B583B0F8
:10088C0000AF78607B681B681B685B6A1AB27B6878
:10089C001A827B68B3F910301A467B689B8892FBEE
:1008AC00F3F39A047B681B6A1946104605F03EF870
:1008BC0002467B685B691A447B685A617B68B3F9B2
:1008CC0010307A68928893FBF2F101FB02F29B1ACA
:1008DC001AB27B681A827B68B3F910309AB27B68C3
:1008EC001B681B685A627B685C697B68B3F91030C3
:1008FC009A047B689B889B041946104605F016F8F1
:10090C0002467B681B6A1946104605F00FF8034631
:10091C0023445B000549184605F050F802467B68F5
:10092C009A6000BF0C37BD4690BD00BFFD900C0017
:10093C0080B584B000AF78607B689A687B685B6A2E
:10094C00D21A7B68DB691946104604F0EFFFF86099
:10095C007B68DB6AF9681846FFF76AFF02467B681A
:10096C00DA607B689A687B685A6200BF1037BD46B4
:10097C0080BD80B483B000AF78607B689B687A6878
:10098C0092F9282002FB03F318460C37BD4680BCB5
:10099C00704780B483B000AF78607B68DB687A689E
:1009AC0092F9282002FB03F318460C37BD4680BC95
:1009BC007047000080B588B000AF07F1100300222B
:1009CC001A605A609A60DA60274B9B69264A43F09A
:1009DC0020039361244B9B6903F02003FB60FB68AD
:1009EC00214B9B69204A43F0040393611E4B9B6986
:1009FC0003F00403BB60BB681B4B9B691A4A43F0B2
:100A0C0008039361184B9B6903F008037B607B68B8
:100A1C0000224FF40041154802F0ACFD0022F821F1
:100A2C00134802F0A7FD4FF400433B6101237B61A7
:100A3C000023BB610223FB6107F1100319460B482D
:100A4C0002F014FCF8233B6101237B610023BB61A2
:100A5C000223FB6107F110031946054802F006FC5E
:100A6C0000BF2037BD4680BD001002400008014089
:100A7C00000C014080B500AF01F02AFC00F0C6F874
:100A8C00FFF798FFFFF796FE01F066F901F0BCF94D
:100A9C0001F00EFAFFF7D8FD00F022FF01F06CFA1E
:100AAC00494802F039F800F023F900F08DF9474B72
:100ABC001B686FF001021A613C21444803F0F8FEF8
:100ACC00434B1B686FF001021A613C21404803F054
:100ADC00EFFE00213F4803F043FC04213D4803F0A6
:100AEC003FFC3C4803F09AFB3B4803F097FB082182
:100AFC00394803F02FFD0C21374803F02BFD012260
:100B0C004FF40041354802F035FD012220213448D4
:100B1C0002F030FD022233492B4801F013FD32481C
:100B2C00FFF766FE0346314A13602F48FFF760FE5D
:100B3C0003462F4A13602F4B1B78002BFBD02E4BF8
:100B4C001B78002B19D0294B1B68264A128892B2AD
:100B5C00920411461846FFF76BFE0346274A1360B2
:100B6C00264B1B6803F160434FF4A071184604F048
:100B7C0025FF0346224A136018E01D4B1B68194AD7
:100B8C00528892B2920411461846FFF751FE034662
:100B9C001C4A13601B4B1B6803F160434FF4A0719C
:100BAC00184604F00BFF0346174A1360124B1B78D0
:100BBC00002B0CBF01230023DBB21A460E4B1A701C
:100BCC000C4B00221A70B6E77C000020D8030020E2
:100BDC002004002068040020B0040020000801401C
:100BEC00000C0140380300200AD7A33B4803002027
:100BFC004C0300203C0300203D0300204003002058
:100C0C00B803002044030020BC03002080B594B03E
:100C1C0000AF07F1280328220021184604F08AFFB0
:100C2C0007F1140300221A605A609A60DA601A61A4
:100C3C003B1D00221A605A609A60DA600123BB6285
:100C4C004FF48033FB6200233B630123BB6302231D
:100C5C007B644FF48033BB644FF4E013FB6407F107
:100C6C002803184602F09EFC0346002B01D000F02E
:100C7C0017F90F237B610223BB610023FB614FF447
:100C8C0080633B6200237B6207F114030221184648
:100C9C0002F00AFF0346002B01D000F001F90223F9
:100CAC007B604FF40043FB603B1D184603F076F865
:100CBC000346002B01D000F0F3F800BF5037BD46BF
:100CCC0080BD000080B483B000AF78607B681B6887
:100CDC00054A934202D1054B01221A7000BF0C3712
:100CEC00BD4680BC704700BF002401403C0300207F
:100CFC0080B586B006AF00230093244B244A022112
:100D0C00244800F013FA00232C222349214800F038
:100D1C0055FA4FF47A7304930023039380230293C0
:100D2C001E4B0193402300931C4B01221C49194874
:100D3C0000F06EFA4FF0000301931A4B00934FF042
:100D4C0000034FF000021849124800F0B9FA174B93
:100D5C000193144B00934FF00003144A14490D48AF
:100D6C0000F0F5FA134B0293134B01934FF0000371
:100D7C000093104B114A1249064800F03CFB1149F4
:100D8C00044800F0B3FB00BFBD4680BD6666AA41B7
:100D9C0000208544F000002020040020000C0140BD
:100DAC00680400200AD7A33BB4E36440486EF13BCF
:100DBC002E6EF63BC7596144BA03E9389C1589403D
:100DCC00CDCCCC3ECDCC4C3E80B586B006AF01230D
:100DDC000093244B244A0221244800F0A7F9012354
:100DEC002C222349214800F0E9F94FF47A7304933B
:100DFC0000230393102302931E4B019308230093AB
:100E0C001C4B02221C49194800F002FA4FF0000357
:100E1C0001931A4B00934FF000034FF00002184956
:100E2C00124800F04DFA174B0193144B00934FF0FE
:100E3C000003144A14490D4800F089FA134B02932D
:100E4C00134B01934FF000030093104B114A1249BE
:100E5C00064800F0D0FA1149044800F047FB00BFE7
:100E6C00BD4680BD6666AA41002085441402002060
:100E7C00D8030020000C0140680400200AD7A33BD3
:100E8C00B4E36440486EF13B2E6EF63BC7596144A7
:100E9C00BA03E9389C158940CDCCCC3ECDCC4C3E28
:100EAC0080B400AF72B600BFFEE790B585B000AF5E
:100EBC00F860B9607A60BA687B68D21AFB681A600D
:100ECC00FB681A68FB685B695B429A420BDDFB6846
:100EDC001A68FB685B699A4205DAFB6800221A60A3
:100EEC00F86800F066F8FB681A68FB685B681946DE
:100EFC00104604F063FD0246FB689A61FB681A68B1
:100F0C00FB689B681946104604F058FD0446FB68C4
:100F1C005A6BFB681B6BD21AFB681B69194610468F
:100F2C0004F04CFD0346E218FB685B6A1946104658
:100F3C0004F044FD0246FB68DB691A44FB68DA6185
:100F4C00FB681A68FB689B6BD21AFB68DB68194656
:100F5C00104604F033FD0246FB685B6A19461046E6
:100F6C0004F0E4FC0246FB681A62FB689A69FB68B1
:100F7C00DB691A44FB681B6A1A44FB681A63FB683A
:100F8C001A6BFB689B6A9A4202DDFB689B6A06E05F
:100F9C00FB681A6BFB68DB6A9342B8BF1346FA68AE
:100FAC005363FB681A68FB689A6300BF1437BD462D
:100FBC0090BD80B483B000AF78607B6800229A61EA
:100FCC007B680022DA617B6800221A627B6800224F
:100FDC009A637B6800225A6300BF0C37BD4680BC05
:100FEC00704780B483B000AF78607B685B6B184649
:100FFC000C37BD4680BC704780B582B000AF7860BE
:10100C0039603B68002B19D17B680022DA617B6860
:10101C00D8687B689B689BB20022194602F0AAFA3A
:10102C007B6858697B681B699BB20022194602F0E9
:10103C00A1FA7B68002283F8202045E03B68002B56
:10104C00B8BF5B427A68528B934202DA7B685B8B47
:10105C0008E03B68002BB8BF5B427A68128B934266
:10106C00A8BF13467A68D3613B68002B16DD7B68FA
:10107C00D8687B689B689BB20122194602F07AFA09
:10108C007B6858697B681B699BB20022194602F089
:10109C0071FA7B68012283F8202015E07B68D86800
:1010AC007B689B689BB20022194602F063FA7B684E
:1010BC0058697B681B699BB20122194602F05AFAE7
:1010CC007B68FF2283F820207B681B79013B032B74
:1010DC0026D801A252F823F0F510000803110008DD
:1010EC00111100081F1100087B68DA697B681B6806
:1010FC001B685A6315E07B68DA697B681B681B68A0
:10110C009A630EE07B68DA697B681B681B68DA639C
:10111C0007E07B68DA697B681B681B681A6400E06F
:10112C0000BF00BF0837BD4680BD00BF80B584B08E
:10113C0000AFF8607A603B600B46FB72FB68FA7A92
:10114C0083F819214FF091413868FFF707F90346EE
:10115C001846FFF753FA0246FB681A623B7E002BD7
:10116C0004D0FB68FF2283F8082103E0FB6801220E
:10117C0083F8082139687868FFF7A4F903464FF023
:10118C0091411846FFF7EAF803461846FFF736FA7E
:10119C000246FB68C3F81C21FB7A002B0AD0FB68C3
:1011AC00D3F81C315A42FB68DA65FB68D3F81C2172
:1011BC00FB689A6500BF1037BD4680BD80B584B012
:1011CC0000AFF860B96011461A460B46FB80134617
:1011DC007B71FB68BA681A60FB68FA889A800B48C6
:1011EC00FFF706FB0246FB68DA627B79002B04D121
:1011FC00FB68012283F8282003E0FB68FF2283F8B8
:10120C00282000BF1037BD4680BD00BFCDCCCC3EE2
:10121C0080B485B000AFF860B9603B601346FB71D9
:10122C00FB68BA68C3F8E420FB68FA7983F8E82015
:10123C00FB683A68C3F8F020FB68BA69C3F8EC2085
:10124C00FB68FA69C3F8F820FB683A6AC3F8F42023
:10125C00FB68BA8CA3F8FE20FB683A8DA3F8FC203F
:10126C00FB6893F81931022B18D0022B20DC002BD1
:10127C0002D0012B08D01BE0FB68104ADA65FB6832
:10128C004FF480229A6514E0FB680C4AC3F898204E
:10129C00FB684FF48022C3F894200AE0FB68074AED
:1012AC00C3F8D420FB684FF48022C3F8D02000E0B0
:1012BC0000BF00BF1437BD4680BC70470000FCFF68
:1012CC0080B584B000AFF860B9607A603B604FF0D5
:1012DC009141B868FFF742F803461846FFF78EF9BC
:1012EC000246FB685A634FF091417868FFF736F875
:1012FC0003461846FFF782F90246FB689A634FF0E3
:10130C0091413868FFF72AF803461846FFF776F93B
:10131C000246FB68DA634FF09141B869FFF71EF89B
:10132C0003461846FFF76AF90246FB685A654FF008
:10133C009141F869FFF712F803461846FFF75EF97A
:10134C000246FB681A6400BF1037BD4680BD80B5ED
:10135C0084B000AFF860B9607A603B604FF09141A7
:10136C00B868FEF7FBFF03461846FFF747F902463D
:10137C00FB681A674FF091417868FEF7EFFF034660
:10138C001846FFF73BF90246FB685A674FF091414C
:10139C003868FEF7E3FF03461846FFF72FF90246BD
:1013AC00FB689A674FF09141B869FEF7D7FF034687
:1013BC001846FFF723F90246FB68C3F890204FF05C
:1013CC009141F869FEF7CAFF03461846FFF716F974
:1013DC000246FB68DA674FF09141B869FEF7BEFF31
:1013EC0003461846FFF70AF90246FB68DA6100BFAC
:1013FC001037BD4680BD80B584B000AFF860B960D1
:10140C007A603B604FF091417868FEF7A7FF034686
:10141C001846FFF7F3F80246FB68C3F8AC204FF010
:10142C0091413868FEF79AFF03461846FFF7E6F835
:10143C000246FB68C3F8B0204FF09141B869FEF743
:10144C008DFF03461846FFF7D9F80246FB68C3F830
:10145C00B4204FF09141F869FEF780FF034618461F
:10146C00FFF7CCF80246FB68C3F8CC204FF0914153
:10147C00386AFEF773FF03461846FFF7BFF80246BB
:10148C00FB68C3F8B8204FF09141B868FEF766FFCF
:10149C0003461846FFF7B2F80246FB68C3F8202152
:1014AC00FB6893F81931022B1CD1BB6883F0004305
:1014BC004FF091411846FEF751FF03461846FFF7CF
:1014CC009DF80246FB68C3F898204FF09141B8682C
:1014DC00FEF744FF03461846FFF790F80246FB68F8
:1014EC00C3F8942000BF1037BD4680BD80B582B0D4
:1014FC0000AF786039604FF091413868FEF72EFFED
:10150C0003461846FFF77AF802467B685A6400BF18
:10151C000837BD4680BD2DE9F04F85B000AF78602F
:10152C007B6893F81A31012B49D17B6803F13006A3
:10153C007B68D3F80C313B607B681846FFF719FACF
:10154C0003461A4639683046FFF7AFFC7B6893F8C0
:10155C001931002B29D17B6830331846FFF741FD38
:10156C000346DA179A4693467B68B3F8FC309BB275
:10157C0000229846914608FB0BF20AFB09F3134430
:10158C00AAFB08452B441D464FF000024FF0000308
:10159C00A20C42EA8532AB141346FB607B68E43341
:1015AC00F9681846FFF728FD13E07B6830331846BE
:1015BC00FFF717FD02467B68C3F8102109E07B6832
:1015CC0030331846FFF7F5FC7B680022C3F80C217A
:1015DC0000BF00BF1437BD46BDE8F08F2DE9F04FBA
:1015EC0085B000AF78607B681846FFF747F97B68D9
:1015FC001846FFF79DF97B6893F81A31032B10D02E
:10160C007B6803F16C067B68D3F810313B607B6818
:10161C001846FFF7BEF903461A4639683046FFF7FD
:10162C0044FC7B6893F81931022B3AD0022B51DC25
:10163C00002B02D0012B0AD04CE07B686C3318468F
:10164C00FFF7B7FC7B680022C3F8102142E07B68EF
:10165C006C331846FFF7C5FC0346DA179A469346D7
:10166C007B68B3F8FC309BB200229846914608FB8D
:10167C000BF20AFB09F31344AAFB08452B441D4645
:10168C004FF000024FF00003A20C42EA8532AB147B
:10169C001346FB607B68E433F9681846FFF7ACFC33
:1016AC0018E07B6893F81A31032B09D07B686C33F4
:1016BC001846FFF796FC02467B68C3F8142108E035
:1016CC007B686C331846FFF774FC7B680022C3F808
:1016DC00102100BF00BF1437BD46BDE8F08F2DE9C7
:1016EC00B04F84B000AF786039607B6893F81931E3
:1016FC00022B33D17B6803F1A8007B68D3F814313B
:10170C003A681946FFF7D1FB7B68A8331846FFF7F8
:10171C0068FC0346DA179A4693467B68B3F8FC30AC
:10172C009BB200229846914608FB0BF20AFB09F388
:10173C001344AAFB08452B441D464FF000024FF002
:10174C000003A20C42EA8532AB141346FB607B68A3
:10175C00E433F9681846FFF74FFC08E07B68A833C0
:10176C001846FFF726FC7B680022C3F8142100BF43
:10177C001037BD46BDE8B08F80B582B000AF786041
:10178C0039607B68012283F81A214FF09141386847
:10179C00FEF7E4FD03461846FEF730FF02467B6871
:1017AC0093F9083103FB02F27B68C3F80C2100BFEC
:1017BC000837BD4680BD80B582B000AF7860396017
:1017CC007B6893F81931002B34D07B68022283F8A4
:1017DC001A214FF091413868FEF7C0FD03461846B8
:1017EC00FEF70CFF02467B6893F9083103FB02F20B
:1017FC007B68D3F81C319A4203DD7B68D3F81C312B
:10180C0015E04FF091413868FEF7A8FD03461846E5
:10181C00FEF7F4FE02467B6893F9083103FB02F2F3
:10182C007B68D3F81C315B429342B8BF13467A688D
:10183C00C2F8103100BF0837BD4680BD80B582B0FC
:10184C0000AF786039607B6893F81931022B42D174
:10185C007B68032283F81A217B6893F908311846B8
:10186C00FEF728FD034639681846FEF777FD034658
:10187C004FF091411846FEF771FD03461846FEF7EE
:10188C00BDFE02467B68D3F820319A4203DD7B68AB
:10189C00D3F820311CE07B6893F908311846FEF729
:1018AC0009FD034639681846FEF758FD03464FF00C
:1018BC0091411846FEF752FD03461846FEF79EFE70
:1018CC0002467B68D3F820315B429342B8BF134683
:1018DC007A68C2F8143100BF0837BD4680BD0000DD
:1018EC0080B500AF154B164A1A60144B00225A6093
:1018FC00124B00229A60114B0022DA600F4B00222F
:10190C001A610E4B00225A610C4B00229A610B4B50
:10191C0000221A62094B00225A62084B00229A627A
:10192C00064B0A22DA62054802F0A4FB0346002BA0
:10193C0001D0FFF7B5FA00BF80BD00BF50030020F7
:10194C000038004080B588B000AF786007F1100314
:10195C0000221A605A609A60DA607B681B681C4A25
:10196C00934231D11B4BDB691A4A43F48043D36158
:10197C00184BDB6903F48043FB60FB68154B9B69D8
:10198C00144A43F008039361124B9B6903F008035C
:10199C00BB60BB684FF430433B6100237B61002389
:1019AC00BB6107F1100319460B4801F05FFC4FF4C3
:1019BC0080433B6102237B610323FB6107F110032E
:1019CC001946054801F052FC00BF2037BD4680BDCA
:1019DC000038004000100240000C014080B485B07B
:1019EC0000AF154B9B69144A43F001039361124BF2
:1019FC009B6903F00103BB60BB680F4BDB690E4AAC
:101A0C0043F08053D3610C4BDB6903F080537B6054
:101A1C007B680A4B5B68FB60FB6823F0E063FB6050
:101A2C00FB6843F00073FB60044AFB68536000BF23
:101A3C001437BD4680BC70470010024000000140C6
:101A4C0080B400AFFEE780B400AFFEE780B400AF17
:101A5C00FEE780B400AFFEE780B400AFFEE780B4D1
:101A6C0000AF00BFBD4680BC704780B400AF00BF64
:101A7C00BD4680BC704780B400AF00BFBD4680BC83
:101A8C00704780B500AF00F069FC00BF80BD00005E
:101A9C0080B500AF024801F0B5FA00BF80BD00BFB1
:101AAC00AC00002080B500AF0D4B1B88002B0FD075
:101ABC000C4B1B6819460C48FFF711FE0B4B1B68AF
:101ACC0019460B48FFF70BFE054B00221A8002E06B
:101ADC00034B01221A80074802F078FF00BF80BD3B
:101AEC00A8030020B8030020F0000020BC03002055
:101AFC00140200206804002080B500AF024802F0F8
:101B0C0065FF00BF80BD00BFB004002080B582B06F
:101B1C0000AF78607B68264A934244D1254B1B88E2
:101B2C00022B1AD0022B22DC002B02D0012B0AD064
:101B3C001DE0204B00221A801F4B1B6819461F48C2
:101B4C00FFF71AFE13E01B4B01221A801C4B1B687B
:101B5C0019461A48FFF72FFE09E0164B02221A808D
:101B6C00184B1B6819461548FFF768FE00BF134851
:101B7C00FFF7D1FC1448FFF7CEFC1048FFF72EFD01
:101B8C001148FFF72BFD114B1B8801339AB20F4BF9
:101B9C001A800E4B1B88632B05D90D4B00221A7033
:101BAC000C4B00221A6000BF0837BD4680BD00BF39
:101BBC00B004002000000020AC030020F000002046
:101BCC00B0030020B403002014020020C403002042
:101BDC00CC030020C803002080B584B000AF78602F
:101BEC007B681B7F042B65D1344B1B78002B0BD1EE
:101BFC000821786803F018FA03469AB2304B1A8021
:101C0C002E4B01221A704CE00821786803F00CFA74
:101C1C0003469AB22B4B1A802B4B1B881A46322345
:101C2C0002FB03F3264A12889B1A264A1288134495
:101C3C001A46264B1A60254B1B68002B2AD0244BC6
:101C4C001B681B6803F01003102B02D14FF0FF33FD
:101C5C0000E00123FB731D4B1B689B041A211846E3
:101C6C0003F0ACFE0346194645F6175003F05EFE32
:101C7C00024697F90F3002FB03F3164A1360154B1B
:101C8C001B685B001449184603F098FE0346114A82
:101C9C00136002E00F4B00221A600A4B1A88084BA3
:101CAC001A80094B00221A800C4B1B8801339AB204
:101CBC000A4B1A8000BF1037BD4680BDCC030020F4
:101CCC00C0030020C2030020C4030020C80300206E
:101CDC00D8030020D0030020FD900C00C603002088
:101CEC0080B586B000AF7860144A154BD31A7B616F
:101CFC007B693B61134B1B68002B02D1114B124AC1
:101D0C001A60104B1A687B6813443A699A4207D2DE
:101D1C0003F028FF03460C221A604FF0FF3309E052
:101D2C00084B1B68FB60074B1A687B681344054A19
:101D3C001360FB6818461837BD4680BD0050002064
:101D4C0000040000D40300204806002080B400AF3B
:101D5C0000BFBD4680BC704780B58CB000AF07F1AA
:101D6C000C0324220021184603F0E4FE3B1D002244
:101D7C001A605A60224B234A1A60214B00225A6087
:101D8C001F4B00229A601E4B4FF6FF72DA601C4B01
:101D9C0000221A611A4B00225A61194B00229A61D7
:101DAC000323FB6000233B6101237B610023BB61A8
:101DBC000F23FB6100233B6201237B620023BB6288
:101DCC000F23FB6207F10C0319460D4802F0CEFC01
:101DDC000346002B01D0FFF763F800237B60002340
:101DEC00BB603B1D1946064803F030FD0346002B33
:101DFC0001D0FFF755F800BF3037BD4680BD00BF9E
:101E0C00D8030020002C014080B58CB000AF07F146
:101E1C000C0324220021184603F08CFE3B1D0022EB
:101E2C001A605A60214B4FF080421A601F4B0022FF
:101E3C005A601E4B00229A601C4B4FF6FF72DA6000
:101E4C001A4B00221A61194B00229A610323FB6082
:101E5C0000233B6101237B610023BB610F23FB61EA
:101E6C0000233B6201237B620023BB620F23FB62D6
:101E7C0007F10C0319460D4802F078FC0346002BC1
:101E8C0001D0FFF70DF800237B600023BB603B1DE6
:101E9C001946064803F0DAFC0346002B01D0FEF786
:101EAC00FFFF00BF3037BD4680BD00BF20040020BF
:101EBC0080B58AB000AF07F1200300221A605A6087
:101ECC003B1D00221A605A609A60DA601A615A61EE
:101EDC009A61274B274A1A60254B03225A60244BE0
:101EEC0000229A60224B40F2E732DA60204B00224B
:101EFC001A611F4B00229A611D4802F0E1F903465A
:101F0C00002B01D0FEF7CCFF20233B6200237B6229
:101F1C0007F120031946164803F098FC0346002BE2
:101F2C0001D0FEF7BDFF60237B600023BB60002364
:101F3C00FB6000237B613B1D002219460C4802F01C
:101F4C00E9FE0346002B01D0FEF7AAFF3B1D04223D
:101F5C001946074802F0DEFE0346002B01D0FEF7BF
:101F6C009FFF034800F05CF900BF2837BD4680BDD9
:101F7C00680400200004004080B58AB000AF07F16F
:101F8C00180300221A605A609A60DA6007F1100395
:101F9C0000221A605A603B4600221A605A609A600E
:101FAC00DA60314B314A1A602F4B41F61F425A60AE
:101FBC002D4B00229A602C4B3122DA602A4B0022E6
:101FCC001A61294B00229A61274802F0D7F8034680
:101FDC00002B01D0FEF764FF4FF48053BB6107F177
:101FEC0018031946204802F057FF0346002B01D076
:101FFC00FEF756FF1C4802F055FA0346002B01D0A1
:10200C00FEF74EFF20233B6100237B6107F1100399
:10201C001946154803F01AFC0346002B01D0FEF7B5
:10202C003FFF00233B6001237B600023BB600F2339
:10203C00FB603B46082219460B4802F0CFFD0346D5
:10204C00002B01D0FEF72CFF3B460C22194606480C
:10205C0002F0C4FD0346002B01D0FEF721FF00BFA8
:10206C002837BD4680BD00BFB004002000080040EA
:10207C0080B58AB000AF786007F1180300221A60AF
:10208C005A609A60DA607B681B682B4A934225D1B0
:10209C002A4B9B69294A43F400639361274B9B6944
:1020AC0003F400637B617B69244B9B69234A43F0F7
:1020BC0004039361214B9B6903F004033B613B696F
:1020CC004FF44073BB610023FB6100233B6207F1BB
:1020DC00180319461A4801F0C9F828E07B681B68F8
:1020EC00B3F1804F23D1154BDB69144A43F0010344
:1020FC00D361124BDB6903F00103FB60FB680F4BF0
:10210C009B690E4A43F0040393610C4B9B6903F0EB
:10211C000403BB60BB680323BB610023FB6100238A
:10212C003B6207F118031946054801F09FF800BF00
:10213C002837BD4680BD00BF002C01400010024076
:10214C000008014080B584B000AF78607B681B68E4
:10215C000D4A934213D10D4BDB690C4A43F0020339
:10216C00D3610A4BDB6903F00203FB60FB680022BE
:10217C0000211D2000F055FE1D2000F06EFE00BF5A
:10218C001037BD4680BD00BF000400400010024067
:10219C0080B588B000AF786007F1100300221A6098
:1021AC005A609A60DA607B681B681A4A93422CD199
:1021BC00194BDB69184A43F00403D361164BDB69F6
:1021CC0003F00403FB60FB68134B9B69124A43F05A
:1021DC0008039361104B9B6903F00803BB60BB6859
:1021EC004FF440733B6100237B610023BB6107F11B
:1021FC0010031946094801F039F8002200211E206D
:10220C0000F00FFE1E2000F028FE00BF2037BD4658
:10221C0080BD00BF0008004000100240000C0140CF
:10222C0080B588B000AF786007F1100300221A6007
:10223C005A609A60DA607B681B680F4A934217D128
:10224C000E4B9B690D4A43F0040393610B4B9B6946
:10225C0003F00403FB60FB68C0233B6102237B613A
:10226C000223FB6107F110031946054800F0FEFF3D
:10227C0000BF2037BD4680BD000400400010024066
:10228C00000801400C480D490D4A002302E0D458C7
:10229C00C4500433C4188C42F9D30A4A0A4C0023A4
:1022AC0001E013600432A242FBD3FFF74FFD03F0B1
:1022BC005FFCFEF7DFFB7047000000206000002091
:1022CC00285C00086000002044060020FEE70000A7
:1022DC0080B500AF084B1B68074A43F0100313602E
:1022EC00032000F093FD0F2000F008F8FFF776FBB9
:1022FC000023184680BD00BF0020024080B582B08C
:10230C0000AF7860124B1A68124B1B7819464FF4C9
:10231C007A73B3FBF1F3B2FBF3F3184600F0ABFDA9
:10232C000346002B01D001230EE07B680F2B0AD84B
:10233C00002279684FF0FF3000F073FD064A7B688D
:10234C001360002300E0012318460837BD4680BD0A
:10235C00040000200C0000200800002080B400AF16
:10236C00054B1B781A46054B1B681344034A136034
:10237C0000BFBD4680BC70470C000020F804002054
:10238C0080B400AF024B1B681846BD4680BC70473A
:10239C00F804002080B586B000AF78600023FB7590
:1023AC0000233B610023BB600023FB607B68002B98
:1023BC0001D10123BEE07B689B68002B7B689B6A84
:1023CC00002B09D17B680022DA627B68002283F83B
:1023DC0024207868FEF786F9786800F0F5FA034651
:1023EC00FB757B689B6A03F01003002B40F099800F
:1023FC00FB7D002B40F095807B689B6A23F488530F
:10240C0023F0020343F002027B689A627B685A68ED
:10241C007B68DB691A437B681B7B5B001343BA68E0
:10242C001343BB607B689B68B3F5807F03D07B68EC
:10243C009B68012B02D14FF4807300E000233A69B2
:10244C0013433B617B681B7D012B19D17B681B7B84
:10245C00002B09D17B689B69013B5A033B691343F1
:10246C0043F400633B610BE07B689B6A43F0200202
:10247C007B689A627B68DB6A43F001027B68DA62F4
:10248C007B681B685B6823F469417B681B683A694D
:10249C000A435A607B681B689A68284B13407A6819
:1024AC001268B9680B4393607B689B68B3F5807FB7
:1024BC0003D07B689B68012B04D17B681B69013BB3
:1024CC001B05FB607B681B68DB6A23F470017B686F
:1024DC001B68FA680A43DA627B681B689A68184BB7
:1024EC001340BA689A420BD17B680022DA627B688F
:1024FC009B6A23F0030343F001027B689A6218E0A5
:10250C007B689B6A23F0120343F010027B689A628B
:10251C007B68DB6A43F001027B68DA620123FB759E
:10252C0007E07B689B6A43F010027B689A62012388
:10253C00FB75FB7D18461837BD4680BDFDF7E1FFE6
:10254C00FE0E1FFF80B586B000AFF860B9607A60F0
:10255C000023FB75FB681B68644A934204D0FB683C
:10256C001B68634A934206D1604B5B6803F470238B
:10257C00002B40F0B380FB6893F82430012B01D181
:10258C000223AEE0FB68012283F82420F86800F0F7
:10259C00C1F90346FB75FB7D002B40F09A80FB686C
:1025AC009B6A23F4706323F0010343F48072FB688D
:1025BC009A62FB681B684E4A934205D14B4B5B6891
:1025CC0003F47023002B15D1FB689B6A23F4801253
:1025DC00FB689A62FB681B685B6803F48063002BE2
:1025EC0026D0FB689B6A23F4405343F48052FB686B
:1025FC009A621DE0FB689B6A43F48012FB689A6246
:10260C00FB681B68394A934204D0FB681B68384A44
:10261C0093420DD1354B5B6803F48063002B07D0DC
:10262C00FB689B6A23F4405343F48052FB689A6224
:10263C00FB689B6A03F48053002B06D0FB68DB6AB3
:10264C0023F00602FB68DA6202E0FB680022DA6221
:10265C00FB68002283F82420FB681B6A254A9A62D7
:10266C00FB681B6A244ADA62FB681B6A234A1A63FA
:10267C00FB681B686FF002021A60FB681B689A68A3
:10268C00FB681B6842F480729A60FB68186AFB68EE
:10269C001B684C331946BA687B6800F053FCFB6826
:1026AC001B689B6803F46023B3F5602F08D1FB68AB
:1026BC001B689A68FB681B6842F4A0029A600FE0E2
:1026CC00FB681B689A68FB681B6842F480129A606E
:1026DC0006E0FB68002283F8242001E00123FB754F
:1026EC00FB7D18461837BD4680BD00BF0024014055
:1026FC0000280140572A0008D32A0008EF2A0008B6
:10270C0080B483B000AF786000BF0C37BD4680BC8E
:10271C00704780B483B000AF786000BF0C37BD4603
:10272C0080BC704780B485B000AF786039600023FE
:10273C00FB730023BB607B6893F82430012B01D121
:10274C000223DCE07B68012283F824203B685B6871
:10275C00062B1CD87B681B68596B3B685A68134660
:10276C009B001344053B1F2202FA03F3DB43194081
:10277C003B6818683B685A6813469B001344053B3A
:10278C0000FA03F27B681B680A435A633CE03B681F
:10279C005B680C2B1CD87B681B68196B3B685A68F0
:1027AC0013469B001344233B1F2202FA03F3DB4323
:1027BC0019403B6818683B685A6813469B001344E1
:1027CC00233B00FA03F27B681B680A431A631BE085
:1027DC007B681B68D96A3B685A6813469B00134494
:1027EC00413B1F2202FA03F3DB4319403B68186894
:1027FC003B685A6813469B001344413B00FA03F2B2
:10280C007B681B680A43DA623B681B68092B1CD97E
:10281C007B681B68D9683B681A6813465B001344D5
:10282C001E3B072202FA03F3DB4319403B6898680E
:10283C003B681A6813465B0013441E3B00FA03F214
:10284C007B681B680A43DA6019E07B681B681969AE
:10285C003B681A6813465B001344072202FA03F321
:10286C00DB4319403B6898683B681A6813465B0069
:10287C00134400FA03F27B681B680A431A613B6835
:10288C001B68102B03D03B681B68112B32D17B6863
:10289C001B681D4A934225D17B681B689B6803F417
:1028AC000003002B26D17B681B689A687B681B6829
:1028BC0042F400029A603B681B68102B1AD1134B30
:1028CC001B68134AA2FB03239A0C13469B00134468
:1028DC005B00BB6002E0BB68013BBB60BB68002BCC
:1028EC00F9D107E07B689B6A43F020027B689A620F
:1028FC000123FB737B68002283F82420FB7B1846A2
:10290C001437BD4680BC70470024014004000020F1
:10291C0083DE1B4380B584B000AF78600023FB607E
:10292C000023BB607B681B689B6803F00103012BD1
:10293C0040D07B681B689A687B681B6842F0010278
:10294C009A601F4B1B681F4AA2FB03239B0CBB60A6
:10295C0002E0BB68013BBB60BB68002BF9D1FFF701
:10296C000FFDF8601FE0FFF70BFD0246FB68D31A62
:10297C00022B18D97B681B689B6803F00103012BA1
:10298C0011D07B689B6A43F010027B689A627B686B
:10299C00DB6A43F001027B68DA627B68002283F811
:1029AC002420012307E07B681B689B6803F001036C
:1029BC00012BD8D1002318461037BD4680BD00BF6F
:1029CC000400002083DE1B4380B584B000AF786028
:1029DC000023FB607B681B689B6803F00103012BE1
:1029EC002ED17B681B689A687B681B6822F00102F9
:1029FC009A60FFF7C5FCF8601BE0FFF7C1FC0246CC
:102A0C00FB68D31A022B14D97B681B689B6803F0F4
:102A1C000103012B0DD17B689B6A43F010027B688C
:102A2C009A627B68DB6A43F001027B68DA620123FD
:102A3C0007E07B681B689B6803F00103012BDCD06B
:102A4C00002318461037BD4680BD80B584B000AF5A
:102A5C0078607B685B6AFB60FB689B6A03F05003E1
:102A6C00002B27D1FB689B6A43F40072FB689A62C7
:102A7C00FB681B689B6803F46023B3F5602F15D1CA
:102A8C00FB681B7B002B11D1FB689B6A23F48072C3
:102A9C00FB689A62FB689B6A03F48053002B05D198
:102AAC00FB689B6A43F00102FB689A62F868FEF7C8
:102ABC0009F904E0FB681B6A1B6B7868984700BF38
:102ACC001037BD4680BD80B584B000AF78607B68A0
:102ADC005B6AFB60F868FFF713FE00BF1037BD465A
:102AEC0080BD80B584B000AF78607B685B6AFB60AA
:102AFC00FB689B6A43F04002FB689A62FB68DB6AE6
:102B0C0043F00402FB68DA62F868FFF702FE00BFCC
:102B1C001037BD4680BD000090B587B000AF78601F
:102B2C000023FB750023FB607B6893F82430012B9A
:102B3C0001D1022397E07B68012283F82420786876
:102B4C00FFF742FF0346FB757868FFF7E3FE034689
:102B5C00FB75FB7D002B40F081807B689B6A23F426
:102B6C00885323F0020343F002027B689A62404BC5
:102B7C001C68022001F0C8F90346B4FBF3F35B00B8
:102B8C00FB6002E0FB68013BFB60FB68002BF9D1AA
:102B9C007B681B689A687B681B6842F008029A6025
:102BAC00FFF7EEFB38611BE0FFF7EAFB02463B69DF
:102BBC00D31A0A2B14D97B681B689B6803F0080393
:102BCC00002B0DD07B689B6A23F0120343F010029C
:102BDC007B689A627B68002283F82420012342E000
:102BEC007B681B689B6803F00803002BDCD17B68B7
:102BFC001B689A687B681B6842F004029A60FFF7B6
:102C0C00BFFB38611BE0FFF7BBFB02463B69D31AE5
:102C1C000A2B14D97B681B689B6803F00403002BF8
:102C2C000DD07B689B6A23F0120343F010027B6883
:102C3C009A627B68002283F82420012313E07B68CE
:102C4C001B689B6803F00403002BDCD17B689B6A38
:102C5C0023F0030343F001027B689A627B68002235
:102C6C0083F82420FB7D18461C37BD4690BD00BF61
:102C7C000400002080B485B000AF78607B6803F05E
:102C8C000703FB600C4BDB68BB60BA684FF6FF03B5
:102C9C001340BB60FB681A02BB68134343F0BF636D
:102CAC0043F40033BB60044ABB68D36000BF1437E5
:102CBC00BD4680BC704700BF00ED00E080B400AFA3
:102CCC00044BDB681B0A03F007031846BD4680BCA7
:102CDC00704700BF00ED00E080B483B000AF034646
:102CEC00FB7197F90730002B0BDBFB7903F01F020C
:102CFC00064997F907305B09012000FA02F241F806
:102D0C00232000BF0C37BD4680BC704700E100E0BB
:102D1C0080B483B000AF03463960FB7197F907307C
:102D2C00002B0ADB3B68DAB20C4997F90730120129
:102D3C00D2B20B4483F800230AE03B68DAB20849AC
:102D4C00FB7903F00F03043B1201D2B20B441A7649
:102D5C0000BF0C37BD4680BC704700BF00E100E0EF
:102D6C0000ED00E080B489B000AFF860B9607A6023
:102D7C00FB6803F00703FB61FB69C3F10703042B3A
:102D8C0028BF0423BB61FB690433062B02D9FB6902
:102D9C00033B00E000237B614FF0FF32BB6902FA7A
:102DAC0003F3DA43BB681A407B699A404FF0FF315A
:102DBC007B6901FA03F3D9437B680B401343184634
:102DCC002437BD4680BC704780B582B000AF7860B8
:102DDC007B68013BB3F1807F01D301230FE00A4AEA
:102DEC007B68013B53600F214FF0FF30FFF790FFE2
:102DFC00054B00229A60044B07221A6000231846E8
:102E0C000837BD4680BD00BF10E000E080B582B041
:102E1C0000AF78607868FFF72DFF00BF0837BD461C
:102E2C0080BD80B586B000AF0346B9607A60FB7395
:102E3C0000237B61FFF742FF78617A68B968786993
:102E4C00FFF790FF024697F90F3011461846FFF72F
:102E5C005FFF00BF1837BD4680BD80B582B000AFA4
:102E6C000346FB7197F907301846FFF735FF00BF93
:102E7C000837BD4680BD80B582B000AF78607868F9
:102E8C00FFF7A2FF034618460837BD4680BD000079
:102E9C0080B485B000AF78600023FB607B68002BAA
:102EAC0001D1012343E07B681B681A46224B134473
:102EBC00224AA2FB03231B099A007B681A647B68D5
:102ECC001F4ADA637B68022283F821207B681B6827
:102EDC001B68FB60FB6823F47F5323F03003FB601B
:102EEC007B685A687B689B681A437B68DB681A436B
:102EFC007B681B691A437B685B691A437B689B6917
:102F0C001A437B68DB691343FA681343FB607B68E5
:102F1C001B68FA681A607B6800229A637B6801223E
:102F2C0083F821207B68002283F820200023184698
:102F3C001437BD4680BC7047F8FFFDBFCDCCCCCC60
:102F4C000000024080B586B000AFF860B9607A60CE
:102F5C003B600023FB75FB6893F82030012B01D1FB
:102F6C0002234BE0FB68012283F82020FB6893F8D6
:102F7C002130DBB2012B3AD1FB68022283F82120ED
:102F8C00FB6800229A63FB681B681A68FB681B6865
:102F9C0022F001021A603B687A68B968F86800F0A0
:102FAC0037F9FB68DB6A002B08D0FB681B681A68D2
:102FBC00FB681B6842F00E021A600FE0FB681B688E
:102FCC001A68FB681B6822F004021A60FB681B6815
:102FDC001A68FB681B6842F00A021A60FB681B68DF
:102FEC001A68FB681B6842F001021A6005E0FB6876
:102FFC00002283F820200223FB75FB7D184618372E
:10300C00BD4680BD80B584B000AF78607B68DB6B5B
:10301C001B68FB607B681B681B68BB607B681B6C58
:10302C0004229A40FB681340002B4FD0BB6803F07E
:10303C000403002B4AD07B681B681B6803F0200339
:10304C00002B07D17B681B681A687B681B6822F011
:10305C0004021A607B681B68664A934229D07B681D
:10306C001B68654A934222D07B681B68634A934273
:10307C001AD07B681B68624A934212D07B681B682B
:10308C00604A93420AD07B681B685F4A934202D124
:10309C004FF480030EE04FF080630BE04FF480237D
:1030AC0008E04FF4804305E04FF4806302E04023D6
:1030BC0000E00423554A53607B68DB6A002B00F068
:1030CC0094807B68DB6A786898478EE07B681B6C21
:1030DC0002229A40FB681340002B56D0BB6803F0C9
:1030EC000203002B51D07B681B681B6803F0200384
:1030FC00002B0BD17B681B681A687B681B6822F05D
:10310C000A021A607B68012283F821207B681B6805
:10311C00384A934229D07B681B68374A934222D0A5
:10312C007B681B68354A93421AD07B681B68344A0B
:10313C00934212D07B681B68324A93420AD07B6858
:10314C001B68314A934202D14FF400130EE04FF04A
:10315C0000730BE04FF4003308E04FF4005305E02C
:10316C004FF4007302E0202300E00223274A53604F
:10317C007B68002283F820207B689B6A002B34D06C
:10318C007B689B6A786898472FE07B681B6C0822E9
:10319C009A40FB681340002B28D0BB6803F008034F
:1031AC00002B23D07B681B681A687B681B6822F095
:1031BC000E021A607B681A6C7B68DB6B012101FACA
:1031CC0002F25A607B6801229A637B68012283F8C1
:1031DC0021207B68002283F820207B681B6B002B4E
:1031EC0004D07B681B6B7868984700BF00BF103712
:1031FC00BD4680BD080002401C0002403000024069
:10320C0044000240580002406C00024000000240A2
:10321C0080B485B000AFF860B9607A603B60FB6841
:10322C001A6CFB68DB6B012101FA02F25A60FB6835
:10323C001B683A685A60FB685B68102B08D1FB6806
:10324C001B687A689A60FB681B68BA68DA6007E0EA
:10325C00FB681B68BA689A60FB681B687A68DA605E
:10326C0000BF1437BD4680BC7047000080B48BB0E3
:10327C0000AF7860396000237B6200233B6269E118
:10328C0001227B6A02FA03F3FB613B681B68FA6953
:10329C001340BB61BA69FB699A4240F058813B68A4
:1032AC005B689A4A93425ED0984A934275D8984A82
:1032BC00934258D0964A93426FD8964A934252D032
:1032CC00944A934269D8944A93424CD0924A93427E
:1032DC0063D8924A934246D0904A93425DD8122BBF
:1032EC002AD8122B59D801A252F823F073330008B4
:1032FC004D3300085F330008A1330008A7330008E2
:10330C00A7330008A7330008A7330008A733000829
:10331C00A7330008A7330008A7330008A733000819
:10332C00A7330008A7330008A7330008A733000809
:10333C005533000869330008794A934213D02CE0C6
:10334C003B68DB683B6229E03B68DB6804333B622B
:10335C0024E03B68DB6808333B621FE03B68DB68BA
:10336C000C333B621AE03B689B68002B02D10423B0
:10337C003B6213E03B689B68012B05D108233B6241
:10338C007B68FA691A6109E008233B627B68FA6979
:10339C005A6103E000233B6200E000BFBB69FF2BD6
:1033AC0001D87B6801E07B6804337B61BB69FF2B30
:1033BC0002D87B6A9B0002E07B6A083B9B003B6166
:1033CC007B691A680F213B6901FA03F3DB431A404E
:1033DC00396A3B6901FA03F31A437B691A603B684B
:1033EC005B6803F08053002B00F0B1804D4B9B6960
:1033FC004C4A43F0010393614A4B9B6903F0010370
:10340C00BB60BB68484A7B6A9B08023352F8233086
:10341C00FB607B6A03F003039B000F2202FA03F3A9
:10342C00DB43FA681340FB607B68404A934213D03D
:10343C007B683F4A93420DD07B683E4A934207D04B
:10344C007B683D4A934201D1032306E0042304E048
:10345C00022302E0012300E000237A6A02F0030257
:10346C0092009340FA681343FB602F497B6A9B08D8
:10347C000233FA6841F823203B685B6803F480133D
:10348C00002B06D02D4B9A682C49BB6913438B60DB
:10349C0006E02A4B9A68BB69DB43284913408B60D2
:1034AC003B685B6803F40013002B06D0234BDA68EF
:1034BC002249BB691343CB6006E0204BDA68BB6939
:1034CC00DB431E491340CB603B685B6803F400335D
:1034DC00002B06D0194B5A681849BB6913434B6033
:1034EC0006E0164B5A68BB69DB43144913404B602A
:1034FC003B685B6803F48033002B21D00F4B1A68B8
:10350C000E49BB6913430B6021E000BF0000321071
:10351C0000003110000022100000211000001210D9
:10352C000000111000100240000001400008014092
:10353C00000C014000100140001401400004014047
:10354C000B4B1A68BB69DB43094913400B607B6A60
:10355C0001337B623B681A687B6A22FA03F3002B07
:10356C007FF48EAE00BF00BF2C37BD4680BC7047C9
:10357C000004014080B483B000AF78600B467B80C0
:10358C0013467B707B78002B03D07A887B681A619A
:10359C0003E07B881A047B681A6100BF0C37BD46B8
:1035AC0080BC704780B586B000AF78607B68002B1C
:1035BC0001D1012372E27B681B6803F00103002B2D
:1035CC0000F08780924B5B6803F00C03042B0CD04B
:1035DC008F4B5B6803F00C03082B12D18C4B5B6890
:1035EC0003F48033B3F5803F0BD1894B1B6803F494
:1035FC000033002B6CD07B685B68002B68D10123F7
:10360C004CE27B685B68B3F5803F06D1804B1B684E
:10361C007F4A43F4803313602EE07B685B68002B99
:10362C000CD17B4B1B687A4A23F480331360784BA4
:10363C001B68774A23F4802313601DE07B685B686A
:10364C00B3F5A02F0CD1724B1B68714A43F4802345
:10365C0013606F4B1B686E4A43F4803313600BE0AE
:10366C006B4B1B686A4A23F480331360684B1B68EE
:10367C00674A23F4802313607B685B68002B13D0AC
:10368C00FEF77EFE386108E0FEF77AFE02463B69E3
:10369C00D31A642B01D9032300E25D4B1B6803F49E
:1036AC000033002BF0D014E0FEF76AFE386108E01E
:1036BC00FEF766FE02463B69D31A642B01D903233D
:1036CC00ECE1534B1B6803F40033002BF0D100E00A
:1036DC0000BF7B681B6803F00203002B63D04C4BCC
:1036EC005B6803F00C03002B0BD0494B5B6803F0B9
:1036FC000C03082B1CD1464B5B6803F48033002B66
:10370C0016D1434B1B6803F00203002B05D07B68DA
:10371C001B69012B01D00123C0E13D4B1B6823F039
:10372C00F8027B685B69DB00394913430B603AE0B4
:10373C007B681B69002B20D0364B01221A60FEF7E8
:10374C001FFE386108E0FEF71BFE02463B69D31AE8
:10375C00022B01D90323A1E12D4B1B6803F00203BB
:10376C00002BF0D02A4B1B6823F0F8027B685B69B6
:10377C00DB00274913430B6015E0264B00221A602F
:10378C00FEF7FEFD386108E0FEF7FAFD02463B69E4
:10379C00D31A022B01D9032380E11D4B1B6803F0C4
:1037AC000203002BF0D17B681B6803F00803002B8D
:1037BC003AD07B689B69002B19D0174B01221A60F9
:1037CC00FEF7DEFD386108E0FEF7DAFD02463B69E4
:1037DC00D31A022B01D9032360E10D4B5B6A03F072
:1037EC000203002BF0D0012000F0BAFA1CE00A4BC7
:1037FC0000221A60FEF7C4FD38610FE0FEF7C0FD31
:10380C0002463B69D31A022B08D9032346E100BFB9
:10381C00001002400000424280044242924B5B6A1C
:10382C0003F00203002BE9D17B681B6803F004034F
:10383C00002B00F0A6800023FB758B4BDB6903F09B
:10384C008053002B0DD1884BDB69874A43F08053A2
:10385C00D361854BDB6903F08053BB60BB680123EC
:10386C00FB75824B1B6803F48073002B18D17F4BC4
:10387C001B687E4A43F480731360FEF781FD386148
:10388C0008E0FEF77DFD02463B69D31A642B01D993
:10389C00032303E1754B1B6803F48073002BF0D0FA
:1038AC007B68DB68012B06D16F4B1B6A6E4A43F0B9
:1038BC00010313622DE07B68DB68002B0CD16A4B93
:1038CC001B6A694A23F001031362674B1B6A664A41
:1038DC0023F0040313621CE07B68DB68052B0CD11E
:1038EC00614B1B6A604A43F0040313625E4B1B6A14
:1038FC005D4A43F0010313620BE05B4B1B6A5A4AAF
:10390C0023F001031362584B1B6A574A23F004033C
:10391C0013627B68DB68002B15D0FEF731FD386134
:10392C000AE0FEF72DFD02463B69D31A41F28832BC
:10393C00934201D90323B1E04B4B1B6A03F0020302
:10394C00002BEED014E0FEF71BFD38610AE0FEF709
:10395C0017FD02463B69D31A41F28832934201D9D2
:10396C0003239BE0404B1B6A03F00203002BEED1B8
:10397C00FB7D012B05D13C4BDB693B4A23F080538B
:10398C00D3617B68DB69002B00F08780364B5B686A
:10399C0003F00C03082B61D07B68DB69022B46D14A
:1039AC00334B00221A60FEF7EBFC386108E0FEF79F
:1039BC00E7FC02463B69D31A022B01D903236DE0C5
:1039CC00294B1B6803F00073002BF0D17B681B6A3A
:1039DC00B3F5803F08D1244B5B6823F400327B683D
:1039EC009B68214913434B601F4B5B6823F4741293
:1039FC007B68196A7B685B6A0B431B4913434B60FA
:103A0C001B4B01221A60FEF7BBFC386108E0FEF785
:103A1C00B7FC02463B69D31A022B01D903233DE0C4
:103A2C00114B1B6803F00073002BF0D035E0104BEA
:103A3C0000221A60FEF7A4FC386108E0FEF7A0FC37
:103A4C0002463B69D31A022B01D9032326E0064B0D
:103A5C001B6803F00073002BF0D11EE07B68DB6960
:103A6C00012B07D1012319E0001002400070004027
:103A7C00600042420B4B5B68FB60FB6803F48032D6
:103A8C007B681B6A9A4206D1FB6803F470127B6850
:103A9C005B6A9A4201D0012300E0002318461837D4
:103AAC00BD4680BD0010024080B584B000AF786088
:103ABC0039607B68002B01D10123D0E06A4B1B6875
:103ACC0003F007033A689A4210D9674B1B6823F03E
:103ADC00070265493B6813430B60634B1B6803F09B
:103AEC0007033A689A4201D00123B8E07B681B684F
:103AFC0003F00203002B20D07B681B6803F0040347
:103B0C00002B05D0594B5B68584A43F4E063536073
:103B1C007B681B6803F00803002B05D0534B5B68D4
:103B2C00524A43F460535360504B5B6823F0F002ED
:103B3C007B689B684D4913434B607B681B6803F0A3
:103B4C000103002B40D07B685B68012B07D1474BEE
:103B5C001B6803F40033002B15D101237FE07B6835
:103B6C005B68022B07D1414B1B6803F00073002BE1
:103B7C0009D1012373E03D4B1B6803F00203002BBA
:103B8C0001D101236BE0394B5B6823F003027B68A6
:103B9C005B68364913434B60FEF7F2FBF8600AE0B2
:103BAC00FEF7EEFB0246FB68D31A41F288329342D1
:103BBC0001D9032353E02D4B5B6803F00C027B68A7
:103BCC005B689B009A42EBD1274B1B6803F0070301
:103BDC003A689A4210D2244B1B6823F00702224900
:103BEC003B6813430B60204B1B6803F007033A68D8
:103BFC009A4201D0012332E07B681B6803F0040376
:103C0C00002B08D0194B5B6823F4E0627B68DB68FF
:103C1C00164913434B607B681B6803F00803002BA9
:103C2C0009D0124B5B6823F460527B681B69DB0084
:103C3C000E4913434B6000F021F802460B4B5B68B6
:103C4C001B0903F00F030A49CB5C22FA03F3094A60
:103C5C001360094B1B681846FEF750FB00231846EF
:103C6C001037BD4680BD00BF00200240001002404E
:103C7C00E05B0008040000200800002080B487B03E
:103C8C0000AF0023FB600023BB6000237B6100239B
:103C9C007B6000233B611E4B5B68FB60FB6803F0A1
:103CAC000C03042B02D0082B03D027E0194B3B61EB
:103CBC0027E0FB689B0C03F00F03174AD35C7B6077
:103CCC00FB6803F48033002B10D0114B5B685B0C4A
:103CDC0003F00103114AD35CBB607B680D4A03FB04
:103CEC0002F2BB68B2FBF3F37B6104E07B680C4A25
:103CFC0002FB03F37B617B693B6102E0054B3B619B
:103D0C0000BF3B6918461C37BD4680BC704700BFDE
:103D1C000010024000127A00F85B0008085C0008F2
:103D2C0000093D0080B400AF024B1B681846BD462D
:103D3C0080BC70470400002080B500AFFFF7F2FF95
:103D4C000246054B5B68DB0A03F007030349CB5CB7
:103D5C0022FA03F3184680BD00100240F05B000805
:103D6C0080B485B000AF78600A4B1B680A4AA2FB8E
:103D7C0003235B0A7A6802FB03F3FB6000BFFB685A
:103D8C005A1EFA60002BF9D100BF00BF1437BD4694
:103D9C0080BC704704000020D34D621080B586B003
:103DAC0000AF786000233B610023FB607B681B68DD
:103DBC0003F00103002B7DD00023FB754F4BDB6917
:103DCC0003F08053002B0DD14C4BDB694B4A43F075
:103DDC008053D361494BDB6903F08053BB60BB68F4
:103DEC000123FB75464B1B6803F48073002B18D121
:103DFC00434B1B68424A43F480731360FEF7C0FACE
:103E0C00386108E0FEF7BCFA02463B69D31A642B12
:103E1C0001D903236DE03A4B1B6803F48073002B2C
:103E2C00F0D0364B1B6A03F44073FB60FB68002B2D
:103E3C002ED07B685B6803F44073FA689A4227D0F3
:103E4C002E4B1B6A23F44073FB602E4B01221A602D
:103E5C002C4B00221A60294AFB681362FB6803F0A2
:103E6C000103002B14D0FEF78BFA38610AE0FEF741
:103E7C0087FA02463B69D31A41F28832934201D940
:103E8C00032336E01D4B1B6A03F00203002BEED01C
:103E9C001A4B1B6A23F440727B685B681749134307
:103EAC000B62FB7D012B05D1144BDB69134A23F00C
:103EBC008053D3617B681B6803F00203002B08D08E
:103ECC000E4B5B6823F440427B689B680B491343A1
:103EDC004B607B681B6803F01003002B08D0074B6A
:103EEC005B6823F480027B68DB68044913434B60F6
:103EFC00002318461837BD4680BD00BF0010024095
:103F0C00007000404004424280B588B000AF786039
:103F1C0000237B610023FB6100233B610023FB60DA
:103F2C000023BB617B68102B0AD07B68102B00F23E
:103F3C008A807B68012B45D07B68022B75D082E090
:103F4C00464B5B68FB60454B1B6803F08073002B92
:103F5C007BD0FB689B0C03F00F03414AD35C3B61A5
:103F6C00FB6803F48033002B15D03C4B5B685B0C77
:103F7C0003F001033B4AD35C7B61FB6803F48033A1
:103F8C00002B0DD0384A7B69B2FBF3F23B6902FB84
:103F9C0003F3FB6104E03B69344A02FB03F3FB616E
:103FAC002E4B5B6803F48003B3F5800F02D1FB69E1
:103FBC00BB614AE0FB695B002D4AA2FB03235B0853
:103FCC00BB6142E0254B1B6AFB60FB6803F440734A
:103FDC00B3F5807F08D1FB6803F00203002B03D0FC
:103FEC004FF40043BB611FE0FB6803F44073B3F56F
:103FFC00007F09D1194B5B6A03F00203002B03D03D
:10400C0049F64043BB610FE0FB6803F44073B3F522
:10401C00407F1CD1114B1B6803F40033002B16D0CE
:10402C004FF22443BB6112E011E0FFF785FE02461C
:10403C000A4B5B689B0B03F0030301335B00B2FB81
:10404C00F3F3BB6104E000BF02E000BF00E000BF7F
:10405C00BB6918462037BD4680BD00BF001002402A
:10406C000C5C00081C5C000800127A0000093D0082
:10407C00ABAAAAAA80B582B000AF78607B68002B8F
:10408C0001D1012376E07B685B6A002B08D17B6849
:10409C005B68B3F5827F09D07B680022DA6105E0AA
:1040AC007B6800221A617B6800225A617B680022BF
:1040BC009A627B6893F85130DBB2002B06D17B6897
:1040CC00002283F850207868FDF73CFC7B680222C4
:1040DC0083F851207B681B681A687B681B6822F088
:1040EC0040021A607B685B6803F482727B689B6891
:1040FC0003F404431A437B68DB6803F400631A433C
:10410C007B681B6903F002031A437B685B6903F04D
:10411C0001031A437B689B6903F400731A437B68A1
:10412C00DB6903F038031A437B681B6A03F08003D6
:10413C0042EA03017B689B6A03F400527B681B68AC
:10414C000A431A607B689B691A0C7B681B6802F037
:10415C0004025A607B681B68DA697B681B6822F46E
:10416C000062DA617B6800225A657B68012283F861
:10417C005120002318460837BD4680BD80B582B05B
:10418C0000AF78607B68002B01D1012341E07B6894
:10419C0093F83D30DBB2002B06D17B68002283F80C
:1041AC003C207868FDF7F4FF7B68022283F83D2001
:1041BC007B681A687B6804331946104600F094FF3C
:1041CC007B68012283F846207B68012283F83E201D
:1041DC007B68012283F83F207B68012283F8402012
:1041EC007B68012283F841207B68012283F84220FE
:1041FC007B68012283F843207B68012283F84420EA
:10420C007B68012283F845207B68012283F83D20DE
:10421C00002318460837BD4680BD000080B485B029
:10422C0000AF78607B6893F83D30DBB2012B01D096
:10423C0001233AE07B68022283F83D207B681B68EF
:10424C00DA687B681B6842F00102DA607B681B68E5
:10425C00184A93420ED07B681B68B3F1804F09D08B
:10426C007B681B68144A934204D07B681B68134A12
:10427C00934211D17B681B689B6803F00703FB60BA
:10428C00FB68062B10D07B681B681A687B681B6860
:10429C0042F001021A6007E07B681B681A687B68B1
:1042AC001B6842F001021A60002318461437BD4601
:1042BC0080BC7047002C0140000400400008004006
:1042CC0080B582B000AF78607B68002B01D10123F0
:1042DC0041E07B6893F83D30DBB2002B06D17B6864
:1042EC00002283F83C207868FDF72CFF7B680222C3
:1042FC0083F83D207B681A687B68043319461046A6
:10430C0000F0F2FE7B68012283F846207B680122D4
:10431C0083F83E207B68012283F83F207B680122D2
:10432C0083F840207B68012283F841207B680122BE
:10433C0083F842207B68012283F843207B680122AA
:10434C0083F844207B68012283F845207B68012296
:10435C0083F83D20002318460837BD4680BD000079
:10436C0080B584B000AF786039603B68002B09D110
:10437C007B6893F83E30DBB2012B14BF0123002382
:10438C00DBB222E03B68042B09D17B6893F83F3009
:10439C00DBB2012B14BF01230023DBB215E03B6819
:1043AC00082B09D17B6893F84030DBB2012B14BF8A
:1043BC0001230023DBB208E07B6893F84130DBB2C9
:1043CC00012B14BF01230023DBB2002B01D00123EE
:1043DC005EE03B68002B04D17B68022283F83E2010
:1043EC0013E03B68042B04D17B68022283F83F2046
:1043FC000BE03B68082B04D17B68022283F8402039
:10440C0003E07B68022283F841207B681B68012251
:10441C003968184601F0F5F97B681B681E4A93420F
:10442C0007D17B681B685A6C7B681B6842F400429E
:10443C005A647B681B68184A93420ED07B681B68D1
:10444C00B3F1804F09D07B681B68144A934204D0A7
:10445C007B681B68124A934211D17B681B689B686E
:10446C0003F00703FB60FB68062B10D07B681B680E
:10447C001A687B681B6842F001021A6007E07B68CF
:10448C001B681A687B681B6842F001021A600023E3
:10449C0018461037BD4680BD002C0140000400407A
:1044AC000008004080B582B000AF78607B68002BBC
:1044BC0001D1012341E07B6893F83D30DBB2002B46
:1044CC0006D17B68002283F83C20786800F039F82C
:1044DC007B68022283F83D207B681A687B68043372
:1044EC001946104600F000FE7B68012283F8462036
:1044FC007B68012283F83E207B68012283F83F20F1
:10450C007B68012283F840207B68012283F84120DC
:10451C007B68012283F842207B68012283F84320C8
:10452C007B68012283F844207B68012283F84520B4
:10453C007B68012283F83D20002318460837BD46CE
:10454C0080BD80B483B000AF786000BF0C37BD462F
:10455C0080BC704780B584B000AF786039600023B0
:10456C00FB733B68002B04D17B6893F83E30DBB2C5
:10457C0013E03B68042B04D17B6893F83F30DBB22B
:10458C000BE03B68082B04D17B6893F84030DBB21E
:10459C0003E07B6893F84130DBB2BB733B68002BC4
:1045AC0004D17B6893F84230DBB213E03B68042BF8
:1045BC0004D17B6893F84330DBB20BE03B68082BEB
:1045CC0004D17B6893F84430DBB203E07B6893F84A
:1045DC004530DBB27B73BB7B012B02D17B7B012B88
:1045EC0001D00123B8E03B68002B04D17B68022288
:1045FC0083F83E2013E03B68042B04D17B68022235
:10460C0083F83F200BE03B68082B04D17B68022227
:10461C0083F8402003E07B68022283F841203B684A
:10462C00002B04D17B68022283F8422013E03B6804
:10463C00042B04D17B68022283F843200BE03B68F7
:10464C00082B04D17B68022283F8442003E07B68AA
:10465C00022283F845203B680C2B41D801A252F86A
:10466C0023F000BFA5460008ED460008ED46000803
:10467C00ED460008B7460008ED460008ED46000878
:10468C00ED460008C9460008ED460008ED46000856
:10469C00ED460008DB4600087B681B68DA687B681F
:1046AC001B6842F00202DA601DE07B681B68DA6866
:1046BC007B681B6842F00402DA6014E07B681B68BC
:1046CC00DA687B681B6842F00802DA600BE07B68F2
:1046DC001B68DA687B681B6842F01002DA6002E043
:1046EC000123FB7300BFFB7B002B34D17B681B6861
:1046FC0001223968184601F084F87B681B68184A57
:10470C0093420ED07B681B68B3F1804F09D07B6855
:10471C001B68144A934204D07B681B68124A93426C
:10472C0011D17B681B689B6803F00703BB60BB68F7
:10473C00062B10D07B681B681A687B681B6842F0DC
:10474C0001021A6007E07B681B681A687B681B68AB
:10475C0042F001021A60FB7B18461037BD4680BD43
:10476C00002C0140000400400008004080B586B0D9
:10477C0000AF786039607B68002B01D1012393E096
:10478C007B6893F83D30DBB2002B06D17B680022AE
:10479C0083F83C207868FDF76BFC7B68022283F879
:1047AC003D207B681B689B687A68126823F4804301
:1047BC0023F0070393607B681A687B6804331946FF
:1047CC00104600F091FC7B681B689B687B617B68E2
:1047DC001B689B693B617B681B681B6AFB603B68C1
:1047EC001B687A6913437B613B6923F4407323F0A4
:1047FC0003033B613B689A683B689B691B0213434C
:10480C003A6913433B613B6923F4406323F00C0387
:10481C003B613B6923F4704323F0F0033B613B683D
:10482C00DA683B68DB691B0213433A6913433B614B
:10483C003B681B691A013B681B6A1B0313433A69EB
:10484C0013433B61FB6823F02203FB603B685A680F
:10485C003B685B691B011343FA681343FB607B687D
:10486C001B687A699A607B681B683A699A617B68F5
:10487C001B68FA681A627B68012283F846207B6801
:10488C00012283F83E207B68012283F83F207B685D
:10489C00012283F842207B68012283F843207B6845
:1048AC00012283F83D20002318461837BD4680BDF1
:1048BC0080B584B000AF786039607B6893F83E3087
:1048CC00FB737B6893F83F30BB737B6893F8423083
:1048DC007B737B6893F843303B733B68002B10D1A0
:1048EC00FB7B012B02D17B7B012B01D0012369E0E7
:1048FC007B68022283F83E207B68022283F84220E8
:10490C0031E03B68042B10D1BB7B012B02D13B7BEC
:10491C00012B01D0012355E07B68022283F83F2054
:10492C007B68022283F843201DE0FB7B012B08D11E
:10493C00BB7B012B05D17B7B012B02D13B7B012B5C
:10494C0001D001233EE07B68022283F83E207B6885
:10495C00022283F83F207B68022283F842207B6886
:10496C00022283F843203B68002B03D03B68042BC6
:10497C0008D00FE07B681B6801220021184600F06C
:10498C0040FF16E07B681B6801220421184600F0EA
:10499C0038FF0EE07B681B6801220021184600F0EE
:1049AC0030FF7B681B6801220421184600F029FFA8
:1049BC0000BF7B681B681A687B681B6842F00102A9
:1049CC001A60002318461037BD4680BD80B582B0F2
:1049DC0000AF78607B681B681B6903F00203022B35
:1049EC0022D17B681B68DB6803F00203022B1BD10E
:1049FC007B681B686FF002021A617B6801221A77D0
:104A0C007B681B689B6903F00303002B03D0786859
:104A1C00FDF7E2F805E0786800F04AFB786800F0F2
:104A2C0050FB7B6800221A777B681B681B6903F0BC
:104A3C000403042B22D17B681B68DB6803F004039E
:104A4C00042B1BD17B681B686FF004021A617B6816
:104A5C0002221A777B681B689B6903F44073002B56
:104A6C0003D07868FDF7B8F805E0786800F020FB13
:104A7C00786800F026FB7B6800221A777B681B683D
:104A8C001B6903F00803082B22D17B681B68DB68C9
:104A9C0003F00803082B1BD17B681B686FF008021E
:104AAC001A617B6804221A777B681B68DB6903F048
:104ABC000303002B03D07868FDF78EF805E07868C7
:104ACC0000F0F6FA786800F0FCFA7B6800221A779E
:104ADC007B681B681B6903F01003102B22D17B68C9
:104AEC001B68DB6803F01003102B1BD17B681B6861
:104AFC006FF010021A617B6808221A777B681B68BA
:104B0C00DB6903F44073002B03D07868FDF764F87D
:104B1C0005E0786800F0CCFA786800F0D2FA7B688F
:104B2C0000221A777B681B681B6903F00103012BB9
:104B3C000ED17B681B68DB6803F00103012B07D1E6
:104B4C007B681B686FF001021A617868FCF7DEFF66
:104B5C007B681B681B6903F08003802B0ED17B687C
:104B6C001B68DB6803F08003802B07D17B681B6814
:104B7C006FF080021A61786800F0CFFE7B681B68CA
:104B8C001B6903F04003402B0ED17B681B68DB686C
:104B9C0003F04003402B07D17B681B686FF0400289
:104BAC001A61786800F096FA7B681B681B6903F041
:104BBC002003202B0ED17B681B68DB6803F02003DD
:104BCC00202B07D17B681B686FF020021A61786874
:104BDC0000F09AFE00BF0837BD4680BD80B586B098
:104BEC0000AFF860B9607A600023FB75FB6893F83E
:104BFC003C30012B01D1022388E0FB68012283F8B1
:104C0C003C207B68002B1BD1FB681868BB681968BB
:104C1C00BB685A68BB68DB6800F050FCFB681B681B
:104C2C009A69FB681B6822F00C029A61FB681B688E
:104C3C009969BB689A68FB681B680A439A6160E0D3
:104C4C007B68042B1CD1FB681868BB681968BB68AF
:104C5C005A68BB68DB6800F0B9FCFB681B689A6992
:104C6C00FB681B6822F440629A61FB681B689969B7
:104C7C00BB689B681A02FB681B680A439A6140E098
:104C8C007B68082B1BD1FB681868BB681968BB686C
:104C9C005A68BB68DB6800F004FDFB681B68DA69C6
:104CAC00FB681B6822F00C02DA61FB681B68D9698F
:104CBC00BB689A68FB681B680A43DA6121E07B6871
:104CCC000C2B1CD1FB681868BB681968BB685A6848
:104CDC00BB68DB6800F020FDFB681B68DA69FB68C9
:104CEC001B6822F44062DA61FB681B68D969BB68F7
:104CFC009B681A02FB681B680A43DA6101E0012316
:104D0C00FB75FB68002283F83C20FB7D18461837A6
:104D1C00BD4680BD80B586B000AFF860B9607A60E2
:104D2C000023FB75FB6893F83C30012B01D1022367
:104D3C00AEE0FB68012283F83C207B680C2B00F270
:104D4C009F8001A252F823F0894D00088D4E000877
:104D5C008D4E00088D4E0008C94D00088D4E000880
:104D6C008D4E00088D4E00080B4E00088D4E00082D
:104D7C008D4E00088D4E00084B4E0008FB681B68DA
:104D8C00B968184600F012FAFB681B689A69FB6850
:104D9C001B6842F008029A61FB681B689A69FB6801
:104DAC001B6822F004029A61FB681B689969BB6856
:104DBC001A69FB681B680A439A6164E0FB681B680C
:104DCC00B968184600F058FAFB681B689A69FB68CA
:104DDC001B6842F400629A61FB681B689A69FB6865
:104DEC001B6822F480629A61FB681B689969BB6836
:104DFC001B691A02FB681B680A439A6143E0FB6853
:104E0C001B68B968184600F0A1FAFB681B68DA69E0
:104E1C00FB681B6842F00802DA61FB681B68DA6900
:104E2C00FB681B6822F00402DA61FB681B68D96915
:104E3C00BB681A69FB681B680A43DA6123E0FB68EC
:104E4C001B68B968184600F0EBFAFB681B68DA6956
:104E5C00FB681B6842F40062DA61FB681B68DA6964
:104E6C00FB681B6822F48062DA61FB681B68D969F5
:104E7C00BB681B691A02FB681B680A43DA6102E013
:104E8C000123FB7500BFFB68002283F83C20FB7DEF
:104E9C0018461837BD4680BD80B584B000AF786029
:104EAC0039600023FB737B6893F83C30012B01D1F4
:104EBC000223B4E07B68012283F83C207B68022249
:104ECC0083F83D207B681B689B68BB60BB6823F044
:104EDC007703BB60BB6823F47F43BB607B681B68B4
:104EEC00BA689A603B681B68B3F5005F3ED0B3F5B7
:104EFC00005F00F28780B3F5805F00F08680B3F529
:104F0C00805F7FD8702B1AD0702B7BD8602B50D041
:104F1C00602B77D8502B3CD0502B73D8402B58D0CB
:104F2C00402B6FD8302B64D0302B6BD8202B60D01B
:104F3C00202B67D8002B5CD0102B5AD062E07B68FA
:104F4C0018683B6899683B685A683B68DB6800F0F6
:104F5C0039FC7B681B689B68BB60BB6843F07703BC
:104F6C00BB607B681B68BA689A604FE07B68186806
:104F7C003B6899683B685A683B68DB6800F022FC28
:104F8C007B681B689A687B681B6842F480429A6055
:104F9C003CE07B6818683B6859683B68DB681A46DC
:104FAC0000F0E6FA7B681B685021184600F0F0FB15
:104FBC002CE07B6818683B6859683B68DB681A46CC
:104FCC0000F040FB7B681B686021184600F0E0FB9A
:104FDC001CE07B6818683B6859683B68DB681A46BC
:104FEC0000F0C6FA7B681B684021184600F0D0FB25
:104FFC000CE07B681A683B681B681946104600F089
:10500C00C7FB03E00123FB7300E000BF7B680122B8
:10501C0083F83D207B68002283F83C20FB7B1846FC
:10502C001037BD4680BD000080B485B000AF7860FD
:10503C0039600023FB603B680C2B31D801A252F87D
:10504C0023F000BF85500008AD500008AD5000089B
:10505C00AD5000088F500008AD500008AD5000084E
:10506C00AD50000899500008AD500008AD50000834
:10507C00AD500008A35000087B681B685B6BFB609D
:10508C000FE07B681B689B6BFB600AE07B681B680E
:10509C00DB6BFB6005E07B681B681B6CFB6000E056
:1050AC0000BFFB6818461437BD4680BC704700BF74
:1050BC0080B483B000AF786000BF0C37BD4680BCB5
:1050CC00704780B483B000AF786000BF0C37BD462A
:1050DC0080BC704780B483B000AF786000BF0C37E1
:1050EC00BD4680BC7047000080B485B000AF7860CE
:1050FC0039607B681B68FB607B68294A93420BD044
:10510C007B68B3F1804F07D07B68264A934203D06B
:10511C007B68254A934208D1FB6823F07003FB603F
:10512C003B685B68FA681343FB607B681C4A9342DC
:10513C000BD07B68B3F1804F07D07B68194A934240
:10514C0003D07B68184A934208D1FB6823F4407360
:10515C00FB603B68DB68FA681343FB60FB6823F079
:10516C0080023B685B691343FB607B68FA681A60DA
:10517C003B689A687B68DA623B681A687B689A625B
:10518C007B68074A934203D13B681A697B681A63B0
:10519C007B6801225A6100BF1437BD4680BC704742
:1051AC00002C0140000400400008004080B487B08F
:1051BC0000AF786039607B681B6A7B617B681B6A17
:1051CC0023F001027B681A627B685B683B617B6839
:1051DC009B69FB60FB6823F07003FB60FB6823F0AA
:1051EC000303FB603B681B68FA681343FB607B6935
:1051FC0023F002037B613B689B687A6913437B61F4
:10520C007B681C4A93420CD17B6923F008037B61B9
:10521C003B68DB687A6913437B617B6923F0040389
:10522C007B617B68134A934211D13B6923F48073F1
:10523C003B613B6923F400733B613B685B693A69F2
:10524C0013433B613B689B693A6913433B617B6841
:10525C003A695A607B68FA689A613B685A687B685D
:10526C005A637B687A691A6200BF1C37BD4680BCE2
:10527C00704700BF002C014080B487B000AF78604D
:10528C0039607B681B6A7B617B681B6A23F01002A8
:10529C007B681A627B685B683B617B689B69FB601F
:1052AC00FB6823F4E043FB60FB6823F44073FB6072
:1052BC003B681B681B02FA681343FB607B6923F095
:1052CC0020037B613B689B681B017A6913437B61FC
:1052DC007B681D4A93420DD17B6923F080037B616F
:1052EC003B68DB681B017A6913437B617B6923F0A4
:1052FC0040037B617B68144A934213D13B6923F4CE
:10530C0080633B613B6923F400633B613B685B69F1
:10531C009B003A6913433B613B689B699B003A696C
:10532C0013433B617B683A695A607B68FA689A61FF
:10533C003B685A687B689A637B687A691A6200BF1B
:10534C001C37BD4680BC7047002C014080B487B030
:10535C0000AF786039607B681B6A7B617B681B6A75
:10536C0023F480727B681A627B685B683B617B68A4
:10537C00DB69FB60FB6823F07003FB60FB6823F0C8
:10538C000303FB603B681B68FA681343FB607B6993
:10539C0023F400737B613B689B681B027A6913439F
:1053AC007B617B681D4A93420DD17B6923F40063BA
:1053BC007B613B68DB681B027A6913437B617B6909
:1053CC0023F480637B617B68144A934213D13B695D
:1053DC0023F480533B613B6923F400533B613B68EE
:1053EC005B691B013A6913433B613B689B691B0179
:1053FC003A6913433B617B683A695A607B68FA6887
:10540C00DA613B685A687B68DA637B687A691A628E
:10541C0000BF1C37BD4680BC704700BF002C01404C
:10542C0080B487B000AF786039607B681B6A3B61E1
:10543C007B681B6A23F480527B681A627B685B680A
:10544C007B617B68DB69FB60FB6823F4E043FB60FA
:10545C00FB6823F44073FB603B681B681B02FA6813
:10546C001343FB603B6923F400533B613B689B682F
:10547C001B033A6913433B617B680F4A934209D182
:10548C007B6923F480437B613B685B699B017A6990
:10549C0013437B617B687A695A607B68FA68DA61CE
:1054AC003B685A687B681A647B683A691A6200BF69
:1054BC001C37BD4680BC7047002C014080B487B0BF
:1054CC0000AFF860B9607A603B60FB681B6A3B61B7
:1054DC00FB681B6A23F00102FB681A62FB689B697C
:1054EC007B61FB681F4A93420BD0FB68B3F1804F82
:1054FC0007D0FB681C4A934203D0FB681B4A9342BB
:10550C0001D1012300E00023002B08D07B6923F09C
:10551C0003037B617A697B6813437B6103E07B69DE
:10552C0043F001037B617B6923F0F0037B613B68F3
:10553C001B01DBB27A6913437B613B6923F00A03DD
:10554C003B61BB6803F00A033A6913433B61FB6898
:10555C007A699A61FB683A691A6200BF1C37BD46CA
:10556C0080BC7047002C0140000400400008004043
:10557C0080B487B000AFF860B9607A60FB681B6AD2
:10558C007B61FB681B6A23F00102FB681A62FB68F3
:10559C009B693B613B6923F0F0033B617B681B011A
:1055AC003A6913433B617B6923F00A037B617A6997
:1055BC00BB6813437B61FB683A699A61FB687A6943
:1055CC001A6200BF1C37BD4680BC704780B487B0E0
:1055DC0000AFF860B9607A603B60FB681B6A7B6166
:1055EC00FB681B6A23F01002FB681A62FB689B695C
:1055FC003B613B6923F440733B617B681B023A6956
:10560C0013433B613B6923F470433B613B681B03D1
:10561C009BB23A6913433B617B6923F0A0037B6126
:10562C00BB681B0103F0A0037A6913437B61FB6821
:10563C003A699A61FB687A691A6200BF1C37BD46E9
:10564C0080BC704780B487B000AFF860B9607A60F6
:10565C00FB681B6A7B61FB681B6A23F01002FB680A
:10566C001A62FB689B693B613B6923F470433B61A5
:10567C007B681B033A6913433B617B6923F0A003EE
:10568C007B61BB681B017A6913437B61FB683A69D8
:10569C009A61FB687A691A6200BF1C37BD4680BCF0
:1056AC00704780B487B000AFF860B9607A603B6037
:1056BC00FB681B6A7B61FB681B6A23F48072FB68C6
:1056CC001A62FB68DB693B613B6923F003033B61B6
:1056DC003A697B6813433B613B6923F0F0033B6100
:1056EC003B681B01DBB23A6913433B617B6923F4D2
:1056FC0000737B61BB681B0203F400737A6913436C
:10570C007B61FB683A69DA61FB687A691A6200BFEF
:10571C001C37BD4680BC704780B487B000AFF860C2
:10572C00B9607A603B60FB681B6A7B61FB681B6A33
:10573C0023F48052FB681A62FB68DB693B613B69AE
:10574C0023F440733B617B681B023A6913433B6152
:10575C003B6923F470433B613B681B039BB23A6982
:10576C0013433B617B6923F400537B61BB681B03D0
:10577C0003F400537A6913437B61FB683A69DA617D
:10578C00FB687A691A6200BF1C37BD4680BC704743
:10579C0080B485B000AF786039607B689B68FB6033
:1057AC00FB6823F07003FB603A68FB68134343F01B
:1057BC000703FB607B68FA689A6000BF1437BD462C
:1057CC0080BC704780B487B000AFF860B9607A6075
:1057DC003B60FB689B687B617B6923F47F437B6147
:1057EC003B681A027B681A43BB6813437A691343FC
:1057FC007B61FB687A699A6000BF1C37BD4680BC30
:10580C00704780B487B000AFF860B9607A60BB684D
:10581C0003F01F03012202FA03F37B61FB681A6A8F
:10582C007B69DB431A40FB681A62FB681A6ABB6827
:10583C0003F01F03796801FA03F31A43FB681A6239
:10584C0000BF1C37BD4680BC7047000080B485B0DB
:10585C0000AF786039607B6893F83C30012B01D144
:10586C00022346E07B68012283F83C207B680222FD
:10587C0083F83D207B681B685B68FB607B681B685A
:10588C009B68BB60FB6823F07003FB603B681B6884
:10589C00FA681343FB607B681B68FA685A607B6884
:1058AC001B68164A93420ED07B681B68B3F1804F7D
:1058BC0009D07B681B68124A934204D07B681B6832
:1058CC00104A93420CD1BB6823F08003BB603B6849
:1058DC005B68BA681343BB607B681B68BA689A60E4
:1058EC007B68012283F83D207B68002283F83C20F2
:1058FC00002318461437BD4680BC7047002C01406D
:10590C00000400400008004080B483B000AF786011
:10591C0000BF0C37BD4680BC704780B483B000AF6D
:10592C00786000BF0C37BD4680BC704791F0000F0B
:10593C0004BF6FF00040704710B54FF0010E90EAB5
:10594C00010F48BF4FF0000E002848BF404200290D
:10595C0048BF4942B0FA80F4122CA8BF122400FAB6
:10596C0004F2C4F1120CB2FBF1F0B0FA80F39C45D6
:10597C00A4BFCEF1004010BD01FB1022B2FA82F49C
:10598C0064450EDAACEB040C02FA04F200FA04F0F3
:10599C00B2FBF1F301FB13221844B2FA82F4644512
:1059AC00F0DD02FA0CF200FA0CF0B2FBF1F3184441
:1059BC009EF0000F08BF404210BD00BF80FB0101EC
:1059CC004FEA904000EB8130704700BF024B01461C
:1059DC00186800F023B800BF5C00002070B50E4EB4
:1059EC000C463168054611B900F0ACF83060214620
:1059FC00284600F0A7F8431C0AD0C41C24F003046A
:105A0C00A04207D0211A284600F09CF8013001D1A1
:105A1C004FF0FF34204670BD000500202DE9F843FF
:105A2C00CD1C25F0030508350C2D38BF0C25002D99
:105A3C00074601DBA94205D90C2300263B60304602
:105A4C00BDE8F883DFF8D08000F068F8D8F80030B3
:105A5C001C465CBB29463846FFF7C0FF431C044676
:105A6C0055D1D8F800402646002E45D1002C48D000
:105A7C0023683146384604EB030900F063F881458E
:105A8C003FD1216838466D1A2946FFF7A7FF013030
:105A9C0037D023682B442360D8F80030002B38D043
:105AAC005A68A2422BD100225A600FE02268521B86
:105ABC001FD40B2A17D96119A342256018BF59604E
:105ACC00636808BFC8F8001062514B60384604F197
