:020000040800F2
:10000000005000204D350008B5130008B713000854
:10001000B9130008BB130008BD130008000000005E
:10002000000000000000000000000000BF130008F6
:10003000C113000800000000C3130008C513000826
:100040009535000895350008953500089535000868
:100050009535000895350008953500089535000858
:10006000953500089535000895350008CD13000832
:100070009535000895350008953500089535000838
:100080009535000895350008953500089535000828
:100090009535000895350008953500089535000818
:1000A0009535000895350008953500089535000808
:1000B00095350008DD1300089535000895350008D2
:1000C00095350008953500089535000895350008E8
:1000D00095350008953500089535000895350008D8
:1000E000953500089535000895350008000000009A
:1000F0000000000000000000000000000000000000
:0C01000000000000000000005FF808F1A3
:10010C0080F0004002E000BF81F0004142001FBFC0
:10011C005FEA410392EA030F7FEA226C7FEA236CC9
:10012C006AD04FEA1262D2EB1363C1BFD2184140BE
:10013C0048404140B8BF5B42192B88BF704710F054
:10014C00004F40F4000020F07F4018BF404211F0F7
:10015C00004F41F4000121F07F4118BF494292EA5F
:10016C00030F3FD0A2F1010241FA03FC10EB0C008B
:10017C00C3F1200301FA03F100F0004302D5494218
:10018C0060EB4000B0F5000F13D3B0F1807F06D3C5
:10019C0040084FEA310102F10102FE2A51D2B1F1BD
:1001AC00004F40EBC25008BF20F0010040EA0300B2
:1001BC007047490040EB0000013A28BFB0F5000F32
:1001CC00EDD2B0FA80FCACF1080CB2EB0C0200FAE8
:1001DC000CF0AABF00EBC25052421843BCBFD04037
:1001EC001843704792F0000F81F4000106BF80F4B1
:1001FC0000000132013BB5E74FEA41037FEA226C74
:10020C0018BF7FEA236C21D092EA030F04D092F03E
:10021C00000F08BF0846704790EA010F1CBF002072
:10022C00704712F07F4F04D1400028BF40F00040CF
:10023C00704712F100723CBF00F50000704700F0EF
:10024C00004343F0FE4040F4000070477FEA226216
:10025C0016BF08467FEA23630146420206BF5FEAE7
:10026C00412390EA010F40F4800070474FF00003E7
:10027C0004E000BF10F0004348BF40425FEA000CAE
:10028C0008BF704743F0964301464FF000001CE056
:10029C0050EA010208BF70474FF000030AE000BFAC
:1002AC0050EA010208BF704711F0004302D54042EA
:1002BC0061EB41015FEA010C02BF8446014600205C
:1002CC0043F0B64308BFA3F18053A3F50003BCFA77
:1002DC008CF2083AA3EBC25310DB01FA02FC634424
:1002EC0000FA02FCC2F12002BCF1004F20FA02F22B
:1002FC0043EB020008BF20F00100704702F120021E
:10030C0001FA02FCC2F1200250EA4C0021FA02F27E
:10031C0043EB020008BF20EADC7070474FF0FF0C83
:10032C001CEAD0521EBF1CEAD15392EA0C0F93EA7E
:10033C000C0F6FD01A4480EA010C400218BF5FEA20
:10034C0041211ED04FF0006343EA501043EA511193
:10035C00A0FB01310CF00040B1F5000F3EBF49008D
:10036C0041EAD3715B0040EA010062F17F02FD2A91
:10037C001DD8B3F1004F40EBC25008BF20F0010074
:10038C00704790F0000F0CF0004C08BF49024CEA8B
:10039C00502040EA51207F3AC2BFD2F1FF0340EA1D
:1003AC00C250704740F400004FF00003013A5DDC8E
:1003BC0012F1190FDCBF00F000407047C2F10002CF
:1003CC00410021FA02F1C2F1200200FA02FC5FEABC
:1003DC00310040F1000053EA4C0308BF20EADC7006
:1003EC00704792F0000F00F0004C02BF400010F478
:1003FC00000F013AF9D040EA0C0093F0000F01F025
:10040C00004C02BF490011F4000F013BF9D041EA46
:10041C000C018FE70CEAD15392EA0C0F18BF93EA48
:10042C000C0F0AD030F0004C18BF31F0004CD8D172
:10043C0080EA010000F00040704790F0000F17BFF9
:10044C0090F0004F084691F0000F91F0004F14D03F
:10045C0092EA0C0F01D142020FD193EA0C0F03D197
:10046C004B0218BF084608D180EA010000F000409A
:10047C0040F0FE4040F40000704740F0FE4040F475
:10048C00400070474FF0FF0C1CEAD0521EBF1CEA14
:10049C00D15392EA0C0F93EA0C0F69D0A2EB030232
:1004AC0080EA010C49024FEA402037D04FF08053CC
:1004BC0043EA111143EA10130CF000408B4238BF91
:1004CC005B0042F17D024FF4000C8B4224BF5B1A9F
:1004DC0040EA0C00B3EB510F24BFA3EB510340EAED
:1004EC005C00B3EB910F24BFA3EB910340EA9C009B
:1004FC00B3EBD10F24BFA3EBD10340EADC001B010B
:10050C0018BF5FEA1C1CE0D1FD2A3FF650AF8B42AE
:10051C0040EBC25008BF20F0010070470CF0004CBB
:10052C004CEA50207F32C2BFD2F1FF0340EAC250E6
:10053C00704740F400004FF00003013A37E792F0A7
:10054C00000F00F0004C02BF400010F4000F013A05
:10055C00F9D040EA0C0093F0000F01F0004C02BF00
:10056C00490011F4000F013BF9D041EA0C0195E769
:10057C000CEAD15392EA0C0F08D142027FF47DAF02
:10058C0093EA0C0F7FF470AF084676E793EA0C0FF2
:10059C0004D14B023FF44CAF08466EE730F0004CF0
:1005AC0018BF31F0004CCAD130F000427FF45CAF80
:1005BC0031F000437FF43CAF5FE700BF4FEA4002ED
:1005CC00B2F1FE4F0FD34FF09E03B3EB12620DD975
:1005DC004FEA002343F0004310F0004F23FA02F0DF
:1005EC0018BF404270474FF00000704712F1610F86
:1005FC0001D1420205D110F0004008BF6FF000405D
:10060C0070474FF00000704710B5054C237833B994
:10061C00044B13B10448AFF300800123237010BDC9
:10062C0060000020000000002C38000808B5034BC7
:10063C001BB103490348AFF3008008BD0000000064
:10064C00640000202C38000800B585B0002301930D
:10065C00029303931848194A02604FF48072826027
:10066C00037303754FF40022C261436002230361DC
:10067C0001F0C4FAB0B902230193012302930723BA
:10068C00039301A90C4801F011F970B903230193EC
:10069C000223029301A9084801F008F940B905B0FA
:1006AC005DF804FB00F068FAE5E700F065FAEDE7A9
:1006BC0000F062FAF3E700BFC00000200024014004
:1006CC0010B586B00023029303930493059302683C
:1006DC001E4B9A4201D006B010BD044603F56C4384
:1006EC009A6942F400729A619A6902F4007200925B
:1006FC00009A9A6942F004029A619B6903F0040320
:10070C000193019B0C2302930323039302A910482A
:10071C0001F028FD0F48104B0360002343608360F9
:10072C008022C2604FF4807202614FF48062426199
:10073C0020228261C36101F003FC18B9054B2362CE
:10074C005C62C8E700F018FAF8E700BF002401402B
:10075C00000801407C0000200800024038B50D4C18
:10076C00022221460C4801F085F90C4D4FF0005146
:10077C00284600F0A1F80A4B18604FF000512846AB
:10078C0000F09AF8074B18604FF4006323806380E5
:10079C0038BD00BF00010020C00000200AD7A33BD9
:1007AC00F4000020F00000201B4A1368B3FA83F316
:1007BC005B091360194A12786AB310B5ABB9184AC1
:1007CC0032F813108904174B186800F088F84FF4AE
:1007DC00A07100F1604002F021FF0F4B1C68FFF785
:1007EC0049FD114B43F8240010BD0D4A32F813108B
:1007FC0089040E4B186800F072F84FF4A07100F1E8
:10080C00604002F00BFF044B1C68FFF733FD064BF6
:10081C0043F82400E8E77047000000200D01002099
:10082C0000010020F4000020F8000020F00000205F
:10083C0008B5FFF7B9FF08BD08B50548054B0360BF
:10084C0001F058FB00B908BD00F096F9FBE700BFBA
:10085C0004010020003002400268094B9A4200D08B
:10086C00704782B0A3F500535A6942F040025A61B6
:10087C005B6903F040030193019B02B0704700BF1A
:10088C000030024000B583B00A4B5A6942F00102B5
:10089C005A615B6903F001030193019B002211462D
:1008AC000B2001F0F5FA0B2001F002FB03B05DF810
:1008BC0004FB00BF0010024070B505460C46082032
:1008CC0002F0B4FE064640B14FF091412846FFF7C6
:1008DC0025FDFFF773FE30607460304670BD08B9BB
:1008EC000020704738B50546006802F097FE0446B4
:1008FC0028686968C0F5802002F090FE204468608A
:10090C0038BD000038B5044603681B68586A00B24D
:10091C002082A38890FBF3F0216A800402F036FE5B
:10092C00636903446361B4F91030A28893FBF2F15C
:10093C0002FB11332382226812689BB253626569F1
:10094C00B4F91000A1888904800402F01FFE216A0A
:10095C0002F01CFE28440349400002F05FFEA06038
:10096C0038BD00BFFD900C0010B504468068636A6A
:10097C00E169C01A02F00AFE0146E06AFFF7AFFF18
:10098C00E060A368636210BD03681A6800235362B9
:10099C00C36043628360436103827047C36890F90C
:1009AC00280003FB00F07047F0B589B000240494D4
:1009BC00059406940794244B9A6942F020029A619C
:1009CC009A6902F020020192019A9A6942F004029B
:1009DC009A619A6902F004020292029A9A6942F0B0
:1009EC0008029A619B6903F008030393039B174D5C
:1009FC002246FA21284601F0C3FC154F22464FF43B
:100A0C000041384601F0BCFCF22304930126059604
:100A1C0006940224079404A9284601F0A3FB4FF482
:100A2C000043049305960694079404A9384601F0F4
:100A3C0099FB0823049305960694079404A9284669
:100A4C0001F090FB09B0F0BD00100240000C014019
:100A5C000008014038B53C4B834200D038BD3B4BBD
:100A6C001B78002B53D001224FF40041384801F081
:100A7C0087FC01222021374801F082FC364B1B8871
:100A8C00002B37D1354B1868FFF798FD01463448D9
:100A9C0000F012FC304A1388B3FA83F35B0913801D
:100AAC00304A138801339BB21380242B2BD02D4B4F
:100ABC001B88482B3CD12C4C204600F0B1FB294B19
:100ACC0000221A80294DB5F90500FFF7D3FB284900
:100ADC00FFF7D8FC0146224800F015FCB5F90500DB
:100AEC00FFF7C8FB2249FFF7CDFC0146204600F07A
:100AFC000AFC1DE0194B5868FFF760FD01461A48C7
:100B0C0000F0DAFBC6E7164800F08AFBCFE70022BC
:100B1C004FF400410E4801F033FC002220210D4817
:100B2C0001F02EFC0E4800F00CFC0F4800F009FC04
:100B3C00104B1B78002B91D0094800F002FC0A489E
:100B4C0000F0FFFB8AE700BF800300200D010020AE
:100B5C0000080140000C014010010020F8000020AA
:100B6C00580200200E010020340100201401002046
:100B7C000000C8420C01002072B6FEE700B595B02B
:100B8C00282200210DEB020002F006FE0023059343
:100B9C000693079308930993019302930393049389
:100BAC0001220A924FF480330B930E92022211927F
:100BBC0012934FF4E01313930AA801F0FDFBC8B98C
:100BCC000F23059302210691002307934FF48062B3
:100BDC000892099305A801F021FE68B9022301933C
:100BEC004FF40043039301A801F0F4FE30B915B0A3
:100BFC005DF804FBFFF7C0FFFFF7BEFFFFF7BCFF7C
:100C0C0008B500F0F1FDFFF7B9FFFFF7CDFEFFF7D8
:100C1C0039FE00F00BFC00F055FC00F01DFDFFF759
:100C2C0013FDFFF709FE00F063FDFFF705FE00F072
:100C3C0001F8FEE708B500F071F800F0DDF800F0FF
:100C4C000BF9FFF78BFD0A4800F07BFB094800F01D
:100C5C0078FB00220221084801F092FB1022074980
:100C6C00074802F05AFC074B00221A7008BD00BF5F
:100C7C005802002034010020000C01402401002007
:100C8C00580400200D01002000238361C36103621E
:100C9C0083634363704738B50446891A016043691E
:100CAC005A42914201DD994230DB6168206802F0C2
:100CBC00B5FCA061A168206802F0B0FC0546606B31
:100CCC00236B2169C01A02F0A9FC616A284402F066
:100CDC00A5FCE3690344E3612068A36BE168C01AD7
:100CEC0002F09CFC616A02F051FC2062A369E2698B
:100CFC00134418442063A36A984203DCE36A8342DA
:100D0C00B8BF034663632368A36338BD0023036045
:100D1C00FFF7BAFFC9E7406B7047000008B5FFF753
:100D2C00B1FDFFF741FE00224FF40041044801F0F1
:100D3C0027FB00222021034801F022FB08BD00BF45
:100D4C0000080140000C014038B5044619B30A46AE
:100D5C0081EAE171A1EBE271438B994203DB038BD6
:100D6C008B42A8BF0B46E361002A23DD01222189B7
:100D7C00E06801F005FB0022218A606901F000FBAC
:100D8C00012384F820302379013B032B24D8DFE89E
:100D9C0003F01F24292E0025C5612A460189C0684D
:100DAC0001F0EEFA2A46218A606901F0E9FA84F82A
:100DBC002050E8E700222189E06801F0E1FA0122E5
:100DCC00218A606901F0DCFAFF2384F82030DAE72D
:100DDC0023681B68E2695A6338BD23681B68E269A3
:100DEC009A63F9E723681B68E269DA63F4E723681E
:100DFC001B68E2691A64EFE710B500F017FB00F00E
:100E0C0061FB00F029FCFFF71FFC0F4800F07AFF94
:100E1C000E4803686FF001041C613C2102F020FABB
:100E2C000B4803681C613C2102F01AFA094C0021A2
:100E3C00204602F0A7F90421204602F0A3F920462F
:100E4C0001F03CFF10BD00BFC000002010040020CA
:100E5C00C8030020800300202DE9F04F87B0484DD7
:100E6C004FF00008CDF80080464B474A0221284637
:100E7C0000F0A8F843462C224449284600F0D0F84C
:100E8C00434F4FF47A730493CDF80C808023029374
:100E9C000197402300933B4601223E49284600F02F
:100EAC00D5F800240194DFF8F0A0CDF800A023467B
:100EBC0022463A49284600F001F9DFF8E4B0CDF8B3
:100ECC0004B0CDF800A02346364A3749284600F036
:100EDC0022F9364E0296DFF8D890CDF804900094A3
:100EEC003346344A4FF07E51284600F044F93249DB
:100EFC00284600F08AF9314D01220092214B224AFA
:100F0C000221284600F05EF801232C222C492846A9
:100F1C0000F086F84FF47A730493CDF80C8010230C
:100F2C0002930197082300933B4602221949284655
:100F3C0000F08CF80194CDF800A023462246174906
:100F4C00284600F0BBF8CDF804B0CDF800A023463D
:100F5C00144A1549284600F0DEF80296CDF80490A4
:100F6C0000943346134A4FF07E51284600F003F9A3
:100F7C001149284600F049F907B0BDE8F08F00BFD1
:100F8C00580200206666AA4100208544C803002050
:100F9C00000C0140800300206F12833B2FDD644066
:100FAC00986E123F5C8F423E855F6A3DCB5961441F
:100FBC004404E938871689400AD7A33C3401002041
:100FCC00100400202DE9F04104460D4617461E463C
:100FDC009DF8188080F819114FF091411846FFF7D1
:100FEC009DF9FFF7EBFA2062B8F1000F14D0FF2344
:100FFC0084F8083131463846FFF744FA4FF09141F6
:10100C00FFF78CF9FFF7DAFAC4F81C0115B143426B
:10101C00E365A065BDE8F081012384F80831E9E7B8
:10102C0038B504461D460160828000210648FFF752
:10103C0043FCE0621DB9012384F8283038BDFF233E
:10104C0084F82830FAE700BFCDCCCC3EC0F8E410D1
:10105C0080F8E820C0F8F030009BC0F8EC30019B21
:10106C00C0F8F830029BC0F8F430BDF80C30A0F892
:10107C00FE30BDF81030A0F8FC3090F81931012B7F
:10108C0009D0022B0FD0ABB9A3F58023C3654FF465
:10109C00802383657047084BC0F898304FF4802349
:1010AC00C0F894307047044BC0F8D4304FF4802310
:1010BC00C0F8D030704700BF0000FCFF70B504468C
:1010CC00084616461D464FF09141FFF727F9FFF7EA
:1010DC0075FA60634FF091413046FFF71FF9FFF747
:1010EC006DFAA0634FF091412846FFF717F9FFF70F
:1010FC0065FAE0634FF091410498FFF70FF9FFF7A1
:10110C005DFA60654FF091410598FFF707F9FFF71D
:10111C0055FA206470BD70B50446084616461D4647
:10112C004FF09141FFF7FAF8FFF748FA20674FF0BC
:10113C0091413046FFF7F2F8FFF740FA60674FF045
:10114C0091412846FFF7EAF8FFF738FAA0674FF00D
:10115C0091410498FFF7E2F8FFF730FA0546C4F81E
:10116C0090004FF091410598FFF7D8F8FFF726FA59
:10117C00E067E56170BD70B504460D461E464FF044
:10118C0091411046FFF7CAF8FFF718FAC4F8AC0003
:10119C004FF091413046FFF7C1F8FFF70FFAC4F852
:1011AC00B0004FF091410498FFF7B8F8FFF706FA3A
:1011BC00C4F8B4004FF091410598FFF7AFF8FFF772
:1011CC00FDF9C4F8CC004FF091410698FFF7A6F852
:1011DC00FFF7F4F9C4F8B8004FF091412846FFF737
:1011EC009DF80646FFF7EAF9C4F8200194F8193186
:1011FC00022B00D070BD054606F10040FFF7DEF96A
:10120C00C4F89800C4F89450F4E710B504460846A6
:10121C004FF09141FFF782F8FFF7D0F9606410BDF1
:10122C0038B50446FFF76EFB2046FFF79DFB94F89C
:10123C001A31032B0ED194F81931012B16D0022B35
:10124C0027D033B904F16C00FFF71EFD0023C4F85E
:10125C00103138BDD4F810512046FFF79FFB0246E1
:10126C00294604F16C00FFF716FDE4E704F16C006D
:10127C00FFF751FDC217B4F8FC30A0FB030103FBD0
:10128C000211800C40EA813104F1E400FFF75CFDAF
:10129C00DFE794F81A31032B06D004F16C00FFF74A
:1012AC003AFDC4F81401D4E704F16C00FFF7ECFC30
:1012BC000023C4F81031CCE738B5044690F8193146
:1012CC00022B06D0A830FFF7DFFC0023C4F8143142
:1012DC0038BD00F1A8050A46D0F814112846FFF7CE
:1012EC00DAFC2846FFF717FDC217B4F8FC30A0FB58
:1012FC00030103FB0211800C40EA813104F1E4008C
:10130C00FFF722FDE4E710B5044690F81931BBB1A4
:10131C000846022384F81A314FF09141FEF7FEFF84
:10132C00FFF74CF994F9083103FB00F0D4F81C31A9
:10133C00984203DC5B428342B8BF0346C4F81031C9
:10134C0010BD10B50446FFF71FFB04F1A800FFF712
:10135C009BFC04F16C00FFF797FC04F13000FFF7E5
:10136C0093FC10BD82B00E4B9A6942F001029A6157
:10137C009A6902F001020092009ADA6942F08052F6
:10138C00DA61DB6903F080530193019B054A5368D2
:10139C0023F0E06343F00073536002B0704700BF6A
:1013AC000010024000000140FEE7FEE7FEE7FEE70A
:1013BC00FEE770477047704708B500F027FA08BD84
:1013CC0008B5024800F02CFE08BD00BF7C000020D0
:1013DC0008B5024801F0AAFC08BD00BF800300203C
:1013EC0010B503460C4A0D490D48006840B10C4835
:1013FC0000680344521A934206D8094A136010BD80
:10140C000748084C0460F2E702F0DEF90C23036095
:10141C004FF0FF30F3E700BF005000200004000045
:10142C007C030020F00500207047000010B594B03C
:10143C00242200210BA802F0AFF9002409940A948D
:10144C002022214601A802F0A7F91C481C4B03607E
:10145C00446084604FF6FF73C3600461446184612F
:10146C0003230B9301220D920F230F9311921393CD
:10147C000BA901F07FFDC0B9002309930A9309A9B8
:10148C000E4801F053FF98B9002301930293039384
:10149C00049305934FF400520692089301A9074850
:1014AC0001F07AFF38B914B010BDFFF765FBE3E724
:1014BC00FFF762FBE8E7FFF75FFBF4E7100400209F
:1014CC00002C014000B58DB02422002103A802F0AD
:1014DC0063F900230193029313484FF0804202609A
:1014EC00436083604FF6FF72C26003618361032324
:1014FC000393012205920F23079309920B9303A9DF
:10150C0001F038FD50B900230193029301A906485C
:10151C0001F00CFF28B90DB05DF804FBFFF72CFBB4
:10152C00F1E7FFF729FBF6E7C803002000B589B007
:10153C000023049305930693079303681F4A934271
:10154C0005D0B3F1804F1DD009B05DF804FB1C4BE6
:10155C009A6942F400629A619A6902F400620092FC
:10156C00009A9A6942F004029A619B6903F00403A1
:10157C000193019B4FF44073049304A9114800F0AC
:10158C00F1FDE1E703F50433DA6942F00102DA61B7
:10159C00DA6902F001020292029A9A6942F004029C
:1015AC009A619B6903F004030393039B0323049345
:1015BC0004A9044800F0D6FDC6E700BF002C01408A
:1015CC00001002400008014002680E4B9A4200D005
:1015DC00704700B583B003F50333DA6942F00202B9
:1015EC00DA61DB6903F002030193019B0022012104
:1015FC001D2000F04DFC1D2000F05AFC03B05DF8DE
:10160C0004FB00BF0004004000B587B00023029328
:10161C0003930493059302680D4B9A4202D007B0D2
:10162C005DF804FB03F503339A6942F004029A61F6
:10163C009B6903F004030193019BC02302930223D3
:10164C000393059302A9034800F08CFDE7E700BF64
:10165C00000400400008014000B58BB00023089343
:10166C0009930193029303930493059306930793B1
:10167C001D481E4A026003224260836040F2E7323A
:10168C00C2600361836101F049FC00BB2023089315
:10169C000023099308A9144801F048FED0B960232F
:1016AC000193002202920392059201A90E4801F0C7
:1016BC00EBFC90B904220DEB02010B4801F0E4FCA9
:1016CC0070B90948FFF7A0FF0BB05DF804FBFFF7FA
:1016DC0053FADBE7FFF750FAE1E7FFF74DFAE9E7DA
:1016EC00FFF74AFAEDE700BF80030020000400403A
:1016FC0008B50A480A4B03604FF4E13343600023FA
:10170C008360C36003610C2242618361C36101F099
:10171C00B9FE00B908BDFFF72FFAFBE7580400200B
:10172C000048004010B586B0002302930393049345
:10173C0005930268174B9A4201D006B010BD03F511
:10174C00E433DA6942F48022DA61DA6902F4802245
:10175C000092009A9A6942F008029A619B6903F020
:10176C0008030193019B4FF48063029302230393BC
:10177C0003230593084C02A9204600F0F3FC4FF418
:10178C000063029300230393049302A9204600F004
:10179C00E9FCD2E700480040000C014010B50446BB
:1017AC000E4B1A784FF47A73B3FBF2F30C4A1068B1
:1017BC00B0FBF3F000F08AFB68B90F2C01D90120C3
:1017CC000AE0002221464FF0FF3000F061FB054B90
:1017DC001C60002000E0012010BD00BF08000020AC
:1017EC00040000200C00002008B5074A136843F0E1
:1017FC0010031360032000F039FB0F20FFF7CEFF1E
:10180C00FFF7B0FD002008BD00200240034A11681C
:10181C00034B1B780B441360704700BFA0040020DF
:10182C0008000020014B1868704700BFA00400207E
:10183C0008B5436A9A6A12F0500F1ED19A6A42F4A4
:10184C0000729A621A68926802F46022B2F5602FF4
:10185C0003D01846FEF7ECFF08BD1A7B002AF8D11E
:10186C009A6A22F480729A629A6A12F4805FF0D1BA
:10187C009A6A42F001029A62EBE71B6A1B6B98476B
:10188C00EAE7704708B5406AFFF7FBFF08BD7047F1
:10189C0008B5406A836A43F040038362C36A43F02D
:1018AC000403C362FFF7F3FF08BD000030B482B03D
:1018BC000022019290F82420012A00F08F80034628
:1018CC00012280F824204A68062A2DD80468606B0F
:1018DC0002EB8202053A4FF01F0C0CFA02FC20EAD4
:1018EC000C000D6805FA02F2024362630A68092AC9
:1018FC0038D91C68E06802EB42021E3A4FF0070C24
:10190C000CFA02FC20EA0C008D6805FA02F2024384
:10191C00E2600A68103A012A34D90020002283F8C8
:10192C00242002B030BC70470C2A0DD80568286BF7
:10193C0002EB8202233A1F24944020EA04000C6834
:10194C00944020432863D1E70568E86A02EB8202E1
:10195C00413A1F24944020EA04000C689440204330
:10196C00E862C3E71C68206902EB42024FF0070CE7
:10197C000CFA02FC20EA0C008D6805FA02F2024314
:10198C002261C6E71A681648824205D09A6A42F06C
:10199C0020029A620120C1E7906810F4000F1BD15D
:1019AC00906840F4000090600A68102A01D0002072
:1019BC00B4E70C4A12680C49A1FB0212920C02EB20
:1019CC0082025200019202E0019A013A0192019ABC
:1019DC00002AF9D10020A1E700209FE70220A0E710
:1019EC00002401400400002083DE1B4330B583B08B
:1019FC000023019303689A6812F0010F33D1044657
:101A0C009A6842F001029A60184B1B68184AA2FBB4
:101A1C0003239B0C019302E0019B013B0193019B6F
:101A2C00002BF9D1FFF7FEFE054623689B6813F0E7
:101A3C00010F16D1FFF7F6FE431B022BF5D92368D5
:101A4C009B6813F0010FF0D1A36A43F01003A3625B
:101A5C00E36A43F00103E362002384F8243001209D
:101A6C0002E0002000E0002003B030BD04000020A4
:101A7C0083DE1B43F8B504460D4616460168444800
:101A8C00814259D0434B994256D094F82430012BC3
:101A9C007CD0012384F824302046FFF7A7FF0746AB
:101AAC0000286ED1A16A21F4706121F0010141F48A
:101ABC008071A1622268374B9A4244D0A36A23F406
:101ACC008013A362536813F4806F05D0A36A23F4C8
:101ADC00405343F48053A362A36A13F4805F48D04D
:101AEC00E36A23F00603E362002384F82430236ABC
:101AFC00294A9A62236A294ADA62236A284A1A63B3
:101B0C0023686FF002021A602268936843F48073B2
:101B1C009360216833462A464C31206A00F044FA1F
:101B2C0023689A6802F46022B2F5602F24D09A6878
:101B3C0042F480129A6027E0154B5B6813F4702F07
:101B4C00A3D0012720E0A3F580635B6813F4702F0A
:101B5C00B4D0A36A43F48013A3620D4B5B6813F4F7
:101B6C00806FB9D0A36A23F4405343F48053A3622B
:101B7C00B2E70023E362B7E79A6842F4A0029A60E6
:101B8C0002E0002384F824303846F8BD0227FBE736
:101B9C0000240140002801403D180008911800085D
:101BAC009D18000838B503689A6812F0010F01D12E
:101BBC00002038BD04469A6822F001029A60FFF7B3
:101BCC0031FE054623689B6813F0010F13D0FFF715
:101BDC0029FE431B022BF5D923689B6813F0010FD8
:101BEC00F0D0A36A43F01003A362E36A43F001034D
:101BFC00E3620120DDE70020DBE7000000287BD05A
:101C0C0070B50446836A002B4DD02046FFF7CAFFFF
:101C1C00A36A13F0100369D1002867D1A26A22F4D9
:101C2C00885222F0020242F00202A2626268E1696A
:101C3C000A43217B42EA4102A568B5F5807F02D0B8
:101C4C00012D36D01D46267D012E35D026687168B3
:101C5C0021F46941294371602568AE6827493140F8
:101C6C001143A960A168B1F5807F01D0012902D18F
:101C7C002369013B1B052568E96A21F470010B43BC
:101C8C00EB62236899681E4B0B409A4225D0A36ADD
:101C9C0023F0120343F01003A362E36A43F0010341
:101CAC00E362012027E0C36280F82430FEF708FDD0
:101CBC00ABE74FF48075C6E731B9A169013945EA44
:101CCC00413141F40065C1E7A16A41F02001A162F4
:101CDC00E16A41F00101E162B8E70023E362A36A23
:101CEC0023F0030343F00103A36204E0A36A43F06F
:101CFC001003A362012070BD01207047FDF7E1FFC6
:101D0C00FE0E1FFF70B582B00023019390F82430B3
:101D1C00012B72D00446012380F82430FFF742FFD8
:101D2C002046FFF763FE054628B1002384F82430D3
:101D3C00284602B070BDA36A23F4885323F0020333
:101D4C0043F00203A3622E4B1E68022000F0CEFE6D
:101D5C00B6FBF0F67600019602E0019B013B019385
:101D6C00019B002BF9D12268936843F00803936020
:101D7C00FFF758FD064623689A6812F0080F14D036
:101D8C00FFF750FD801B0A28F5D923689B6813F0D8
:101D9C00080FF0D0A36A23F0120343F01003A362E0
:101DAC00002384F824300125C2E79A6842F004022B
:101DBC009A60FFF737FD064623689B6813F0040F03
:101DCC0014D0FFF72FFD801B0A28F5D923689B68D8
:101DDC0013F0040FF0D0A36A23F0120343F01003A6
:101DEC00A362002384F824300125A1E7A36A23F021
:101DFC00030343F00103A36297E7022598E700BFB2
:101E0C0004000020002808DB0901C9B200F1604081
:101E1C0000F5614080F80013704700F00F000901D5
:101E2C00C9B2014B1954704714ED00E000B500F035
:101E3C000700C0F1070CBCF1040F28BF4FF0040CD5
:101E4C00031D062B0FD9C31E4FF0FF3E0EFA0CF0EC
:101E5C0021EA000199400EFA03FE22EA0E0241EA41
:101E6C0002005DF804FB0023EEE70000074AD3688C
:101E7C0023F4E0631B041B0C000200F4E06003433A
:101E8C0043F0BF6343F40033D360704700ED00E0D0
:101E9C0010B50446054BD868C0F30220FFF7C6FF07
:101EAC0001462046FFF7AEFF10BD00BF00ED00E07D
:101EBC00002807DB00F01F02400901239340024A6F
:101ECC0042F82030704700BF00E100E00138B0F16B
:101EDC00807F0BD24FF0E0235861054AF02182F845
:101EEC0023100020986107221A6170470120704767
:101EFC0000ED00E058B110B5044643791BB1012345
:101F0C006371002010BD0371FEF7A6FCF7E70120FA
:101F1C00704730B40124056CAC40C56B6C60046830
:101F2C0063604368102B05D0036899600368DA601E
:101F3C0030BC704703689A600368D960F8E700000A
:101F4C0050B310B402460168144B0B441448A0FB68
:101F5C0003031B099B001364124BD363022382F807
:101F6C00213008686FF30D10536894682343D468CC
:101F7C002343146923435469234394692343D46949
:101F8C00234303430B6000209063012382F821302C
:101F9C0082F8200010BC704701207047F8FFFDBF8D
:101FAC00CDCCCCCC0000024038B5044690F82000D3
:101FBC00012832D0012084F8200094F82100C0B20E
:101FCC00012804D0002384F82030022038BD0220E0
:101FDC0084F821000020A0632568286820F0010007
:101FEC0028602046FFF795FFE36A5BB1226813680F
:101FFC0043F00E0313602268136843F0010313606F
:10200C000020E3E72268136823F0040313602268BE
:10201C00136843F00A031360EDE70220D6E70000D3
:10202C0038B5C36B1A6804682568016C04238B40AF
:10203C00134235D015F0040F32D0236813F0200F63
:10204C0003D1236823F0040323600368434A9342BB
:10205C0014D01432934218D01432934217D0143245
:10206C00934217D01432934217D01432934202D0B9
:10207C004FF0806203E04FF4800200E00422384B02
:10208C005A60C36A03B1984738BD4022F7E74FF452
:10209C008062F4E74FF48042F1E74FF48022EEE7E0
:1020AC0002238B4013423CD015F0020F39D0236829
:1020BC0013F0200F06D1236823F00A0323600123B9
:1020CC0080F821300368254A934214D0143293428D
:1020DC001CD0143293421BD0143293421BD01432B6
:1020EC0093421BD01432934202D04FF0007203E0A3
:1020FC004FF4001200E00222194B5A60002380F8C2
:10210C002030836A002BBFD09847BDE72022F3E72D
:10211C004FF40072F0E74FF40052EDE74FF4003249
:10212C00EAE708238B401342AED015F0080FABD072
:10213C00236823F00E032360026CC16B012303FAA6
:10214C0002F24A60836380F82130002380F820304B
:10215C00036B002B98D0984796E700BF080002400D
:10216C000000024070B582B00024A446A1E07E4D70
:10217C00AB4214D00CD8A5F58015AB420FD005F5A9
:10218C007025AB420BD0A5F58015AB4210D106E003
:10219C00764DAB4203D005F58035AB4208D18B6848
:1021AC00002B50D0012B49D04261082400E0CC68B0
:1021BC00BEF1FF0F49D806464FEA8C0233680F2553
:1021CC00954023EA050304FA02F2134333604B688B
:1021DC0013F0805F6BD0664B9A6942F001029A61F2
:1021EC009B6903F001030193019B4FEA9C02951C30
:1021FC00604B53F825600CF00305AD000F23AB408A
:10220C0026EA03065C4B984226D003F5806398427D
:10221C0000F08C8003F58063984200F0898003F510
:10222C008063984216D0042317E0CC680434BFE7CF
:10223C00CC680834BCE7CC680C34B9E702610824DC
:10224C00B6E70024B4E70424B2E7061DACF108029B
:10225C009200B3E7032300E00023AB403343023288
:10226C00444D45F822304B6813F4801F62D0434A2A
:10227C00936843EA0E0393604B6813F4001F5FD01E
:10228C003E4AD36843EA0E03D3604B6813F4003F15
:10229C005CD03A4A536843EA0E0353604B6813F41C
:1022AC00803F59D0354A136843EA0E0313600CF192
:1022BC00010C0B6833FA0CF254D0012202FA0CF226
:1022CC0003EA020E32EA0303F1D14B68122B3FF6FC
:1022DC004EAF122B3FF66CAF01A555F823F000BFA3
:1022EC00AB210008BB2100083D2200084F2200084A
:1022FC00BD210008BD210008BD210008BD2100083A
:10230C00BD210008BD210008BD210008BD21000829
:10231C00BD210008BD210008BD210008BD21000819
:10232C00BD2100083722000843220008012394E74E
:10233C00022392E7114A936823EA0E0393609BE70A
:10234C000E4AD36823EA0E03D3609EE70B4A536808
:10235C0023EA0E035360A1E7084A136823EA0E032D
:10236C001360A4E702B070BD000022100000311011
:10237C000010024000000140000801400004014030
:10238C000AB10161704709040161704782B0084BC2
:10239C001B68084AA2FB03235B0A00FB03F30193AF
:1023AC0000BF019B5A1E0192002BF9D102B070475D
:1023BC0004000020D34D6210002800F0F18170B5AC
:1023CC0082B00446036813F0010F2CD0994B5B6864
:1023DC0003F00C03042B1DD0964B5B6803F00C032D
:1023EC00082B12D06368B3F5803F41D0002B55D138
:1023FC0003F1804303F504331A6822F480321A6027
:10240C001A6822F480221A6037E08A4B5B6813F456
:10241C00803FE7D0874B1B6813F4003F03D0636801
:10242C00002B00F0BF81236813F0020F75D0814B95
:10243C005B6813F00C0F5FD07E4B5B6803F00C03F2
:10244C00082B54D02369002B00F08A807A4B012290
:10245C001A60FFF7E7F90546764B1B6813F0020F7D
:10246C0075D1FFF7DFF9401B0228F5D903209EE157
:10247C00704A136843F480331360636843B3FFF707
:10248C00D1F905466B4B1B6813F4003FCBD1FFF71A
:10249C00C9F9401B6428F5D9032088E1B3F5A02FB6
:1024AC0009D0644B1A6822F480321A601A6822F43C
:1024BC0080221A60E1E703F18043A3F53C331A68EC
:1024CC0042F480221A601A6842F480321A60D4E70F
:1024DC00FFF7A8F90546574B1B6813F4003FA2D031
:1024EC00FFF7A0F9401B6428F5D903205FE1514B9D
:1024FC005B6813F4803FA5D14E4B1B6813F0020FA1
:10250C0003D02369012B40F04F814A4A136823F012
:10251C00F803616943EAC1031360236813F0080FE1
:10252C0033D0A369002B5CD0434B0122C3F8802429
:10253C00FFF778F905463F4B5B6A13F0020F21D188
:10254C00FFF770F9401B0228F5D903202FE1394A17
:10255C00136823F0F803616943EAC1031360DCE7F5
:10256C00354B00221A60FFF75DF90546314B1B68AD
:10257C0013F0020FD1D0FFF755F9401B0228F5D903
:10258C00032014E10120FFF701FF236813F0040F6F
:10259C0000F09680274BDB6913F0805F34D1254B1C
:1025AC00DA6942F08052DA61DB6903F080530193FF
:1025BC00019B0125214B1B6813F4807F26D0E36817
:1025CC00012B3DD0002B53D103F1804303F5043391
:1025DC001A6A22F001021A621A6A22F004021A62C2
:1025EC0033E0154B0022C3F88024FFF71BF9054696
:1025FC00104B5B6A13F0020FC7D0FFF713F9401BA7
:10260C000228F5D90320D2E00025D3E70B4A136842
:10261C0043F480731360FFF705F90646074B1B68FC
:10262C0013F4807FCBD1FFF7FDF8801B6428F5D91C
:10263C000320BCE000100240000042420070004049
:10264C005F4A136A43F001031362E36833B3FFF785
:10265C00E9F806465A4B1B6A13F0020F2FD1FFF70D
:10266C00E1F8801B41F288339842F3D903209EE0B5
:10267C00052B09D0524B1A6A22F001021A621A6A0F
:10268C0022F004021A62E0E74D4B1A6A42F004028F
:10269C001A621A6A42F001021A62D6E7FFF7C2F810
:1026AC000646474B1B6A13F0020F08D0FFF7BAF827
:1026BC00801B41F288339842F3D9032077E0E5B9C7
:1026CC00E369002B72D03E4A526802F00C02082AD1
:1026DC0056D0022B17D03B4B00221A66FFF7A2F8FC
:1026EC000446374B1B6813F0007F47D0FFF79AF86E
:1026FC00001B0228F5D9032059E0314AD36923F095
:10270C008053D361DCE72F4B00221A66FFF78AF85F
:10271C0005462B4B1B6813F0007F06D0FFF782F8A1
:10272C00401B0228F5D9032041E0236AB3F5803F12
:10273C001AD023494B6823F47413226A606A02434B
:10274C0013434B601F4B01221A66FFF76BF80446CC
:10275C001B4B1B6813F0007F0ED1FFF763F8001BB7
:10276C000228F5D9032022E0154A536823F40033DC
:10277C00A1680B435360DCE7002018E0002016E052
:10278C00012B16D00E4B5B6803F48031226A914208
:10279C0011D103F47013626A93420ED1002006E04B
:1027AC0001207047012002E0012000E0002002B06F
:1027BC0070BD0120FBE70120F9E70120F7E700BF1E
:1027CC0000100240000042420F4B5B6803F00C0209
:1027DC00082A01D00D487047C3F383420C49885C2A
:1027EC0013F4803F0BD0084B5B68C3F34043094A9A
:1027FC00D35C064A02FB00F0B0FBF3F07047064BCB
:10280C0003FB00F0704700BF0010024000127A007A
:10281C00603800085C38000800093D00002800F012
:10282C00A08070B50D460446524B1B6803F007039D
:10283C008B420BD24F4A136823F007030B431360F0
:10284C00136803F007038B4240F08D80236813F06C
:10285C00020F17D013F0040F04D0474A536843F407
:10286C00E0635360236813F0080F04D0424A5368A6
:10287C0043F460535360404A536823F0F003A1685B
:10288C000B435360236813F0010F31D06368012BA5
:10289C0020D0022B25D0384A126812F0020F64D0D7
:1028AC0035494A6822F0030213434B60FEF7BAFF26
:1028BC000646314B5B6803F00C036268B3EB820F86
:1028CC0016D0FEF7AFFF801B41F288339842F0D947
:1028DC00032045E0284A126812F4003FE0D10120A1
:1028EC003EE0254A126812F0007FD9D1012037E072
:1028FC00204B1B6803F00703AB420AD91D4A13682F
:10290C0023F007032B431360136803F00703AB4258
:10291C002DD1236813F0040F06D0174A536823F403
:10292C00E063E1680B435360236813F0080F07D092
:10293C00114A536823F46053216943EAC10353607D
:10294C00FFF742FF0C4B5B68C3F303130B4AD35CDA
:10295C00D8400B4B18600B4B1868FEF71FFF00207C
:10296C0070BD012070470120FAE70120F8E7012033
:10297C00F6E700BF00200240001002404C3800086F
:10298C00040000200C000020014B1868704700BFA9
:10299C000400002008B5FFF7F7FF044B5B68C3F396
:1029AC000223034AD35CD84008BD00BF001002408C
:1029BC004438000808B5FFF7E7FF044B5B68C3F326
:1029CC00C223034AD35CD84008BD00BF00100240AC
:1029DC004438000870B582B00446036813F0010F48
:1029EC0036D03F4BDB6913F0805F49D13C4BDA6941
:1029FC0042F08052DA61DB6903F080530193019B52
:102A0C000125384B1B6813F4807F3BD0344B1B6A79
:102A1C0013F4407313D0626802F440729A420ED0E1
:102A2C002F4A136A23F440702F490126C1F84064E1
:102A3C000026C1F84064106213F0010F36D1284A09
:102A4C00136A23F4407361680B431362002D3ED16B
:102A5C00236813F0020F06D0214A536823F4404335
:102A6C00A1680B435360236813F0100F34D01C4A39
:102A7C00536823F48003E1680B43536000202CE07F
:102A8C000025BEE7174A136843F480731360FEF702
:102A9C00C9FE0646134B1B6813F4807FB6D1FEF7B4
:102AAC00C1FE801B6428F5D9032016E0FEF7BAFEA0
:102ABC0006460B4B1B6A13F0020FC0D1FEF7B2FE99
:102ACC00801B41F288339842F3D9032005E0D36987
:102ADC0023F08053D361BBE7002002B070BD00BF70
:102AEC0000100240007000400000424208B502286D
:102AFC004ED0102803D0012828D0002052E02B4BB8
:102B0C005A68186810F080704CD0C2F3834328497F
:102B1C00C85C12F4803F15D0244B5B68C3F3404370
:102B2C00244AD25C244BB3FBF2F303FB00F01F4BA3
:102B3C005B6813F4800F35D14000204BA3FB0030B1
:102B4C0040082FE01E4B03FB00F0F0E7174B1B6A0D
:102B5C0040F202321A40B2F5817F24D003F4407364
:102B6C00B3F5007F04D0B3F5407F09D0002019E005
:102B7C000E4A526A12F0020FF5D049F6404011E0AD
:102B8C000A4B186810F400300CD04FF2244009E0C6
:102B9C00FFF710FF054B5B68C3F3813301335B0018
:102BAC00B0FBF3F008BD4FF40040FBE7001002400F
:102BBC00743800087038000800127A00ABAAAAAA70
:102BCC0000093D0030B4026A036A23F0010303627A
:102BDC004568836923F073030C681C4322F00202DE
:102BEC008B6813430B4A904206D0456084614A6857
:102BFC004263036230BC704723F00803CA681A436F
:102C0C0022F0040325F440754A692A438D69154363
:102C1C00EBE700BF002C014030B4036A026A22F4D7
:102C2C00807202624468C26922F073020D68154317
:102C3C0023F400738A6843EA02230D4A904206D0BB
:102C4C004460C5614A68C263036230BC704723F4B8
:102C5C000063CA6843EA022323F4806324F44054DB
:102C6C004A6944EA02148A6944EA0214E8E700BF9C
:102C7C00002C014030B4036A026A22F480520262D2
:102C8C004468C26922F4E6420D6842EA052223F444
:102C9C0000538D6843EA0533074DA84206D04460C3
:102CAC00C2614A680264036230BC704724F48044F9
:102CBC004D6944EA8514F2E7002C014090F83D3050
:102CCC00DBB2012B27D1022380F83D300268D36898
:102CDC0043F00103D3600368114A934210D0B3F15F
:102CEC00804F0DD0A2F59432934209D002F5806248
:102CFC00934205D01A6842F001021A600020704716
:102D0C009A6802F00702062A07D01A6842F00102FC
:102D1C001A6000207047012070470020704700BFE8
:102D2C00002C0140704770477047704710B504463F
:102D3C0003681A6912F0020F11D0DA6812F0020F50
:102D4C000DD06FF002021A610123037703689B69AF
:102D5C0013F0030F70D0FFF7E6FF002323772368EF
:102D6C001A6912F0040F12D0DA6812F0040F0ED0A8
:102D7C006FF004021A610223237723689B6913F412
:102D8C00407F5FD02046FFF7CEFF002323772368D8
:102D9C001A6912F0080F12D0DA6812F0080F0ED070
:102DAC006FF008021A61042323772368DB6913F0A0
:102DBC00030F4ED02046FFF7B6FF0023237723687E
:102DCC001A6912F0100F12D0DA6812F0100F0ED030
:102DDC006FF010021A61082323772368DB6913F460
:102DEC00407F3DD02046FFF79EFF002323772368CA
:102DFC001A6912F0010F03D0DA6812F0010F36D104
:102E0C0023681A6912F0800F03D0DA6812F0800F71
:102E1C0034D123681A6912F0400F03D0DA6812F02B
:102E2C00400F32D123681A6912F0200F03D0DA68F0
:102E3C0012F0200F30D110BDFFF774FF2046FFF7C2
:102E4C0073FF8AE72046FFF76DFF2046FFF76CFF04
:102E5C009BE72046FFF766FF2046FFF765FFACE7D0
:102E6C002046FFF75FFF2046FFF75EFFBDE76FF0E0
:102E7C0001021A612046FDF7EDFDC1E76FF08002FB
:102E8C001A61204600F0B2FAC3E76FF040021A61F3
:102E9C002046FFF74AFFC5E76FF020021A61204673
:102EAC0000F0A3FAC7E7000003681B4A90420AD05F
:102EBC00B0F1804F07D0A2F59432904203D002F5C6
:102ECC008062904203D123F070034A681343124A84
:102EDC0090420AD0B0F1804F07D0A2F594329042C4
:102EEC0003D002F58062904203D123F44073CA6888
:102EFC00134323F080034A69134303608B68C36256
:102F0C000B688362044B984202D0012343617047E3
:102F1C000B690363F9E700BF002C014040B310B507
:102F2C00044690F83D30F3B1022384F83D3021463D
:102F3C0051F8040BFFF7B8FF012384F8463084F8EE
:102F4C003E3084F83F3084F8403084F8413084F8C7
:102F5C00423084F8433084F8443084F8453084F8A7
:102F6C003D30002010BD80F83C30FEF72DFBDBE738
:102F7C0001207047002856D070B50D46044690F8D5
:102F8C003D30002B4AD0022384F83D3022689368F0
:102F9C0023F4804323F007039360214651F8040B7C
:102FAC00FFF782FF21688B688A690E6A28681843CC
:102FBC0022F4407222F00302AB68D5F818C043EA41
:102FCC000C23134323F47C4323F0FC03EA68D5F869
:102FDC001CC042EA0C221A432B6A1B03D5F810C002
:102FEC0043EA0C13134326F022066A686D6942EA21
:102FFC0005123243886021688B6123681A620123B1
:10300C0084F8463084F83E3084F83F3084F84230FF
:10301C0084F8433084F83D30002070BD80F83C309B
:10302C00FEF784FAAFE701207047000030B4036A62
:10303C00026A22F0100202624468826922F4E642BB
:10304C000D6842EA052223F020038D6843EA05133C
:10305C000C4DA84206D0446082614A6882630362C8
:10306C0030BC704723F08003CD6843EA051323F08E
:10307C00400324F440644D6944EA85048D6944EAB4
:10308C008504E8E7002C014038B590F83C30012B62
:10309C0066D004460D46012380F83C300C2A5AD8E1
:1030AC00DFE802F0075959591B59595930595959E8
:1030BC0044000068FFF786FD2268936943F008031B
:1030CC0093612268936923F00403936122689369E6
:1030DC0029690B43936100203EE00068FFF7A6FFCF
:1030EC002268936943F4006393612268936923F423
:1030FC008063936122689369296943EA0123936190
:10310C00002029E00068FFF787FD2268D36943F0AF
:10311C000803D3612268D36923F00403D3612268C6
:10312C00D36929690B43D361002015E00068FFF7D0
:10313C00A1FD2268D36943F40063D3612268D3698B
:10314C0023F48063D3612268D369296943EA01239C
:10315C00D361002000E00120002384F83C3038BD0E
:10316C000220FCE701F01F014FF0010C0CFA01FCEE
:10317C00036A23EA0C030362036A8A401343036263
:10318C007047000010B50446084651BB94F83E3019
:10319C00DBB2013B18BF0123002B5BD1002839D1D6
:1031AC00022384F83E30012201462068FFF7DAFF43
:1031BC0023682A4A93423DD02368284A93423ED042
:1031CC00B3F1804F3BD0A2F59432934237D002F545
:1031DC008062934233D01A6842F001021A600020D8
:1031EC0039E0042908D008290DD094F84130DBB21D
:1031FC00013B18BF0123CFE794F83F30DBB2013B12
:10320C0018BF0123C8E794F84030DBB2013B18BF6C
:10321C000123C1E7042805D0082807D0022384F82D
:10322C004130C0E7022384F83F30BCE7022384F826
:10323C004030B8E75A6C42F400425A64BCE79A68D2
:10324C0002F00702062A07D01A6842F001021A603F
:10325C00002000E0012010BD0020FCE7002C014004
:10326C0038B5044690F83E00C0B294F83F3094F85C
:10327C004220D2B294F843C00D46B1B9012849D1CD
:10328C00012A48D1022384F83E3084F842307DB3C1
:10329C00042D39D0012200212068FFF763FF0122A1
:1032AC0004212068FFF75EFF27E0DBB25FFA8CFC9D
:1032BC00042912D0012833D1012B2CD1012A31D170
:1032CC00BCF1010F30D1022384F83E3084F83F303A
:1032DC0084F8423084F84330D9E7012B1CD1BCF17F
:1032EC00010F1BD1022384F83F3084F84330CEE722
:1032FC00012200212068FFF735FF2268136843F094
:10330C0001031360002006E0012204212068FFF76E
:10331C0029FFF2E7012038BD0120FCE71846FAE747
:10332C000120F8E71846F6E71046F4E790F83C2041
:10333C00012A2CD010B40346012280F83C20022232
:10334C0080F83D2002685068946820F0700C086882
:10335C0040EA0C0050601A680E4882420AD0B2F162
:10336C00804F07D0A0F59430824203D000F58060E6
:10337C00824204D124F080044968214391600122E7
:10338C0083F83D20002083F83C0010BC70470220DD
:10339C00704700BF002C0140024690F83C30012BD6
:1033AC0021D0012380F83C30CB6823F4407388682B
:1033BC00034323F480634868034323F400630868E1
:1033CC00034323F480530869034323F400534869EF
:1033DC00034323F48043C9690B4311684B640020F9
:1033EC0082F83C007047022070477047704700001D
:1033FC0010B504460268136923F44053C1680B43AB
:10340C00136183680269134342691A430168CB68EC
:10341C0023F4B05323F00C031343CB6002685369BD
:10342C0023F4407381690B4353610268134B9A4236
:10343C0020D0FFF7AFFA024602EB820202EB8202C7
:10344C0063689B00B2FBF3F20D48A0FB0231490903
:10345C00642303FB11231B013233A0FB03035B0921
:10346C0003F0F00202EB011203F00F032168134486
:10347C008B6010BDFFF79EFA0246DDE70038014075
:10348C001F85EB5160B310B5044690F8413013B36F
:10349C00242384F841302268D36823F40053D3608A
:1034AC002046FFF7A5FF2268136923F490431361AC
:1034BC002268536923F02A0353612268D36843F4CA
:1034CC000053D36000206064202384F8413084F8DA
:1034DC004230606310BD80F84030FEF723F9D7E727
:1034EC000120704781628285C285002343642223B8
:1034FC0080F84230036923B10268D36843F48073C7
:10350C00D3600268536943F0010353610268D368C6
:10351C0043F02003D3600020704708B590F8423088
:10352C00DBB2202B08D149B10AB9012008BD002318
:10353C000363FFF7D7FFF9E70220F7E70120F5E770
:10354C00FDF772FF0B480C490C4A002302E0D458DB
:10355C00C4500433C4188C42F9D3094A094C0023D3
:10356C0001E013600432A242FBD300F033F9FDF703
:10357C0047FB704700000020600000208C380008DA
:10358C0060000020EC050020FEE7000091F0000F29
:10359C0004BF6FF00040704710B54FF0010E90EA79
:1035AC00010F48BF4FF0000E002848BF40420029D1
:1035BC0048BF4942B0FA80F4122CA8BF122400FA7A
:1035CC0004F2C4F1120CB2FBF1F0B0FA80F39C459A
:1035DC00A4BFCEF1004010BD01FB1022B2FA82F460
:1035EC0064450EDAACEB040C02FA04F200FA04F0B7
:1035FC00B2FBF1F301FB13221844B2FA82F46445D6
:10360C00F0DD02FA0CF200FA0CF0B2FBF1F3184404
:10361C009EF0000F08BF404210BD00BF80FB0101AF
:10362C004FEA904000EB8130704700BF024B0146DF
:10363C00186800F025B800BF1000002070B50F4EC0
:10364C000C463168054611B900F0AEF830602146E1
:10365C00284600F0A9F8431C03D14FF0FF34204654
:10366C0070BDC41C24F00304A042F8D0211A2846D3
:10367C0000F09AF80130F2D1EFE700BFA40400206B
:10368C002DE9F843CD1C25F0030508350C2D38BF6A
:10369C000C25002D064601DBA94204D90C2333600E
:1036AC000020BDE8F883DFF8D48000F069F8D8F882
:1036BC0000301C4644BB29463046FFF7BFFF431C75
:1036CC00044658D1D8F800402746002F43D1002C8F
:1036DC004BD023683946304604EB030900F064F8FC
:1036EC00814542D1216830466D1A2946FFF7A6FF65
:1036FC0001303AD023682B442360D8F800305A6844
:10370C0062BBC8F800700FE02268521B20D40B2A51
:10371C0017D96119A342256018BF5960636808BFA7
:10372C00C8F8001062514B60304600F02FF804F1DD
:10373C000B00231D20F00700C21A1CBF1B1AA3503C
:10374C00AFE76268A3420CBFC8F800205A60EBE7F1
:10375C0023466468AEE73C467F68B6E71A465B686A
:10376C00A342FBD100235360DEE70C2330463360C9
:10377C0000F00CF894E70560D6E700BFA804002021
:10378C00014800F04BB800BFE8050020014800F0EC
:10379C0046B800BFE805002003460244934200D11E
:1037AC00704703F8011BF9E738B50023054D0446B3
:1037BC0008462B60FDF714FE431C02D12B6803B1A5
:1037CC00236038BDE4050020014B1868704700BF2A
:1037DC001000002070B500260C4D0D4C641BA4107D
:1037EC00A64209D100F01CF800260A4D0A4C641BB5
:1037FC00A410A64205D170BD55F8043B984701367C
:10380C00EEE755F8043B98470136F2E78438000898
:10381C0084380008843800088838000870477047DE
:10382C00F8B500BFF8BC08BC9E467047F8B500BFA1
:08383C00F8BC08BC9E46704771
:10384400000000000102030400000000000000006A
:10385400010203040607080901020000020304052B
:10386400060708090A0B0C0D0E0F101001020000C8
:1038740002030405060708090A0B0C0D0E0F1010AD
:0438840039060008F9
:043888001506000819
:10388C00010000000024F400010000001000000002
:10389C001400002000000000AC04002014050020DF
:1038AC007C0500200000000000000000000000006B
:1038BC0000000000000000000000000000000000FC
:1038CC0000000000000000000000000000000000EC
:1038DC0000000000000000000000000000000000DC
:040000050800354D6D
:00000001FF
