:020000040800F2
:10000000005000207D3B0008211600082316000840
:100010002516000827160008291600080000000011
:100020000000000000000000000000002B16000887
:100030002D160008000000002F16000831160008D9
:10004000C53B0008C53B0008C53B0008C53B000890
:10005000C53B0008C53B0008C53B0008C53B000880
:10006000C53B0008C53B0008C53B00083916000821
:10007000C53B0008C53B0008C53B0008C53B000860
:10008000C53B0008C53B0008C53B0008C53B000850
:10009000C53B0008C53B0008C53B0008C53B000840
:1000A000C53B0008C53B0008C53B0008C53B000830
:1000B000C53B000849160008C53B0008C53B0008C1
:1000C000C53B0008C53B0008C53B0008C53B000810
:1000D00059160008C53B0008C53B0008C53B000891
:1000E00069160008C53B0008C53B00080000000079
:1000F0000000000000000000000000000000000000
:0C01000000000000000000005FF808F1A3
:10010C0080F0004002E000BF81F0004142001FBFC0
:10011C005FEA410392EA030F7FEA226C7FEA236CC9
:10012C006AD04FEA1262D2EB1363C1BFD2184140BE
:10013C0048404140B8BF5B42192B88BF704710F054
:10014C00004F40F4000020F07F4018BF404211F0F7
:10015C00004F41F4000121F07F4118BF494292EA5F
:10016C00030F3FD0A2F1010241FA03FC10EB0C008B
:10017C00C3F1200301FA03F100F0004302D5494218
:10018C0060EB4000B0F5000F13D3B0F1807F06D3C5
:10019C0040084FEA310102F10102FE2A51D2B1F1BD
:1001AC00004F40EBC25008BF20F0010040EA0300B2
:1001BC007047490040EB0000013A28BFB0F5000F32
:1001CC00EDD2B0FA80FCACF1080CB2EB0C0200FAE8
:1001DC000CF0AABF00EBC25052421843BCBFD04037
:1001EC001843704792F0000F81F4000106BF80F4B1
:1001FC0000000132013BB5E74FEA41037FEA226C74
:10020C0018BF7FEA236C21D092EA030F04D092F03E
:10021C00000F08BF0846704790EA010F1CBF002072
:10022C00704712F07F4F04D1400028BF40F00040CF
:10023C00704712F100723CBF00F50000704700F0EF
:10024C00004343F0FE4040F4000070477FEA226216
:10025C0016BF08467FEA23630146420206BF5FEAE7
:10026C00412390EA010F40F4800070474FF00003E7
:10027C0004E000BF10F0004348BF40425FEA000CAE
:10028C0008BF704743F0964301464FF000001CE056
:10029C0050EA010208BF70474FF000030AE000BFAC
:1002AC0050EA010208BF704711F0004302D54042EA
:1002BC0061EB41015FEA010C02BF8446014600205C
:1002CC0043F0B64308BFA3F18053A3F50003BCFA77
:1002DC008CF2083AA3EBC25310DB01FA02FC634424
:1002EC0000FA02FCC2F12002BCF1004F20FA02F22B
:1002FC0043EB020008BF20F00100704702F120021E
:10030C0001FA02FCC2F1200250EA4C0021FA02F27E
:10031C0043EB020008BF20EADC7070474FF0FF0C83
:10032C001CEAD0521EBF1CEAD15392EA0C0F93EA7E
:10033C000C0F6FD01A4480EA010C400218BF5FEA20
:10034C0041211ED04FF0006343EA501043EA511193
:10035C00A0FB01310CF00040B1F5000F3EBF49008D
:10036C0041EAD3715B0040EA010062F17F02FD2A91
:10037C001DD8B3F1004F40EBC25008BF20F0010074
:10038C00704790F0000F0CF0004C08BF49024CEA8B
:10039C00502040EA51207F3AC2BFD2F1FF0340EA1D
:1003AC00C250704740F400004FF00003013A5DDC8E
:1003BC0012F1190FDCBF00F000407047C2F10002CF
:1003CC00410021FA02F1C2F1200200FA02FC5FEABC
:1003DC00310040F1000053EA4C0308BF20EADC7006
:1003EC00704792F0000F00F0004C02BF400010F478
:1003FC00000F013AF9D040EA0C0093F0000F01F025
:10040C00004C02BF490011F4000F013BF9D041EA46
:10041C000C018FE70CEAD15392EA0C0F18BF93EA48
:10042C000C0F0AD030F0004C18BF31F0004CD8D172
:10043C0080EA010000F00040704790F0000F17BFF9
:10044C0090F0004F084691F0000F91F0004F14D03F
:10045C0092EA0C0F01D142020FD193EA0C0F03D197
:10046C004B0218BF084608D180EA010000F000409A
:10047C0040F0FE4040F40000704740F0FE4040F475
:10048C00400070474FF0FF0C1CEAD0521EBF1CEA14
:10049C00D15392EA0C0F93EA0C0F69D0A2EB030232
:1004AC0080EA010C49024FEA402037D04FF08053CC
:1004BC0043EA111143EA10130CF000408B4238BF91
:1004CC005B0042F17D024FF4000C8B4224BF5B1A9F
:1004DC0040EA0C00B3EB510F24BFA3EB510340EAED
:1004EC005C00B3EB910F24BFA3EB910340EA9C009B
:1004FC00B3EBD10F24BFA3EBD10340EADC001B010B
:10050C0018BF5FEA1C1CE0D1FD2A3FF650AF8B42AE
:10051C0040EBC25008BF20F0010070470CF0004CBB
:10052C004CEA50207F32C2BFD2F1FF0340EAC250E6
:10053C00704740F400004FF00003013A37E792F0A7
:10054C00000F00F0004C02BF400010F4000F013A05
:10055C00F9D040EA0C0093F0000F01F0004C02BF00
:10056C00490011F4000F013BF9D041EA0C0195E769
:10057C000CEAD15392EA0C0F08D142027FF47DAF02
:10058C0093EA0C0F7FF470AF084676E793EA0C0FF2
:10059C0004D14B023FF44CAF08466EE730F0004CF0
:1005AC0018BF31F0004CCAD130F000427FF45CAF80
:1005BC0031F000437FF43CAF5FE700BF4FEA4002ED
:1005CC00B2F1FE4F0FD34FF09E03B3EB12620DD975
:1005DC004FEA002343F0004310F0004F23FA02F0DF
:1005EC0018BF404270474FF00000704712F1610F86
:1005FC0001D1420205D110F0004008BF6FF000405D
:10060C0070474FF00000704710B5054C237833B994
:10061C00044B13B10448AFF300800123237010BDC9
:10062C006000002000000000803E000808B5034B6D
:10063C001BB103490348AFF3008008BD0000000064
:10064C0064000020803E000800B585B000230193B3
:10065C00029303931848194A02604FF48072826027
:10066C00037303754FF40022C261436002230361DC
:10067C0001F09CFBB0B902230193012302930723E1
:10068C00039301A90C4801F0E9F970B90323019314
:10069C000223029301A9084801F0E0F940B905B022
:1006AC005DF804FB00F094FAE5E700F091FAEDE751
:1006BC0000F08EFAF3E700BFC000002000240140D8
:1006CC0010B586B00023029303930493059302683C
:1006DC001E4B9A4201D006B010BD044603F56C4384
:1006EC009A6942F400729A619A6902F4007200925B
:1006FC00009A9A6942F004029A619B6903F0040320
:10070C000193019B0C2302930323039302A910482A
:10071C0001F070FE0F48104B0360002343608360B0
:10072C008022C2604FF4807202614FF48062426199
:10073C0020228261C36101F0FFFC18B9054B2362D2
:10074C005C62C8E700F044FAF8E700BF00240140FF
:10075C00000801407C0000200800024038B50D4C18
:10076C00022221460C4801F05DFA0C4D4FF000516D
:10077C00284600F0A1F80A4B18604FF000512846AB
:10078C0000F09AF8074B18604FF4006323806380E5
:10079C0038BD00BF00010020C00000200AD7A33BD9
:1007AC00F4000020F00000201B4A1368B3FA83F316
:1007BC005B091360194A12786AB310B5ABB9184AC1
:1007CC0032F813108904174B186800F088F84FF4AE
:1007DC00A07100F1604003F039FA0F4B1C68FFF771
:1007EC0049FD114B43F8240010BD0D4A32F813108B
:1007FC0089040E4B186800F072F84FF4A07100F1E8
:10080C00604003F023FA044B1C68FFF733FD064BE2
:10081C0043F82400E8E77047000000200D01002099
:10082C0000010020F4000020F8000020F00000205F
:10083C0008B5FFF7B9FF08BD08B50548054B0360BF
:10084C0001F030FC00B908BD00F0C2F9FBE700BFB5
:10085C0004010020003002400268094B9A4200D08B
:10086C00704782B0A3F500535A6942F040025A61B6
:10087C005B6903F040030193019B02B0704700BF1A
:10088C000030024000B583B00A4B5A6942F00102B5
:10089C005A615B6903F001030193019B002211462D
:1008AC000B2001F0CDFB0B2001F0DAFB03B05DF85F
:1008BC0004FB00BF0010024070B505460C46082032
:1008CC0003F0DEF9064640B14FF091412846FFF7A0
:1008DC0025FDFFF773FE30607460304670BD08B9BB
:1008EC000020704738B50546006803F0AFF90446A0
:1008FC0028686968C0F5802003F0A8F92044686076
:10090C0038BD000038B5044603681B68586A00B24D
:10091C002082A38890FBF3F0216A800403F04EF947
:10092C00636903446361B4F91030A28893FBF2F15C
:10093C0002FB11332382226812689BB253626569F1
:10094C00B4F91000A1888904800403F037F9216AF6
:10095C0003F034F928440349400003F077F9A06010
:10096C0038BD00BFFD900C0010B504468068636A6A
:10097C00E169C01A03F022F90146E06AFFF7AFFF04
:10098C00E060A368636210BD03681A6800235362B9
:10099C00C36043628360436103827047C36890F90C
:1009AC00280003FB00F070472DE9F04188B00024CB
:1009BC0004940594069407942E4B9A6942F02002F5
:1009CC009A619A6902F020020192019A9A6942F0A6
:1009DC0004029A619A6902F004020292029A9A69DC
:1009EC0042F008029A619B6903F008030393039B8E
:1009FC00DFF8848022464FF40041404601F00FFEA0
:100A0C001E4E2246F821304601F009FE4FF4805369
:100A1C0004931B4B0593069404A9304601F0EAFCA1
:100A2C004FF400430493012705970225069507957B
:100A3C0004A9404601F0DEFC0823049305970695B3
:100A4C00079504A9304601F0D5FCF02304930597D3
:100A5C000694079504A9304601F0CCFC22462146A9
:100A6C00282001F0EDFA282001F0FAFA08B0BDE8D0
:100A7C00F08100BF0010024000080140000C014052
:100A8C0000003110464B834200D0704770B5454B87
:100A9C001B78002B64D001224FF40041424801F036
:100AAC00BEFD01222021414801F0B9FD404B1B88BD
:100ABC00002B38D13F4B1868FFF780FD01463E48AC
:100ACC0000F018FC3A4A1388B3FA83F35B091380DD
:100ADC003A4A138801339BB21380242B3CD0374BFA
:100AEC001B88482B4DD1364C204600F0B7FB334BBE
:100AFC0000221A80304EF06803F0B0F80546E0682A
:100B0C0003F0ACF8024629462E4800F0E8FC2E4DC6
:100B1C00D5F80910304600F014FCD5F80D1020461D
:100B2C0000F00FFC2DE0234D6868FFF747FD0146F0
:100B3C00234800F0DFFB2868FFF740FD03F08EF838
:100B4C0004466868FFF73AFD03F088F80246214630
:100B5C001C4800F0C9FCB5E7174800F07FFBBEE766
:100B6C0000224FF40041104801F059FD00222021D1
:100B7C000E4801F054FD104800F001FC104800F044
:100B8C00FEFB124B1B7803B970BD0B4800F0F7FB52
:100B9C000B4800F0F4FB0B4800F09EFCF4E700BFA0
:100BAC00140400200D01002000080140000C01403D
:100BBC0010010020F8000020380200200E01002057
:100BCC0014010020F0030020C00300200C010020C1
:100BDC0072B6FEE700B595B0282200210DEB02009D
:100BEC0003F004F9002305930693079308930993E4
:100BFC00019302930393049301220A924FF48033DE
:100C0C000B930E920222119212934FF4E013139352
:100C1C000AA801F02FFDC8B90F23059302210691F4
:100C2C00002307934FF480620892099305A801F002
:100C3C0053FF68B9022301934FF40043039301A8B7
:100C4C0002F016F830B915B05DF804FBFFF7C0FFE1
:100C5C00FFF7BEFFFFF7BCFF08B500F09DFEFFF7E6
:100C6C00B9FFFFF7A1FEFFF70DFE00F023FD00F02A
:100C7C0057FD00F01FFEFFF7E7FC00F091FBFFF7BC
:100C8C00DBFD00F08DFBFFF7D7FD00F001F8FEE770
:100C9C0008B500F061F800F0CDF800F0FBF8FFF7B4
:100CAC005DFD054800F06BFB044800F068FB044B4D
:100CBC0001221A7008BD00BF380200201401002068
:100CCC000D01002000238361C361036283634363CE
:100CDC00704738B50446891A016043695A429142FB
:100CEC0001DD994230DB6168206802F0AFFFA06142
:100CFC00A168206802F0AAFF0546606B236B21698E
:100D0C00C01A02F0A3FF616A284402F09FFFE36956
:100D1C000344E3612068A36BE168C01A02F096FFFC
:100D2C00616A02F04BFF2062A369E2691344184424
:100D3C002063A36A984203DCE36A8342B8BF03468C
:100D4C0063632368A36338BD00230360FFF7BAFF16
:100D5C00C9E7406B7047000008B5FFF793FDFFF73C
:100D6C0023FE00224FF40041044801F058FC0022FD
:100D7C002021034801F053FC08BD00BF00080140CE
:100D8C00000C014038B5044619B30A4681EAE171FA
:100D9C00A1EBE271438B994203DB038B8B42A8BF1F
:100DAC000B46E361002A23DD01222189E06801F072
:100DBC0036FC0022218A606901F031FC012384F8A1
:100DCC0020302379013B032B24D8DFE803F01F24C8
:100DDC00292E0025C5612A460189C06801F01FFC37
:100DEC002A46218A606901F01AFC84F82050E8E751
:100DFC0000222189E06801F012FC0122218A60693D
:100E0C0001F00DFCFF2384F82030DAE723681B681F
:100E1C00E2695A6338BD23681B68E2699A63F9E793
:100E2C0023681B68E269DA63F4E723681B68E269EC
:100E3C001A64EFE710B500F03DFC00F071FC00F017
:100E4C0039FDFFF701FC0F4801F034F80E48036838
:100E5C006FF001041C613C2102F0ECFD0B480368AF
:100E6C001C613C2102F0E6FD094C0021204602F0F9
:100E7C0073FD0421204602F06FFD204602F008FBB2
:100E8C0010BD00BFC0000020A40400205C040020A2
:100E9C00140400202DE9F04F87B0484D0126009630
:100EAC00474B484A0221284600F0AAF833462C2228
:100EBC004549284600F0D2F8DFF810914FF47A73C8
:100ECC0004930022039280230293CDF804904023D4
:100EDC0000934B4632463E49284600F0D5F8002494
:100EEC000194DFF8F080CDF80080234622463A4981
:100EFC00284600F001F9DFF8E4B0CDF804B0CDF8E5
:100F0C0000802346364A3749284600F022F9364FEE
:100F1C000297DFF8D8A0CDF804A000943B46344AE1
:100F2C004FF07E51284600F044F93249284600F033
:100F3C008AF9314D0096224B224A0221284600F0B4
:100F4C005FF833462C222D49284600F087F84FF4E1
:100F5C007A7304930022039210230293CDF8049029
:100F6C00082300934B4602221949284600F08CF8BE
:100F7C000194CDF80080234622461749284600F0FC
:100F8C00BBF8CDF804B0CDF800802346144A1549BF
:100F9C00284600F0DEF80297CDF804A000943B46FA
:100FAC00134A4FF07E51284600F003F911492846A8
:100FBC0000F049F907B0BDE8F08F00BF38020020FF
:100FCC006666AA41002085445C040020000C0140A8
:100FDC00140400206F12833B2FDD6440986E123F87
:100FEC005C8F423E855F6A3DCB5961444404E938CD
:100FFC00871689400AD7A33C14010020A4040020C2
:10100C002DE9F04104460D4617461E469DF8188002
:10101C0080F819114FF091411846FFF77FF9FFF74F
:10102C00CDFA2062B8F1000F14D0FF2384F80831F8
:10103C0031463846FFF726FA4FF09141FFF76EF92B
:10104C00FFF7BCFAC4F81C0115B14342E365A06577
:10105C00BDE8F081012384F80831E9E738B504468E
:10106C001D460160828000210648FFF725FCE062E6
:10107C001DB9012384F8283038BDFF2384F82830AB
:10108C00FAE700BFCDCCCC3EC0F8E41080F8E820E5
:10109C00C0F8F030009BC0F8EC30019BC0F8F83081
:1010AC00029BC0F8F430BDF80C30A0F8FE30BDF84F
:1010BC001030A0F8FC3090F81931012B09D0022B1C
:1010CC000FD0ABB9A3F58023C3654FF480238365A0
:1010DC007047084BC0F898304FF48023C0F8943018
:1010EC007047044BC0F8D4304FF48023C0F8D03094
:1010FC00704700BF0000FCFF70B50446084616465A
:10110C001D464FF09141FFF709F9FFF757FA60635D
:10111C004FF091413046FFF701F9FFF74FFAA0630A
:10112C004FF091412846FFF7F9F8FFF747FAE063D3
:10113C004FF091410498FFF7F1F8FFF73FFA606523
:10114C004FF091410598FFF7E9F8FFF737FA206463
:10115C0070BD70B50446084616461D464FF09141C9
:10116C00FFF7DCF8FFF72AFA20674FF09141304681
:10117C00FFF7D4F8FFF722FA60674FF09141284649
:10118C00FFF7CCF8FFF71AFAA0674FF091410498DB
:10119C00FFF7C4F8FFF712FA0546C4F890004FF0B9
:1011AC0091410598FFF7BAF8FFF708FAE067E56197
:1011BC0070BD70B504460D461E464FF09141104669
:1011CC00FFF7ACF8FFF7FAF9C4F8AC004FF0914117
:1011DC003046FFF7A3F8FFF7F1F9C4F8B0004FF071
:1011EC0091410498FFF79AF8FFF7E8F9C4F8B400B6
:1011FC004FF091410598FFF791F8FFF7DFF9C4F82C
:10120C00CC004FF091410698FFF788F8FFF7D6F91C
:10121C00C4F8B8004FF091412846FFF77FF8064616
:10122C00FFF7CCF9C4F8200194F81931022B00D047
:10123C0070BD054606F10040FFF7C0F9C4F89800F0
:10124C00C4F89450F4E710B5044608464FF09141A9
:10125C00FFF764F8FFF7B2F9606410BD38B50446C7
:10126C00FFF750FB2046FFF77FFB94F81A31032B56
:10127C000ED194F81931012B16D0022B27D033B98B
:10128C0004F16C00FFF71EFD0023C4F8103138BDCB
:10129C00D4F810512046FFF781FB0246294604F191
:1012AC006C00FFF716FDE4E704F16C00FFF751FD4D
:1012BC00C217B4F8FC30A0FB030103FB0211800C35
:1012CC0040EA813104F1E400FFF75CFDDFE794F8BC
:1012DC001A31032B06D004F16C00FFF73AFDC4F869
:1012EC001401D4E704F16C00FFF7ECFC0023C4F804
:1012FC001031CCE738B5044690F81931022B06D0E2
:10130C00A830FFF7DFFC0023C4F8143138BD00F11E
:10131C00A8050A46D0F814112846FFF7DAFC28462F
:10132C00FFF717FDC217B4F8FC30A0FB030103FB59
:10133C000211800C40EA813104F1E400FFF722FD38
:10134C00E4E710B5044690F81931BBB10846022306
:10135C0084F81A314FF09141FEF7E0FFFFF72EF9B8
:10136C0094F9083103FB00F0D4F81C31984203DCEB
:10137C005B428342B8BF0346C4F8103110BD10B5B0
:10138C000446FFF701FB04F1A800FFF79BFC04F1F6
:10139C006C00FFF797FC04F13000FFF793FC10BDD5
:1013AC0008B50C480C4B0360002343608360C3609A
:1013BC00036143614FF40072826103624362836292
:1013CC000A23C36201F0C2FD00B908BDFFF700FC9F
:1013DC00FBE700BF5C0300200038004010B586B06E
:1013EC000023029303930493059302681A4B9A42C9
:1013FC0001D006B010BD03F5EC33DA6942F480423B
:10140C00DA61DA6902F480420092009A9A6942F039
:10141C0008029A619B6903F008030193019B4FF446
:10142C00204302930D4C02A9204600F0E3FF4FF439
:10143C0080430293022303930323059302A92046BE
:10144C0000F0D8FF00221146242000F0F9FD2420E2
:10145C0000F006FECDE700BF00380040000C014054
:10146C0010B588B004460DF1040C00686168A268E0
:10147C00E368ACE80F0020696169ACE80300238BDA
:10148C00ACF80030062201A9034800F01AFEC4F89B
:10149C001A0008B010BD00BF0401002010B586B0C2
:1014AC0004460DF1040C00686168A268E368ACE8BE
:1014BC000F00238AACF8003004220DEB0201054822
:1014CC0000F0FFFDD4F81230834214BF002001203D
:1014DC0006B010BD04010020012343767047C0F80C
:1014EC000910C0F80D207047C0F81110C0F8152075
:1014FC0070470000B0F5805F00D0704710B54FF416
:10150C008051124801F084F830B1114B1A681368FD
:10151C0043F48073136010BD0E4C2046FFF7A0FF00
:10152C000B480268136823F480731B041B0C1360B4
:10153C001623094A214601F065FD084B1860637EAD
:10154C00002BE8D000226276E5E700BF000C0140DA
:10155C005C030020F0030020D8030020B40300201B
:10156C0038B5144A1368013313601348FFF796FF1C
:10157C00C0B1124DAC46104C0FCCACE80F0094E847
:10158C0003004CF8040BACF800102A780C4B1A70C2
:10159C006A7C0C4B1A700C4B1A68136843F48073FA
:1015AC00136038BD094A136801331360044B0022E1
:1015BC001A70F0E7BC030020D8030020C003002001
:1015CC000D0100200C0100205C030020B80300205A
:1015DC0082B00E4B9A6942F001029A619A6902F04C
:1015EC0001020092009ADA6942F08052DA61DB69FA
:1015FC0003F080530193019B054A536823F0E06389
:10160C0043F00073536002B0704700BF00100240FB
:10161C0000000140FEE7FEE7FEE7FEE7FEE770474D
:10162C007047704708B500F0C9F908BD08B5024805
:10163C0000F03EFE08BD00BF7C00002008B502484B
:10164C0001F05EFF08BD00BF1404002008B502487D
:10165C0001F016FE08BD00BF5C03002008B54FF476
:10166C00805000F0E3FF08BD10B503460C4A0D494D
:10167C000D48006840B10C4800680344521A93426C
:10168C0006D8094A136010BD0748084C0460F2E7FD
:10169C0002F0C4FB0C2303604FF0FF30F3E700BFF4
:1016AC000050002000040000100400203806002028
:1016BC007047000000B58DB02422002103A802F071
:1016CC0095FB0023019302931348144A0260436074
:1016DC0083604FF6FF72C260036143618361032331
:1016EC000393012205920F23079309920B9303A9ED
:1016FC0002F02AF850B900230193029301A906487D
:10170C0002F0FEF928B90DB05DF804FBFFF760FAA2
:10171C00F1E7FFF75DFAF6E7A4040020002C014086
:10172C0000B58DB02422002103A802F05FFB00233A
:10173C000193029313484FF0804202604360836030
:10174C004FF6FF72C260036183610323039301228E
:10175C0005920F23079309920B9303A901F0F4FF51
:10176C0050B900230193029301A9064802F0C8F96D
:10177C0028B90DB05DF804FBFFF72AFAF1E7FFF783
:10178C0027FAF6E75C04002000B589B00023049327
:10179C0005930693079303681F4A934205D0B3F150
:1017AC00804F1DD009B05DF804FB1C4B9A6942F4C4
:1017BC0000629A619A6902F400620092009A9A6936
:1017CC0042F004029A619B6903F004030193019BAC
:1017DC004FF44073049304A9114800F00BFEE1E7A9
:1017EC0003F50433DA6942F00102DA61DA6902F0D6
:1017FC0001020292029A9A6942F004029A619B6970
:10180C0003F004030393039B0323049304A90448E8
:10181C0000F0F0FDC6E700BF002C014000100240B4
:10182C000008014002680E4B9A4200D0704700B588
:10183C0083B003F50333DA6942F00202DA61DB6943
:10184C0003F002030193019B002201211D2000F0F3
:10185C00F7FB1D2000F004FC03B05DF804FB00BF97
:10186C000004004000B587B0002302930393049357
:10187C00059302680D4B9A4202D007B05DF804FB49
:10188C0003F503339A6942F004029A619B6903F0F1
:10189C0004030193019BC02302930223039305933A
:1018AC0002A9034800F0A6FDE7E700BF00040040D2
:1018BC000008014000B58BB00023089309930193F5
:1018CC000293039304930593069307931D481E4AB2
:1018DC00026003224260836040F2E732C26003611F
:1018EC00836101F005FF00BB2023089300230993BB
:1018FC0008A9144802F004F9D0B96023019300221E
:10190C0002920392059201A90E4801F0A7FF90B92B
:10191C0004220DEB02010B4801F0A0FF70B909483D
:10192C00FFF7A0FF0BB05DF804FBFFF751F9DBE705
:10193C00FFF74EF9E1E7FFF74BF9E9E7FFF748F955
:10194C00EDE700BF140400200004004010B504466D
:10195C000E4B1A784FF47A73B3FBF2F30C4A1068FF
:10196C00B0FBF3F000F08AFB68B90F2C01D9012011
:10197C000AE0002221464FF0FF3000F061FB054BDE
:10198C001C60002000E0012010BD00BF08000020FA
:10199C00040000200C00002008B5074A136843F02F
:1019AC0010031360032000F039FB0F20FFF7CEFF6C
:1019BC00FFF70EFE002008BD00200240034A11680C
:1019CC00034B1B780B441360704700BFEC040020E2
:1019DC0008000020014B1868704700BFEC04002081
:1019EC0008B5436A9A6A12F0500F1ED19A6A42F4F3
:1019FC0000729A621A68926802F46022B2F5602F43
:101A0C0003D01846FEF714FF08BD1A7B002AF8D144
:101A1C009A6A22F480729A629A6A12F4805FF0D108
:101A2C009A6A42F001029A62EBE71B6A1B6B9847B9
:101A3C00EAE7704708B5406AFFF7FBFF08BD70473F
:101A4C0008B5406A836A43F040038362C36A43F07B
:101A5C000403C362FFF7F3FF08BD000030B482B08B
:101A6C000022019290F82420012A00F08F80034676
:101A7C00012280F824204A68062A2DD80468606B5D
:101A8C0002EB8202053A4FF01F0C0CFA02FC20EA22
:101A9C000C000D6805FA02F2024362630A68092A17
:101AAC0038D91C68E06802EB42021E3A4FF0070C72
:101ABC000CFA02FC20EA0C008D6805FA02F20243D3
:101ACC00E2600A68103A012A34D90020002283F817
:101ADC00242002B030BC70470C2A0DD80568286B46
:101AEC0002EB8202233A1F24944020EA04000C6883
:101AFC00944020432863D1E70568E86A02EB820230
:101B0C00413A1F24944020EA04000C68944020437E
:101B1C00E862C3E71C68206902EB42024FF0070C35
:101B2C000CFA02FC20EA0C008D6805FA02F2024362
:101B3C002261C6E71A681648824205D09A6A42F0BA
:101B4C0020029A620120C1E7906810F4000F1BD1AB
:101B5C00906840F4000090600A68102A01D00020C0
:101B6C00B4E70C4A12680C49A1FB0212920C02EB6E
:101B7C0082025200019202E0019A013A0192019A0A
:101B8C00002AF9D10020A1E700209FE70220A0E75E
:101B9C00002401400400002083DE1B4330B583B0D9
:101BAC000023019303689A6812F0010F33D10446A5
:101BBC009A6842F001029A60184B1B68184AA2FB03
:101BCC0003239B0C019302E0019B013B0193019BBE
:101BDC00002BF9D1FFF7FEFE054623689B6813F036
:101BEC00010F16D1FFF7F6FE431B022BF5D9236824
:101BFC009B6813F0010FF0D1A36A43F01003A362AA
:101C0C00E36A43F00103E362002384F824300120EB
:101C1C0002E0002000E0002003B030BD04000020F2
:101C2C0083DE1B43F8B504460D461646016844484E
:101C3C00814259D0434B994256D094F82430012B11
:101C4C007CD0012384F824302046FFF7A7FF0746F9
:101C5C0000286ED1A16A21F4706121F0010141F4D8
:101C6C008071A1622268374B9A4244D0A36A23F454
:101C7C008013A362536813F4806F05D0A36A23F416
:101C8C00405343F48053A362A36A13F4805F48D09B
:101C9C00E36A23F00603E362002384F82430236A0A
:101CAC00294A9A62236A294ADA62236A284A1A6301
:101CBC0023686FF002021A602268936843F4807301
:101CCC009360216833462A464C31206A00F068FA4A
:101CDC0023689A6802F46022B2F5602F24D09A68C7
:101CEC0042F480129A6027E0154B5B6813F4702F56
:101CFC00A3D0012720E0A3F580635B6813F4702F59
:101D0C00B4D0A36A43F48013A3620D4B5B6813F445
:101D1C00806FB9D0A36A23F4405343F48053A36279
:101D2C00B2E70023E362B7E79A6842F4A0029A6034
:101D3C0002E0002384F824303846F8BD0227FBE784
:101D4C000024014000280140ED190008411A000848
:101D5C004D1A000838B503689A6812F0010F01D1CA
:101D6C00002038BD04469A6822F001029A60FFF701
:101D7C0031FE054623689B6813F0010F13D0FFF763
:101D8C0029FE431B022BF5D923689B6813F0010F26
:101D9C00F0D0A36A43F01003A362E36A43F001039B
:101DAC00E3620120DDE70020DBE7000000287BD0A8
:101DBC0070B50446836A002B4DD02046FFF7CAFF4E
:101DCC00A36A13F0100369D1002867D1A26A22F428
:101DDC00885222F0020242F00202A2626268E169B9
:101DEC000A43217B42EA4102A568B5F5807F02D007
:101DFC00012D36D01D46267D012E35D02668716802
:101E0C0021F46941294371602568AE682749314046
:101E1C001143A960A168B1F5807F01D0012902D1DD
:101E2C002369013B1B052568E96A21F470010B430A
:101E3C00EB62236899681E4B0B409A4225D0A36A2B
:101E4C0023F0120343F01003A362E36A43F001038F
:101E5C00E362012027E0C36280F82430FEF730FCF7
:101E6C00ABE74FF48075C6E731B9A169013945EA92
:101E7C00413141F40065C1E7A16A41F02001A16242
:101E8C00E16A41F00101E162B8E70023E362A36A71
:101E9C0023F0030343F00103A36204E0A36A43F0BD
:101EAC001003A362012070BD01207047FDF7E1FF14
:101EBC00FE0E1FFF70B582B00023019390F8243002
:101ECC00012B72D00446012380F82430FFF742FF27
:101EDC002046FFF763FE054628B1002384F8243022
:101EEC00284602B070BDA36A23F4885323F0020382
:101EFC0043F00203A3622E4B1E68022000F044FF45
:101F0C00B6FBF0F67600019602E0019B013B0193D3
:101F1C00019B002BF9D12268936843F0080393606E
:101F2C00FFF758FD064623689A6812F0080F14D084
:101F3C00FFF750FD801B0A28F5D923689B6813F026
:101F4C00080FF0D0A36A23F0120343F01003A3622E
:101F5C00002384F824300125C2E79A6842F0040279
:101F6C009A60FFF737FD064623689B6813F0040F51
:101F7C0014D0FFF72FFD801B0A28F5D923689B6826
:101F8C0013F0040FF0D0A36A23F0120343F01003F4
:101F9C00A362002384F824300125A1E7A36A23F06F
:101FAC00030343F00103A36297E7022598E700BF00
:101FBC0004000020002808DB0901C9B200F16040D0
:101FCC0000F5614080F80013704700F00F00090124
:101FDC00C9B2014B1954704714ED00E000B500F084
:101FEC000700C0F1070CBCF1040F28BF4FF0040C24
:101FFC00031D062B0FD9C31E4FF0FF3E0EFA0CF03B
:10200C0021EA000199400EFA03FE22EA0E0241EA8F
:10201C0002005DF804FB0023EEE70000074AD368DA
:10202C0023F4E0631B041B0C000200F4E060034388
:10203C0043F0BF6343F40033D360704700ED00E01E
:10204C0010B50446054BD868C0F30220FFF7C6FF55
:10205C0001462046FFF7AEFF10BD00BF00ED00E0CB
:10206C00002807DB00F01F02400901239340024ABD
:10207C0042F82030704700BF00E100E00138B0F1B9
:10208C00807F0BD24FF0E0235861054AF02182F893
:10209C0023100020986107221A61704701207047B5
:1020AC0000ED00E058B110B5044643791BB1012393
:1020BC006371002010BD0371FEF7CEFBF7E7012022
:1020CC0070478446022343710068836843F0010320
:1020DC0083600023934211D200B5DCF8000051F864
:1020EC0023E0C0F800E001339342F6D3DCF8003073
:1020FC00186801238CF805305DF804FBDCF800301F
:10210C00186801238CF80530704730B40124056C35
:10211C00AC40C56B6C60046863604368102B05D0E1
:10212C00036899600368DA6030BC704703689A6092
:10213C000368D960F8E7000050B310B40246016898
:10214C00144B0B441448A0FB03031B099B001364A2
:10215C00124BD363022382F8213008686FF30D1001
:10216C00536894682343D468234314692343546904
:10217C00234394692343D469234303430B60002016
:10218C009063012382F8213082F8200010BC704744
:10219C0001207047F8FFFDBFCDCCCCCC0000024035
:1021AC0038B5044690F82000012832D0012084F87C
:1021BC00200094F82100C0B2012804D0002384F838
:1021CC002030022038BD022084F821000020A063BA
:1021DC002568286820F0010028602046FFF795FF4D
:1021EC00E36A5BB12268136843F00E031360226844
:1021FC00136843F0010313600020E3E722681368BF
:10220C0023F0040313602268136843F00A0313607D
:10221C00EDE70220D6E7000008B590F82130DBB2DC
:10222C00022B03D004238363012008BD02681368CA
:10223C0023F00E0313600268136823F0010313608C
:10224C000368194A934214D0143293421FD01432AB
:10225C0093421ED0143293421ED0143293421ED09D
:10226C001432934202D04FF0807203E04FF480128C
:10227C0000E001220D4B5A60012380F8213000232D
:10228C0080F82030436B6BB198470020CDE71022CB
:10229C00F0E74FF48072EDE74FF48052EAE74FF429
:1022AC008032E7E70020C0E708000240000002404F
:1022BC0038B5C36B1A6804682568016C04238B401D
:1022CC00134235D015F0040F32D0236813F0200FD1
:1022DC0003D1236823F0040323600368434A934229
:1022EC0014D01432934218D01432934217D01432B3
:1022FC00934217D01432934217D01432934202D027
:10230C004FF0806203E04FF4800200E00422384B6F
:10231C005A60C36A03B1984738BD4022F7E74FF4BF
:10232C008062F4E74FF48042F1E74FF48022EEE74D
:10233C0002238B4013423CD015F0020F39D0236896
:10234C0013F0200F06D1236823F00A032360012326
:10235C0080F821300368254A934214D014329342FA
:10236C001CD0143293421BD0143293421BD0143223
:10237C0093421BD01432934202D04FF0007203E010
:10238C004FF4001200E00222194B5A60002380F82F
:10239C002030836A002BBFD09847BDE72022F3E79B
:1023AC004FF40072F0E74FF40052EDE74FF40032B7
:1023BC00EAE708238B401342AED015F0080FABD0E0
:1023CC00236823F00E032360026CC16B012303FA14
:1023DC0002F24A60836380F82130002380F82030B9
:1023EC00036B002B98D0984796E700BF080002407B
:1023FC000000024070B582B00024A446A1E07E4DDE
:10240C00AB4214D00CD8A5F58015AB420FD005F516
:10241C007025AB420BD0A5F58015AB4210D106E070
:10242C00764DAB4203D005F58035AB4208D18B68B5
:10243C00002B50D0012B49D04261082400E0CC681D
:10244C00BEF1FF0F49D806464FEA8C0233680F25C0
:10245C00954023EA050304FA02F2134333604B68F8
:10246C0013F0805F6BD0664B9A6942F001029A615F
:10247C009B6903F001030193019B4FEA9C02951C9D
:10248C00604B53F825600CF00305AD000F23AB40F7
:10249C0026EA03065C4B984226D003F580639842EB
:1024AC0000F08C8003F58063984200F0898003F57E
:1024BC008063984216D0042317E0CC680434BFE73D
:1024CC00CC680834BCE7CC680C34B9E7026108244A
:1024DC00B6E70024B4E70424B2E7061DACF1080209
:1024EC009200B3E7032300E00023AB4033430232F6
:1024FC00444D45F822304B6813F4801F62D0434A98
:10250C00936843EA0E0393604B6813F4001F5FD08B
:10251C003E4AD36843EA0E03D3604B6813F4003F82
:10252C005CD03A4A536843EA0E0353604B6813F489
:10253C00803F59D0354A136843EA0E0313600CF1FF
:10254C00010C0B6833FA0CF254D0012202FA0CF293
:10255C0003EA020E32EA0303F1D14B68122B3FF669
:10256C004EAF122B3FF66CAF01A555F823F000BF10
:10257C003B2400084B240008CD240008DF2400086D
:10258C004D2400084D2400084D2400084D2400085B
:10259C004D2400084D2400084D2400084D2400084B
:1025AC004D2400084D2400084D2400084D2400083B
:1025BC004D240008C7240008D3240008012394E705
:1025CC00022392E7114A936823EA0E0393609BE778
:1025DC000E4AD36823EA0E03D3609EE70B4A536876
:1025EC0023EA0E035360A1E7084A136823EA0E039B
:1025FC001360A4E702B070BD00002210000031107F
:10260C00001002400000014000080140000401409D
:10261C008368194201D001207047002070470AB12D
:10262C0001617047090401617047000008B5054B52
:10263C005B69034200D108BD024B5861FEF75AFF9B
:10264C00F9E700BF0004014082B0084B1B68084A40
:10265C00A2FB03235B0A00FB03F3019300BF019B66
:10266C005A1E0192002BF9D102B0704704000020D1
:10267C00D34D6210002800F0F18170B582B0044691
:10268C00036813F0010F2CD0994B5B6803F00C031B
:10269C00042B1DD0964B5B6803F00C03082B12D057
:1026AC006368B3F5803F41D0002B55D103F18043D3
:1026BC0003F504331A6822F480321A601A6822F483
:1026CC0080221A6037E08A4B5B6813F4803FE7D0B6
:1026DC00874B1B6813F4003F03D06368002B00F09A
:1026EC00BF81236813F0020F75D0814B5B6813F028
:1026FC000C0F5FD07E4B5B6803F00C03082B54D09F
:10270C002369002B00F08A807A4B01221A60FFF7B4
:10271C0061F90546764B1B6813F0020F75D1FFF774
:10272C0059F9401B0228F5D903209EE1704A136821
:10273C0043F480331360636843B3FFF74BF90546EA
:10274C006B4B1B6813F4003FCBD1FFF743F9401BD5
:10275C006428F5D9032088E1B3F5A02F09D0644B88
:10276C001A6822F480321A601A6822F480221A60E5
:10277C00E1E703F18043A3F53C331A6842F480226D
:10278C001A601A6842F480321A60D4E7FFF722F913
:10279C000546574B1B6813F4003FA2D0FFF71AF9FC
:1027AC00401B6428F5D903205FE1514B5B6813F49F
:1027BC00803FA5D14E4B1B6813F0020F03D0236949
:1027CC00012B40F04F814A4A136823F0F8036169EA
:1027DC0043EAC1031360236813F0080F33D0A369D5
:1027EC00002B5CD0434B0122C3F88024FFF7F2F896
:1027FC0005463F4B5B6A13F0020F21D1FFF7EAF855
:10280C00401B0228F5D903202FE1394A136823F025
:10281C00F803616943EAC1031360DCE7354B00221E
:10282C001A60FFF7D7F80546314B1B6813F0020FFF
:10283C00D1D0FFF7CFF8401B0228F5D9032014E1C3
:10284C000120FFF701FF236813F0040F00F09680BE
:10285C00274BDB6913F0805F34D1254BDA6942F0EA
:10286C008052DA61DB6903F080530193019B0125EF
:10287C00214B1B6813F4807F26D0E368012B3DD0DD
:10288C00002B53D103F1804303F504331A6A22F071
:10289C0001021A621A6A22F004021A6233E0154B22
:1028AC000022C3F88024FFF795F80546104B5B6AAD
:1028BC0013F0020FC7D0FFF78DF8401B0228F5D993
:1028CC000320D2E00025D3E70B4A136843F480734E
:1028DC001360FFF77FF80646074B1B6813F4807FE5
:1028EC00CBD1FFF777F8801B6428F5D90320BCE027
:1028FC000010024000004242007000405F4A136A20
:10290C0043F001031362E36833B3FFF763F8064641
:10291C005A4B1B6A13F0020F2FD1FFF75BF8801B89
:10292C0041F288339842F3D903209EE0052B09D05D
:10293C00524B1A6A22F001021A621A6A22F004023D
:10294C001A62E0E74D4B1A6A42F004021A621A6AE4
:10295C0042F001021A62D6E7FFF73CF80646474BF5
:10296C001B6A13F0020F08D0FFF734F8801B41F2FA
:10297C0088339842F3D9032077E0E5B9E369002B5B
:10298C0072D03E4A526802F00C02082A56D0022B32
:10299C0017D03B4B00221A66FFF71CF80446374B46
:1029AC001B6813F0007F47D0FFF714F8001B0228B8
:1029BC00F5D9032059E0314AD36923F08053D36110
:1029CC00DCE72F4B00221A66FFF704F805462B4B69
:1029DC001B6813F0007F06D0FEF7FCFF401B02289B
:1029EC00F5D9032041E0236AB3F5803F1AD023497F
:1029FC004B6823F47413226A606A024313434B60DE
:102A0C001F4B01221A66FEF7E5FF04461B4B1B68A1
:102A1C0013F0007F0ED1FEF7DDFF001B0228F5D965
:102A2C00032022E0154A536823F40033A1680B43BA
:102A3C005360DCE7002018E0002016E0012B16D0D4
:102A4C000E4B5B6803F48031226A914211D103F47E
:102A5C007013626A93420ED1002006E00120704789
:102A6C00012002E0012000E0002002B070BD012036
:102A7C00FBE70120F9E70120F7E700BF0010024057
:102A8C00000042420F4B5B6803F00C02082A01D095
:102A9C000D487047C3F383420C49885C13F4803FA4
:102AAC000BD0084B5B68C3F34043094AD35C064A1E
:102ABC0002FB00F0B0FBF3F07047064B03FB00F099
:102ACC00704700BF0010024000127A00B43E0008AC
:102ADC00B03E000800093D00002800F0A08070B551
:102AEC000D460446524B1B6803F007038B420BD276
:102AFC004F4A136823F007030B431360136803F06A
:102B0C0007038B4240F08D80236813F0020F17D01F
:102B1C0013F0040F04D0474A536843F4E063536046
:102B2C00236813F0080F04D0424A536843F46053EF
:102B3C005360404A536823F0F003A1680B43536081
:102B4C00236813F0010F31D06368012B20D0022BC6
:102B5C0025D0384A126812F0020F64D035494A6801
:102B6C0022F0030213434B60FEF734FF0646314B51
:102B7C005B6803F00C036268B3EB820F16D0FEF7B0
:102B8C0029FF801B41F288339842F0D9032045E09D
:102B9C00284A126812F4003FE0D101203EE0254A99
:102BAC00126812F0007FD9D1012037E0204B1B684E
:102BBC0003F00703AB420AD91D4A136823F007033D
:102BCC002B431360136803F00703AB422DD123682A
:102BDC0013F0040F06D0174A536823F4E063E1683E
:102BEC000B435360236813F0080F07D0114A536846
:102BFC0023F46053216943EAC1035360FFF742FF9A
:102C0C000C4B5B68C3F303130B4AD35CD8400B4BE0
:102C1C0018600B4B1868FEF799FE002070BD012060
:102C2C0070470120FAE70120F8E70120F6E700BF22
:102C3C000020024000100240A03E000804000020CA
:102C4C000C000020014B1868704700BF04000020E6
:102C5C0008B5FFF7F7FF044B5B68C3F3C223034AC5
:102C6C00D35CD84008BD00BF00100240983E00085D
:102C7C0070B582B00446036813F0010F36D03F4B99
:102C8C00DB6913F0805F49D13C4BDA6942F080522A
:102C9C00DA61DB6903F080530193019B0125384B0A
:102CAC001B6813F4807F3BD0344B1B6A13F44073C6
:102CBC0013D0626802F440729A420ED02F4A136A03
:102CCC0023F440702F490126C1F840640026C1F856
:102CDC004064106213F0010F36D1284A136A23F4B2
:102CEC00407361680B431362002D3ED1236813F0CF
:102CFC00020F06D0214A536823F44043A1680B43CA
:102D0C005360236813F0100F34D01C4A536823F41B
:102D1C008003E1680B43536000202CE00025BEE7E4
:102D2C00174A136843F480731360FEF753FE06468C
:102D3C00134B1B6813F4807FB6D1FEF74BFE801B40
:102D4C006428F5D9032016E0FEF744FE06460B4B2B
:102D5C001B6A13F0020FC0D1FEF73CFE801B41F240
:102D6C0088339842F3D9032005E0D36923F08053CC
:102D7C00D361BBE7002002B070BD00BF0010024061
:102D8C00007000400000424208B502284ED01028C6
:102D9C0003D0012828D0002052E02B4B5A68186829
:102DAC0010F080704CD0C2F383432849C85C12F4F5
:102DBC00803F15D0244B5B68C3F34043244AD25C5C
:102DCC00244BB3FBF2F303FB00F01F4B5B6813F4D3
:102DDC00800F35D14000204BA3FB003040082FE082
:102DEC001E4B03FB00F0F0E7174B1B6A40F202325C
:102DFC001A40B2F5817F24D003F44073B3F5007F01
:102E0C0004D0B3F5407F09D0002019E00E4A526A75
:102E1C0012F0020FF5D049F6404011E00A4B186849
:102E2C0010F400300CD04FF2244009E0FFF710FFF3
:102E3C00054B5B68C3F3813301335B00B0FBF3F0EC
:102E4C0008BD4FF40040FBE700100240C83E0008EC
:102E5C00C43E000800127A00ABAAAAAA00093D00E1
:102E6C002DE9F04782B00546884617461E46FEF708
:102E7C00B1FD0A9B1B1A03EB0609FEF7ABFD82465C
:102E8C00284B1B68C3F3CB3309FB03F301932B686B
:102E9C009C6838EA04040CBF01230023BB423DD0DC
:102EAC00B6F1FF3FF3D0FEF795FDA0EB0A004845C5
:102EBC0007D2019A02B14A46019B013B019391460C
:102ECC00E5E72A68536823F0E00353606B68B3F5B9
:102EDC00827F0BD0AB6AB3F5005F14D0012385F869
:102EEC005130002385F85030032018E0AB68B3F55F
:102EFC00004F02D0B3F5806FECD12A68136823F031
:102F0C0040031360E6E72A68136823F40053136048
:102F1C002A68136843F400531360DFE7002002B003
:102F2C00BDE8F0870400002010B582B004460B46C3
:102F3C00009200228021FFF793FF08B902B010BD68
:102F4C00636D43F0200363650320F7E7002856D038
:102F5C0010B50446436A33B94368B3F5827F05D094
:102F6C000023C36102E00023036143610023A362D9
:102F7C0094F85130002B3CD0022384F85130226855
:102F8C00136823F040031360636803F48273A26830
:102F9C0002F404421343E26802F400621343226910
:102FAC0002F002021343626902F001021343A269A8
:102FBC0002F400721343E26902F038021343226AEE
:102FCC0002F080021343A26A02F4005221681343F8
:102FDC000B60638B226803F0040353602268D3698F
:102FEC0023F40063D36100206065012384F8513021
:102FFC0010BD84F850302046FEF7F0F9BCE70120F4
:10300C0070470000844690F85000012864D010B43A
:10301C0001208CF850009CF85100C0B2DCF8044040
:10302C00012808D0B4F5827F44D1DCF80840002C8C
:10303C0046D1042846D1002946D0002A46D0002B80
:10304C0046D09CF85100C0B2042802D005208CF860
:10305C0051000020CCF85400CCF83010ACF83430CF
:10306C00ACF83630CCF83820ACF83C30ACF83E300C
:10307C00DCF80C30BBB1194BCCF84030184BCCF809
:10308C004430DCF80020536843F0E0035360DCF874
:10309C0000301A6812F0400F1CD11A6842F040023E
:1030AC001A60002007E00F4BCCF840300E4BCCF8E8
:1030BC004430E6E7022000238CF8503010BC7047F7
:1030CC000220F8E70220F6E70120F4E70120F2E7FE
:1030DC000120F0E70020EEE702207047553200088F
:1030EC001D320008E5310008AD310008704770470B
:1030FC0010B582B00446284B1B68284AA2FB032358
:10310C005B0A642202FB03F30193FEF763FC0246A5
:10311C0021684B6823F020034B60019B43B1019B5A
:10312C00013B019323689B6813F0020FF5D003E079
:10313C00636D43F02003636564212046FFF7F4FEC2
:10314C0018B1636D43F020036365A36833B9009332
:10315C002368DA6800929B680093009B636D9BB9AF
:10316C0094F85130DBB2042B07D0012384F8513092
:10317C002046FEF7F5F902B010BD012384F851305A
:10318C002046FFF7B3FFF6E7012384F851302046C1
:10319C00FFF7ADFFEFE700BF04000020F119760543
:1031AC0008B5026B036812781A73036B013303635F
:1031BC00C38E9BB2013B9BB2C386C38E9BB23BB901
:1031CC000268536823F080035360C38F9BB203B132
:1031DC0008BDFFF78DFFFBE708B50268836B127B18
:1031EC001A70836B01338363C38F9BB2013B9BB219
:1031FC00C387C38F9BB23BB90268536823F060034B
:10320C005360C38E9BB203B108BDFFF771FFFBE7A0
:10321C0008B5026B03681288DA60036B0233036330
:10322C00C38E9BB2013B9BB2C386C38E9BB23BB990
:10323C000268536823F080035360C38F9BB203B1C1
:10324C0008BDFFF755FFFBE708B50368DA68836B29
:10325C001A80836B02338363C38F9BB2013B9BB297
:10326C00C387C38F9BB23BB90268536823F04003FA
:10327C005360C38E9BB203B108BDFFF739FFFBE768
:10328C0030B585B00446026851689368C3F380106A
:10329C0013F0400F05D113F0010F02D011F0400FC5
:1032AC005AD113F0020F02D011F0800F58D1C3F392
:1032BC00401513F0200F01D1002854D011F0200F2D
:1032CC0051D078B194F85130DBB2032B4DD0636DF3
:1032DC0043F00403636500230193D368019393685F
:1032EC000193019B65B1636D43F00103636500239A
:1032FC00039393680393136823F040031360039BB9
:10330C00636D002B2FD02268536823F0E0035360C9
:10331C00012384F8513011F0030F2ED0226853682A
:10332C0023F003035360E36C4BB1164A5A63E06C11
:10333C00FEF772FF18B1636D43F040036365A36C35
:10334C008BB1104A5A63A06CFEF766FF58B1636DDF
:10335C0043F04003636506E0236C2046984702E087
:10336C00636C2046984705B030BD00230293D368A8
:10337C00029393680293029BF5E72046FFF7B7FE92
:10338C00F1E700BF9533000808B5406A0023C387F6
:10339C00C386FFF7ACFE08BD30B4026A036A23F0A3
:1033AC00010303624568836923F073030C681C43B3
:1033BC0022F002028B6813430B4A904206D0456000
:1033CC0084614A684263036230BC704723F008038F
:1033DC00CA681A4322F0040325F440754A692A434B
:1033EC008D691543EBE700BF002C014030B4036A34
:1033FC00026A22F4807202624468C26922F073028B
:10340C000D68154323F400738A6843EA02230D4ABE
:10341C00904206D04460C5614A68C263036230BC06
:10342C00704723F40063CA6843EA022323F48063E1
:10343C0024F440544A6944EA02148A6944EA0214A6
:10344C00E8E700BF002C014030B4036A026A22F4A2
:10345C00805202624468C26922F4E6420D6842EA74
:10346C00052223F400538D6843EA0533074DA84227
:10347C0006D04460C2614A680264036230BC704783
:10348C0024F480444D6944EA8514F2E7002C014091
:10349C0090F83D30DBB2012B27D1022380F83D3070
:1034AC000268D36843F00103D3600368114A934266
:1034BC0010D0B3F1804F0DD0A2F59432934209D0C5
:1034CC0002F58062934205D01A6842F001021A603C
:1034DC00002070479A6802F00702062A07D01A6883
:1034EC0042F001021A600020704701207047002052
:1034FC00704700BF002C0140704770477047704701
:10350C0010B5044603681A6912F0020F11D0DA687C
:10351C0012F0020F0DD06FF002021A610123037733
:10352C0003689B6913F0030F70D0FFF7E6FF0023CD
:10353C00237723681A6912F0040F12D0DA6812F09C
:10354C00040F0ED06FF004021A6102232377236854
:10355C009B6913F4407F5FD02046FFF7CEFF00231A
:10356C00237723681A6912F0080F12D0DA6812F068
:10357C00080F0ED06FF008021A610423237723681A
:10358C00DB6913F0030F4ED02046FFF7B6FF002384
:10359C00237723681A6912F0100F12D0DA6812F030
:1035AC00100F0ED06FF010021A61082323772368D6
:1035BC00DB6913F4407F3DD02046FFF79EFF0023CC
:1035CC00237723681A6912F0010F03D0DA6812F01E
:1035DC00010F36D123681A6912F0800F03D0DA6814
:1035EC0012F0800F34D123681A6912F0400F03D007
:1035FC00DA6812F0400F32D123681A6912F0200FEA
:10360C0003D0DA6812F0200F30D110BDFFF774FF31
:10361C002046FFF773FF8AE72046FFF76DFF204631
:10362C00FFF76CFF9BE72046FFF766FF2046FFF78E
:10363C0065FFACE72046FFF75FFF2046FFF75EFF14
:10364C00BDE76FF001021A612046FDF71BFAC1E7D6
:10365C006FF080021A61204600F089FAC3E76FF020
:10366C0040021A612046FFF74AFFC5E76FF02002BF
:10367C001A61204600F07AFAC7E7000003681B4A7B
:10368C0090420AD0B0F1804F07D0A2F5943290420C
:10369C0003D002F58062904203D123F070034A6894
:1036AC001343124A90420AD0B0F1804F07D0A2F5D2
:1036BC009432904203D002F58062904203D123F4FD
:1036CC004073CA68134323F080034A6913430360B1
:1036DC008B68C3620B688362044B984202D001234F
:1036EC00436170470B690363F9E700BF002C01408D
:1036FC0040B310B5044690F83D30F3B1022384F882
:10370C003D30214651F8040BFFF7B8FF012384F834
:10371C00463084F83E3084F83F3084F8403084F8EA
:10372C00413084F8423084F8433084F8443084F8D3
:10373C00453084F83D30002010BD80F83C30FEF759
:10374C0071F8DBE701207047002856D070B50D46A4
:10375C00044690F83D30002B4AD0022384F83D30CB
:10376C002268936823F4804323F007039360214677
:10377C0051F8040BFFF782FF21688B688A690E6A87
:10378C002868184322F4407222F00302AB68D5F883
:10379C0018C043EA0C23134323F47C4323F0FC03AB
:1037AC00EA68D5F81CC042EA0C221A432B6A1B03A8
:1037BC00D5F810C043EA0C13134326F022066A68AE
:1037CC006D6942EA05123243886021688B61236877
:1037DC001A62012384F8463084F83E3084F83F3076
:1037EC0084F8423084F8433084F83D30002070BDBA
:1037FC0080F83C30FDF7C8FFAFE7012070470000B0
:10380C0030B4036A026A22F01002026244688269D0
:10381C0022F4E6420D6842EA052223F020038D686B
:10382C0043EA05130C4DA84206D0446082614A68F5
:10383C008263036230BC704723F08003CD6843EA97
:10384C00051323F0400324F440644D6944EA8504D5
:10385C008D6944EA8504E8E7002C014038B590F8FE
:10386C003C30012B66D004460D46012380F83C30D9
:10387C000C2A5AD8DFE802F0075959591B595959E3
:10388C003059595944000068FFF786FD2268936946
:10389C0043F0080393612268936923F00403936156
:1038AC002268936929690B43936100203EE000680C
:1038BC00FFF7A6FF2268936943F4006393612268C3
:1038CC00936923F48063936122689369296943EABD
:1038DC0001239361002029E00068FFF787FD22682F
:1038EC00D36943F00803D3612268D36923F004033E
:1038FC00D3612268D36929690B43D361002015E099
:10390C000068FFF7A1FD2268D36943F40063D3611B
:10391C002268D36923F48063D3612268D36929694F
:10392C0043EA0123D361002000E00120002384F846
:10393C003C3038BD0220FCE701F01F014FF0010CB8
:10394C000CFA01FC036A23EA0C030362036A8A4043
:10395C00134303627047000010B50446084651BB80
:10396C0094F83E30DBB2013B18BF0123002B5BD136
:10397C00002839D1022384F83E3001220146206808
:10398C00FFF7DAFF23682A4A93423DD02368284A7E
:10399C0093423ED0B3F1804F3BD0A2F59432934288
:1039AC0037D002F58062934233D01A6842F001029C
:1039BC001A60002039E0042908D008290DD094F8A9
:1039CC004130DBB2013B18BF0123CFE794F83F3005
:1039DC00DBB2013B18BF0123C8E794F84030DBB2DF
:1039EC00013B18BF0123C1E7042805D0082807D0E4
:1039FC00022384F84130C0E7022384F83F30BCE74F
:103A0C00022384F84030B8E75A6C42F400425A64FE
:103A1C00BCE79A6802F00702062A07D01A6842F03F
:103A2C0001021A60002000E0012010BD0020FCE71C
:103A3C00002C014038B5044690F83E00C0B294F812
:103A4C003F3094F84220D2B294F843C00D46B1B93D
:103A5C00012849D1012A48D1022384F83E3084F848
:103A6C0042307DB3042D39D0012200212068FFF7AC
:103A7C0063FF012204212068FFF75EFF27E0DBB221
:103A8C005FFA8CFC042912D0012833D1012B2CD1E4
:103A9C00012A31D1BCF1010F30D1022384F83E3020
:103AAC0084F83F3084F8423084F84330D9E7012B56
:103ABC001CD1BCF1010F1BD1022384F83F3084F8D8
:103ACC004330CEE7012200212068FFF735FF226842
:103ADC00136843F001031360002006E00122042167
:103AEC002068FFF729FFF2E7012038BD0120FCE731
:103AFC001846FAE70120F8E71846F6E71046F4E70F
:103B0C0090F83C20012A2CD010B40346012280F8F6
:103B1C003C20022280F83D2002685068946820F016
:103B2C00700C086840EA0C0050601A680E4882421B
:103B3C000AD0B2F1804F07D0A0F59430824203D066
:103B4C0000F58060824204D124F08004496821434E
:103B5C009160012283F83D20002083F83C0010BCCA
:103B6C0070470220704700BF002C0140704770471F
:103B7C00FDF79EFD0B480C490C4A002302E0D4587B
:103B8C00C4500433C4188C42F9D3094A094C00239D
:103B9C0001E013600432A242FBD300F045F9FDF7BB
:103BAC005BF870470000002060000020E03E000839
:103BBC006000002038060020FEE7000091F0000FA6
:103BCC0004BF6FF00040704710B54FF0010E90EA43
:103BDC00010F48BF4FF0000E002848BF404200299B
:103BEC0048BF4942B0FA80F4122CA8BF122400FA44
:103BFC0004F2C4F1120CB2FBF1F0B0FA80F39C4564
:103C0C00A4BFCEF1004010BD01FB1022B2FA82F429
:103C1C0064450EDAACEB040C02FA04F200FA04F080
:103C2C00B2FBF1F301FB13221844B2FA82F464459F
:103C3C00F0DD02FA0CF200FA0CF0B2FBF1F31844CE
:103C4C009EF0000F08BF404210BD00BF80FB010179
:103C5C004FEA904000EB8130704700BF78B110F014
:103C6C00004148BF4042B0FA80F3C3F18C0200FA25
:103C7C0003F04FEA102062F3DE5041EA0000704777
:103C8C00024B0146186800F025B800BF1000002058
:103C9C0070B50F4E0C463168054611B900F0AEF800
:103CAC0030602146284600F0A9F8431C03D14FF0A0
:103CBC00FF34204670BDC41C24F00304A042F8D08D
:103CCC00211A284600F09AF80130F2D1EFE700BF34
:103CDC00F00400202DE9F843CD1C25F00305083530
:103CEC000C2D38BF0C25002D064601DBA94204D94A
:103CFC000C2333600020BDE8F883DFF8D48000F09B
:103D0C0069F8D8F800301C4644BB29463046FFF70A
:103D1C00BFFF431C044658D1D8F800402746002F5B
:103D2C0043D1002C4BD023683946304604EB0309B1
:103D3C0000F064F8814542D1216830466D1A29465D
:103D4C00FFF7A6FF01303AD023682B442360D8F844
:103D5C0000305A6862BBC8F800700FE02268521B32
:103D6C0020D40B2A17D96119A342256018BF5960BA
:103D7C00636808BFC8F8001062514B60304600F011
:103D8C002FF804F10B00231D20F00700C21A1CBFF2
:103D9C001B1AA350AFE76268A3420CBFC8F80020FF
:103DAC005A60EBE723466468AEE73C467F68B6E7AB
:103DBC001A465B68A342FBD100235360DEE70C2359
:103DCC003046336000F00CF894E70560D6E700BF8E
:103DDC00F4040020014800F04BB800BF340600206A
:103DEC00014800F046B800BF3406002003460244E8
:103DFC00934200D1704703F8011BF9E738B5002353
:103E0C00054D044608462B60FDF72EFC431C02D1E1
:103E1C002B6803B1236038BD30060020014B1868B5
:103E2C00704700BF1000002070B500260C4D0D4CE3
:103E3C00641BA410A64209D100F01CF800260A4D00
:103E4C000A4C641BA410A64205D170BD55F8043B66
:103E5C0098470136EEE755F8043B98470136F2E7F0
:103E6C00D83E0008D83E0008D83E0008DC3E0008CA
:103E7C0070477047F8B500BFF8BC08BC9E46704749
:0C3E8C00F8B500BFF8BC08BC9E467047AB
:103E98000000000001020304000000000000000010
:103EA80001020304060708090102000002030405D1
:103EB800060708090A0B0C0D0E0F1010010200006E
:103EC80002030405060708090A0B0C0D0E0F101053
:043ED800390600089F
:043EDC0015060008BF
:103EE000010000000024F4000100000010000000A8
:103EF0001400002000000000F804002060050020ED
:103F0000C8050020000000000000000000000000C4
:103F100000000000000000000000000000000000A1
:103F20000000000000000000000000000000000091
:103F30000000000000000000000000000000000081
:0400000508003B7D37
:00000001FF
