:020000040800F2
:10000000005000202940000851160008531600082F
:100010005516000857160008591600080000000081
:100020000000000000000000000000005B16000857
:100030005D160008000000005F1600086116000849
:1000400071400008714000087140000871400008CC
:1000500071400008714000087140000871400008BC
:1000600071400008714000087140000869160008DE
:1000700079160008891600087140000871400008D0
:10008000714000087140000871400008714000088C
:10009000714000087140000871400008714000087C
:1000A000714000087140000871400008714000086C
:1000B000714000089916000871400008714000085E
:1000C000714000087140000871400008714000084C
:1000D000714000087140000871400008A91600082E
:1000E000B9160008714000087140000800000000C7
:1000F0000000000000000000000000000000000000
:0C01000000000000000000005FF808F1A3
:10010C004FF0FF0C1CEAD0521EBF1CEAD15392EAEE
:10011C000C0F93EA0C0F6FD01A4480EA010C4002CA
:10012C0018BF5FEA41211ED04FF0006343EA501024
:10013C0043EA5111A0FB01310CF00040B1F5000F66
:10014C003EBF490041EAD3715B0040EA010062F115
:10015C007F02FD2A1DD8B3F1004F40EBC25008BFFF
:10016C0020F00100704790F0000F0CF0004C08BF1D
:10017C0049024CEA502040EA51207F3AC2BFD2F1EA
:10018C00FF0340EAC250704740F400004FF00003F8
:10019C00013A5DDC12F1190FDCBF00F00040704732
:1001AC00C2F10002410021FA02F1C2F1200200FA70
:1001BC0002FC5FEA310040F1000053EA4C0308BF37
:1001CC0020EADC70704792F0000F00F0004C02BF88
:1001DC00400010F4000F013AF9D040EA0C0093F003
:1001EC00000F01F0004C02BF490011F4000F013B5D
:1001FC00F9D041EA0C018FE70CEAD15392EA0C0FCB
:10020C0018BF93EA0C0F0AD030F0004C18BF31F035
:10021C00004CD8D180EA010000F00040704790F00B
:10022C00000F17BF90F0004F084691F0000F91F0AF
:10023C00004F14D092EA0C0F01D142020FD193EA75
:10024C000C0F03D14B0218BF084608D180EA0100FD
:10025C0000F0004040F0FE4040F40000704740F0D9
:10026C00FE4040F4400070474FF0FF0C1CEAD052A7
:10027C001EBF1CEAD15392EA0C0F93EA0C0F69D003
:10028C00A2EB030280EA010C49024FEA402037D06E
:10029C004FF0805343EA111143EA10130CF0004065
:1002AC008B4238BF5B0042F17D024FF4000C8B4255
:1002BC0024BF5B1A40EA0C00B3EB510F24BFA3EB35
:1002CC00510340EA5C00B3EB910F24BFA3EB910305
:1002DC0040EA9C00B3EBD10F24BFA3EBD10340EA5F
:1002EC00DC001B0118BF5FEA1C1CE0D1FD2A3FF6A5
:1002FC0050AF8B4240EBC25008BF20F0010070475A
:10030C000CF0004C4CEA50207F32C2BFD2F1FF03FC
:10031C0040EAC250704740F400004FF00003013A2D
:10032C0037E792F0000F00F0004C02BF400010F4D1
:10033C00000F013AF9D040EA0C0093F0000F01F0E5
:10034C00004C02BF490011F4000F013BF9D041EA07
:10035C000C0195E70CEAD15392EA0C0F08D142023A
:10036C007FF47DAF93EA0C0F7FF470AF084676E70D
:10037C0093EA0C0F04D14B023FF44CAF08466EE7E6
:10038C0030F0004C18BF31F0004CCAD130F00042B4
:10039C007FF45CAF31F000437FF43CAF5FE700BF0C
:1003AC004FEA4002B2F1FE4F0FD34FF09E03B3EB76
:1003BC0012620DD94FEA002343F0004310F0004FB6
:1003CC0023FA02F018BF404270474FF0000070470C
:1003DC0012F1610F01D1420205D110F0004008BFAB
:1003EC006FF0004070474FF00000704710B5054C9F
:1003FC00237833B9044B13B10448AFF300800123C5
:10040C00237010BD600000200000000008430008AD
:10041C0008B5034B1BB103490348AFF3008008BD7B
:10042C0000000000640000200843000800B585B0FF
:10043C0000230193029303931848194A02604FF466
:10044C0080728260037303754FF40022C2614360B3
:10045C000223036101F06AFDB0B902230193012369
:10046C0002930723039301A90C4801F0B7FB70B961
:10047C00032301930223029301A9084801F0AEFB68
:10048C0040B905B05DF804FB00F0BEFAE5E700F0FA
:10049C00BBFAEDE700F0B8FAF3E700BFC0000020AC
:1004AC000024014010B586B00023029303930493FB
:1004BC00059302681F4B9A4201D006B010BD04464A
:1004CC0003F56C439A6942F400729A619A6902F4DA
:1004DC0000720092009A9A6942F004029A619B6938
:1004EC0003F004030193019B0C2302930323039356
:1004FC0002A9114802F02CF81048114B036000239C
:10050C00436083608023C3604FF4807303614FF4B6
:10051C0080634361202383614FF48053C36101F0F6
:10052C0097FE18B9054B23625C62C6E700F06CFAC3
:10053C00F8E700BF00240140000801407C000020C7
:10054C000800024038B50D4C022221460C4801F03F
:10055C0029FC0C4D4FF00051284600F0C7F80A4B0F
:10056C0018604FF00051284600F0C0F8074B186097
:10057C004FF400632380638038BD00BF000100206E
:10058C00C00000200AD7A33BF4000020F00000209C
:10059C00194A1368B3FA83F35B091360174A12788C
:1005AC004AB310B59BB9164A32F813108904154B8F
:1005BC00186800F0AEF8104B1C684FF4A07100F1F5
:1005CC00604003F099FD104B43F8240010BD0C4A19
:1005DC0032F8131089040D4B186800F09AF8064B8A
:1005EC001C684FF4A07100F1604003F085FD064BD0
:1005FC0043F82400EAE770470000002005010020C2
:10060C0000010020F4000020F8000020F000002081
:10061C0008B5FFF7BDFF08BD00B586464FF0000CCE
:10062C0060460EE04000C0B2013BDBB23BB142B2CF
:10063C00002AF7DA520082F00702D0B2F4E70CF18C
:10064C00010C8C4504D21EF80C3058400823EDE701
:10065C005DF804FB00B586464FF0000C4FF6FF70BA
:10066C000FE0400080B2013BDBB243B102B2002A82
:10067C00F7DA41F2210080EA420080B2F3E70CF194
:10068C00010C8C4505D21EF80C3080EA032008239F
:10069C00EBE75DF804FB000000B583B0124B5A6920
:1006AC0042F001025A615B6903F001030193019B63
:1006BC00002211460B2001F083FD0B2001F090FD70
:1006CC00002211460C2001F07BFD0C2001F088FD6E
:1006DC00002211460D2001F073FD0D2001F080FD6C
:1006EC0003B05DF804FB00BF0010024070B5054676
:1006FC000C46082003F008FD064640B14FF091412E
:10070C002846FFF7FDFCFFF74BFE30607460304667
:10071C0070BD08B90020704738B50546006803F075
:10072C00EBFC044628686968C0F5802003F0E4FC03
:10073C002044686038BD000038B5044603681B6867
:10074C00586A00B22082A38890FBF3F0216A8004DF
:10075C0003F08AFC636903446361B4F91030A28826
:10076C0093FBF2F102FB11332382226812689BB2D5
:10077C0053626569B4F91000A1888904800403F000
:10078C0073FC216A03F070FC28440349400003F019
:10079C00B3FCA06038BD00BFFD900C0010B5044642
:1007AC008068636AE169C01A03F05EFC0146E06A86
:1007BC00FFF7AFFFE060A368636210BD03681A68BF
:1007CC0000235362C36043628360436103827047BA
:1007DC00836890F9280003FB00F07047C36890F918
:1007EC00280003FB00F070472DE9F04389B000248A
:1007FC000494059406940794404B9A6942F01002B5
:10080C009A619A6902F010020092009A9A6942F079
:10081C0020029A619A6902F020020192019A9A6967
:10082C0042F004029A619A6902F004020292029A5E
:10083C009A6942F008029A619B6903F008030393DA
:10084C00039BDFF8BC9022464FF40051484601F060
:10085C008DFF2C4E2246FA21304601F087FFDFF83F
:10086C00A88022464FF40041404601F07FFF4FF430
:10087C00005304930127059706940225079504A9B4
:10088C00484601F065FE04950597069403230793EB
:10089C0004A9304601F05CFE4FF4805304931B4BCB
:1008AC000593069404A9304601F052FE4FF4004320
:1008BC00049305970695079504A9404601F048FE58
:1008CC000823049305970695079504A9304601F073
:1008DC003FFEF023049305970694079504A9304630
:1008EC0001F036FE22462146282001F069FC282022
:1008FC0001F076FC09B0BDE8F08300BF00100240A7
:10090C0000100140000C01400008014000003110B3
:10091C0038B5324B834200D038BD314B1B78002B9D
:10092C0040D001224FF400412E4801F01FFF01225C
:10093C0020212D4801F01AFF2C4B1B8843BB2C4B5C
:10094C0019682C4800F00EFE284A1388B3FA83F37A
:10095C005B091380284A138801339BB21380242B24
:10096C001CD0254B1B88482B2DD1244C204600F045
:10097C00ADFD214B00221A80214DB5F905101D4803
:10098C0000F017FEB5F90B10204600F012FE1AE02D
:10099C00174B5968194800F0E5FDD5E7154800F0EC
:1009AC0095FDDEE700224FF400410E4801F0DEFE1B
:1009BC00002220210C4801F0D9FE0E4800F00FFE59
:1009CC000E4800F00CFE0F4B1B78002BA4D00948EE
:1009DC0000F005FE094800F002FE9DE7F40300203C
:1009EC000501002000080140000C01400801002016
:1009FC00F8000020CC02002006010020A8010020F5
:100A0C00400100200401002072B6FEE700B595B04D
:100A1C00282200210DEB020003F02CFC002305938F
:100A2C0006930793089309930193029303930493FA
:100A3C0001220A924FF480330B930E9202221192F0
:100A4C0012934FF4E01313930AA801F0BBFEC8B93C
:100A5C000F23059302210691002307934FF4806224
:100A6C000892099305A802F0DFF868B902230193F4
:100A7C004FF40043039301A802F0B2F930B915B05A
:100A8C005DF804FBFFF7C0FFFFF7BEFFFFF7BCFFED
:100A9C0008B501F041F8FFF7B9FFFFF7A5FEFFF726
:100AAC00FBFD00F02FFE00F063FE00F02BFFFFF7C4
:100ABC00BDFC00F073FF00F001F8FEE708B500F094
:100ACC0071F800F0EFFA00F01DFBFFF73BFD0A4850
:100ADC0000F085FD094800F082FD00220221084843
:100AEC0001F044FE02220749074803F01EFA074BA7
:100AFC0000221A7008BD00BFCC020020A801002003
:100B0C00000C01406001002054050020050100206C
:100B1C0000238361C361036283634363704738B509
:100B2C000446891A016043695A42914201DD994297
:100B3C0030DB6168206803F0DFFAA061A1682068EF
:100B4C0003F0DAFA0546606B236B2169C01A03F0D7
:100B5C00D3FA616A284403F0CFFAE3690344E361F2
:100B6C002068A36BE168C01A03F0C6FA616A03F04F
:100B7C007BFA2062A369E269134418442063A36AD8
:100B8C00984203DCE36A8342B8BF0346636323687D
:100B9C00A36338BD00230360FFF7BAFFC9E7406BBE
:100BAC007047000008B5FFF777FDFFF71DFE002228
:100BBC004FF40041044801F0D9FD002220210348E4
:100BCC0001F0D4FD08BD00BF00080140000C01403D
:100BDC0070B50446114E3046FFF7FAFD4012C4F8CA
:100BEC0001000F4D2846FFF7F3FD4012C4F8010039
:100BFC003046FFF7F3FD40F34F20A4F805002846DC
:100C0C00FFF7ECFD40F34F20A4F80B000D2120461C
:100C1C00FFF720FDA4F80D0070BD00BFCC02002032
:100C2C00A801002010B50446084A136843F34F236B
:100C3C00A0F80130536843F34F23A0F8033005218B
:100C4C00FFF708FDA4F8050010BD00BFF800002058
:100C5C0010B50378102B19D8DFE803F009192531EA
:100C6C0018183D464F586A73858D969FA80000242E
:100C7C00534B1C70534B1C7002225349534803F0C6
:100C8C00B9F9534B5C719C71DC721C7310BD4C4BED
:100C9C0001221A704B4B00221A7002224A494B480F
:100CAC0003F0A8F9F2E7464B01221A70454B0022DB
:100CBC001A7002224449454803F09CF9E6E7404B80
:100CCC0001221A703F4B00221A7002223E493F4803
:100CDC0003F090F9DAE73B4B01221A7010223D49E0
:100CEC003A4803F087F9D1E7364B02221A701022EA
:100CFC003949364803F07EF9C8E7324B03221A70A3
:100D0C0009223549314803F075F9BFE72D4B042210
:100D1C001A70324C2046FFF75BFF0122022130484B
:100D2C0001F024FD0F222146284802F01FFEADE7FA
:100D3C00244B05221A700F222749244803F05AF934
:100D4C00A4E7204B06221A70264C2046FFF76AFFB8
:100D5C0001220221224801F009FD072221461B48ED
:100D6C0002F004FE92E70722164B1A701A49174834
:100D7C0003F040F98AE7134B08221A701122164926
:100D8C00124803F037F981E70E4B09221A701D2225
:100D9C0011490E4803F02EF978E70A4B0A221A7013
:100DAC001D221149094803F025F96FE7054B002274
:100DBC001A7002220449054803F01CF966E700BFCB
:100DCC0005010020150100206001002054050020C1
:100DDC00400100205001002064010020200100206F
:100DEC00000C0140180100203801002010B5684BA0
:100DFC001B780B2B00F2C280DFE803F0063166C0D3
:100E0C00C0C0C0C0C0C06FA5624844780121FFF7C4
:100E1C0003FC844219D000224FF400515E4801F0CB
:100E2C00A5FC5E4A13680133136000235C4A1370FF
:100E3C005C4A53719371D3721373554A1370022227
:100E4C005449594803F0D6F831E05248FFF700FFF7
:100E5C0001224FF40051504801F088FC27E0534820
:100E6C00C4890E21FFF7F6FB844221D000224FF4F7
:100E7C000051494801F07AFC0023494A1370494A51
:100E8C0053719371D372137349490A6801320A6022
:100E9C003F4A137002223F49434803F0ABF83C4BE6
:100EAC0000221A7002223B493F4803F0A3F810BD00
:100EBC003C4C3E4B0FCB84E80F0001224FF4005109
:100ECC00354801F053FCEAE7314B00221A7002223C
:100EDC003049354803F08EF8E9E73648C4880621D6
:100EEC00FFF7B8FB844219D000224FF400512A4876
:100EFC0001F03CFC00232A4A13702A4A5371937167
:100F0C00D37213732A490A6801320A60204A13709B
:100F1C0002222049244803F06DF8C8E7264B254AE5
:100F2C0092E8030083E8030001224FF400511A48B1
:100F3C0001F01CFC164B0B221A7043221F491A4855
:100F4C0003F058F8B3E71E4A13780133DBB2137081
:100F5C00194A5278934208D20D4B0B221A70432235
:100F6C001649114803F046F8A1E7094B00221A7004
:100F7C00022208490C4803F03DF898E7044B002284
:100F8C001A7002220349084803F034F88FE700BFB7
:100F9C00150100206001002000100140100100200C
:100FAC0005010020400100205405002050010020C4
:100FBC000C010020380100203001002064010020C9
:100FCC001401002008B500220221064801F0CEFBD6
:100FDC00054B00221A7002220449054803F00AF856
:100FEC0008BD00BF000C014015010020600100206D
:100FFC005405002038B5044619B30A4681EAE1715C
:10100C00A1EBE271438B994203DB038B8B42A8BFAC
:10101C000B46E361002A23DD01222189E06801F0FF
:10102C00A5FB0022218A606901F0A0FB012384F852
:10103C0020302379013B032B24D8DFE803F01F2455
:10104C00292E0025C5612A460189C06801F08EFB56
:10105C002A46218A606901F089FB84F82050E8E770
:10106C0000222189E06801F081FB0122218A60695C
:10107C0001F07CFBFF2384F82030DAE723681B683F
:10108C00E2695A6338BD23681B68E2699A63F9E721
:10109C0023681B68E269DA63F4E723681B68E2697A
:1010AC001A64EFE710B500F02DFB00F061FB00F0C7
:1010BC0029FCFFF7BBF90F4800F0BCFF0E48036892
:1010CC006FF001041C613C2102F0CAFA0B48036862
:1010DC001C613C2102F0C4FA094C0021204602F0AC
:1010EC0051FA0421204602F04DFA204601F0ECFFA3
:1010FC0010BD00BFC0000020840400203C04002070
:10110C00F40300202DE9F04F87B0484D4FF0000854
:10111C00CDF80080464B474A0221284600F0A8F83B
:10112C0043462C224449284600F0D0F8434F4FF454
:10113C007A730493CDF80C8080230293019740239B
:10114C0000933B4601223E49284600F0D5F8002486
:10115C000194DFF8F0A0CDF800A0234622463A49CE
:10116C00284600F001F9DFF8E4B0CDF804B0CDF872
:10117C0000A02346364A3749284600F022F9364E5D
:10118C000296DFF8D890CDF8049000943346344A98
:10119C004FF07E51284600F044F93249284600F0C1
:1011AC008AF9314D01220092214B224A0221284614
:1011BC0000F05EF801232C222C49284600F086F81A
:1011CC004FF47A730493CDF80C801023029301979B
:1011DC00082300933B4602221949284600F08CF85C
:1011EC000194CDF800A0234622461749284600F06A
:1011FC00BBF8CDF804B0CDF800A02346144A15492D
:10120C00284600F0DEF80296CDF8049000943346A0
:10121C00134A4FF07E51284600F003F91149284635
:10122C0000F049F907B0BDE8F08F00BFCC020020F8
:10123C006666AA41002085443C040020000C014055
:10124C00F40300206F12833B2FDD6440986E123F35
:10125C005C8F423E855F6A3DCB5961444404E9385A
:10126C00871689400AD7A33CA801002084040020DB
:10127C002DE9F04104460D4617461E469DF8188090
:10128C0080F819114FF091411846FEF739FFFFF71E
:10129C0087F82062B8F1000F14D0FF2384F80831CE
:1012AC0031463846FEF7E0FF4FF09141FEF728FF3C
:1012BC00FFF776F8C4F81C0115B14342E365A0654D
:1012CC00BDE8F081012384F80831E9E738B504461C
:1012DC001D460160828000210648FFF707FAE06294
:1012EC001DB9012384F8283038BDFF2384F8283039
:1012FC00FAE700BFCDCCCC3EC0F8E41080F8E82073
:10130C00C0F8F030009BC0F8EC30019BC0F8F8300E
:10131C00029BC0F8F430BDF80C30A0F8FE30BDF8DC
:10132C001030A0F8FC3090F81931012B09D0022BA9
:10133C000FD0ABB9A3F58023C3654FF4802383652D
:10134C007047084BC0F898304FF48023C0F89430A5
:10135C007047044BC0F8D4304FF48023C0F8D03021
:10136C00704700BF0000FCFF70B5044608461646E7
:10137C001D464FF09141FEF7C3FEFFF711F8606375
:10138C004FF091413046FEF7BBFEFFF709F8A06322
:10139C004FF091412846FEF7B3FEFFF701F8E063EA
:1013AC004FF091410498FEF7ABFEFEF7F9FF606534
:1013BC004FF091410598FEF7A3FEFEF7F1FF206474
:1013CC0070BD70B50446084616461D464FF0914157
:1013DC00FEF796FEFEF7E4FF20674FF09141304692
:1013EC00FEF78EFEFEF7DCFF60674FF0914128465A
:1013FC00FEF786FEFEF7D4FFA0674FF091410498EC
:10140C00FEF77EFEFEF7CCFF0546C4F890004FF0C9
:10141C0091410598FEF774FEFEF7C2FFE067E561A7
:10142C0070BD70B504460D461E464FF091411046F6
:10143C00FEF766FEFEF7B4FFC4F8AC004FF0914126
:10144C003046FEF75DFEFEF7ABFFC4F8B0004FF080
:10145C0091410498FEF754FEFEF7A2FFC4F8B400C5
:10146C004FF091410598FEF74BFEFEF799FFC4F83B
:10147C00CC004FF091410698FEF742FEFEF790FF2C
:10148C00C4F8B8004FF091412846FEF739FE0646E5
:10149C00FEF786FFC4F8200194F81931022B00D016
:1014AC0070BD054606F10040FEF77AFFC4F89800BF
:1014BC00C4F89450F4E710B5044608464FF0914137
:1014CC00FEF71EFEFEF76CFF606410BD38B50446D7
:1014DC00FFF732F92046FFF761F994F81A31032B24
:1014EC000ED194F81931012B16D0022B27D033B919
:1014FC0004F16C00FFF70CFB0023C4F8103138BD6D
:10150C00D4F810512046FFF769F90246294604F138
:10151C006C00FFF704FBE4E704F16C00FFF73FFB02
:10152C00C217B4F8FC30A0FB030103FB0211800CC2
:10153C0040EA813104F1E400FFF75CFDDFE794F849
:10154C001A31032B06D004F16C00FFF728FBC4F80A
:10155C001401D4E704F16C00FFF7DAFA0023C4F8A5
:10156C001031CCE738B5044690F81931022B06D06F
:10157C00A830FFF7CDFA0023C4F8143138BD00F1C0
:10158C00A8050A46D0F814112846FFF7C8FA2846D1
:10159C00FFF705FBC217B4F8FC30A0FB030103FBFB
:1015AC000211800C40EA813104F1E400FFF722FDC6
:1015BC00E4E790F819318BB1022380F81A31490213
:1015CC0090F9082101FB02F2D0F81C319A4203DC9D
:1015DC005B429342B8BF1346C0F81031704710B548
:1015EC000446FFF7EBF804F1A800FFF791FA04F1B9
:1015FC006C00FFF78DFA04F13000FFF789FA10BD8B
:10160C0082B00E4B9A6942F001029A619A6902F01B
:10161C0001020092009ADA6942F08052DA61DB69C9
:10162C0003F080530193019B054A536823F0E06358
:10163C0043F00073536002B0704700BF00100240CB
:10164C0000000140FEE7FEE7FEE7FEE7FEE770471D
:10165C007047704708B500F071FA08BD08B502482C
:10166C0000F0D4FE08BD00BF7C00002008B5024885
:10167C0000F0CCFE08BD00BFCC04002008B5024829
:10168C0000F0C4FE08BD00BF1005002008B50248DC
:10169C0001F052FD08BD00BFF403002008B502485C
:1016AC0002F08AFA08BD00BF5405002008B54FF4BB
:1016BC00805001F063F808BD10B503460C4A0D4983
:1016CC000D48006840B10C4800680344521A93421C
:1016DC0006D8094A136010BD0748084C0460F2E7AD
:1016EC0002F0E0FD0C2303604FF0FF30F3E700BF86
:1016FC000050002000040000F0030020E806002049
:10170C007047000000B58DB02422002103A802F020
:10171C00B1FD0023019302931348144A0260436005
:10172C0083604FF6FF72C2600361436183610323E0
:10173C000393012205920F23079309920B9303A99C
:10174C0001F018FE50B900230193029301A9064839
:10175C0001F0ECFF28B90DB05DF804FBFFF754F96C
:10176C00F1E7FFF751F9F6E784040020002C014063
:10177C0000B58DB02422002103A802F07BFD0023CC
:10178C000193029313484FF08042026043608360E0
:10179C004FF6FF72C260036183610323039301223E
:1017AC0005920F23079309920B9303A901F0E2FD15
:1017BC0050B900230193029301A9064801F0B6FF2A
:1017CC0028B90DB05DF804FBFFF71EF9F1E7FFF740
:1017DC001BF9F6E73C04002000B589B00023049304
:1017EC0005930693079303681F4A934205D0B3F100
:1017FC00804F1DD009B05DF804FB1C4B9A6942F474
:10180C0000629A619A6902F400620092009A9A69E5
:10181C0042F004029A619B6903F004030193019B5B
:10182C004FF44073049304A9114800F091FEE1E7D2
:10183C0003F50433DA6942F00102DA61DA6902F085
:10184C0001020292029A9A6942F004029A619B691F
:10185C0003F004030393039B0323049304A9044898
:10186C0000F076FEC6E700BF002C014000100240DD
:10187C000008014002680E4B9A4200D0704700B538
:10188C0083B003F50333DA6942F00202DA61DB69F3
:10189C0003F002030193019B002201211D2000F0A3
:1018AC008FFC1D2000F09CFC03B05DF804FB00BF16
:1018BC000004004000B587B0002302930393049307
:1018CC00059302680D4B9A4202D007B05DF804FBF9
:1018DC0003F503339A6942F004029A619B6903F0A1
:1018EC0004030193019BC0230293022303930593EA
:1018FC0002A9034800F02CFEE7E700BF00040040FB
:10190C000008014000B58BB00023089309930193A4
:10191C000293039304930593069307931D481E4A61
:10192C00026003224260836040F2E732C2600361CE
:10193C00836101F0F3FC00BB20230893002309937F
:10194C0008A9144801F0F2FED0B9602301930022DB
:10195C0002920392059201A90E4801F095FD90B9EF
:10196C0004220DEB02010B4801F08EFD70B9094801
:10197C00FFF7A0FF0BB05DF804FBFFF745F8DBE7C2
:10198C00FFF742F8E1E7FFF73FF8E9E7FFF73CF82C
:10199C00EDE700BFF40300200004004008B50A483E
:1019AC000A4B03600A4B436000238360C3600361EE
:1019BC000C2242618361C36101F0A8FF00B908BD2C
:1019CC00FFF722F8FBE700BF540500200048004059
:1019DC0040420F0070B586B000230293039304932A
:1019EC0005930268334B9A4201D006B070BD044691
:1019FC0003F5E433DA6942F48022DA61DA6902F43D
:101A0C0080220092009A9A6942F008029A619B69BE
:101A1C0003F008030193019B4FF4806302930223AC
:101A2C00039303230593244E02A9304600F090FD46
:101A3C004FF40063029300250395049502A93046E8
:101A4C0000F086FD1D481E4B0360456085608023B9
:101A5C00C3600561456185614FF40053C36100F0BB
:101A6C00F7FB00BB154BE3635C621648164B036037
:101A7C0010234360002383608022C26003614361B2
:101A8C0083614FF40053C36100F0E2FB70B90D4B5E
:101A9C00A3635C6200221146272000F091FB2720F3
:101AAC0000F09EFBA1E7FEF7AFFFDBE7FEF7ACFF14
:101ABC00EDE700BF00480040000C0140100500207D
:101ACC0030000240CC0400201C00024010B504463B
:101ADC000E4B1A784FF47A73B3FBF2F30C4A10687E
:101AEC00B0FBF3F000F08AFB68B90F2C01D9012090
:101AFC000AE0002221464FF0FF3000F061FB054B5D
:101B0C001C60002000E0012010BD00BF0800002078
:101B1C00040000200C00002008B5074A136843F0AD
:101B2C0010031360032000F039FB0F20FFF7CEFFEA
:101B3C00FFF766FD002008BD00200240034A116833
:101B4C00034B1B780B441360704700BF9C050020AF
:101B5C0008000020014B1868704700BF9C0500204E
:101B6C0008B5436A9A6A12F0500F1ED19A6A42F471
:101B7C0000729A621A68926802F46022B2F5602FC1
:101B8C0003D01846FEF744FD08BD1A7B002AF8D195
:101B9C009A6A22F480729A629A6A12F4805FF0D187
:101BAC009A6A42F001029A62EBE71B6A1B6B984738
:101BBC00EAE7704708B5406AFFF7FBFF08BD7047BE
:101BCC0008B5406A836A43F040038362C36A43F0FA
:101BDC000403C362FFF7F3FF08BD000030B482B00A
:101BEC000022019290F82420012A00F08F800346F5
:101BFC00012280F824204A68062A2DD80468606BDC
:101C0C0002EB8202053A4FF01F0C0CFA02FC20EAA0
:101C1C000C000D6805FA02F2024362630A68092A95
:101C2C0038D91C68E06802EB42021E3A4FF0070CF0
:101C3C000CFA02FC20EA0C008D6805FA02F2024351
:101C4C00E2600A68103A012A34D90020002283F895
:101C5C00242002B030BC70470C2A0DD80568286BC4
:101C6C0002EB8202233A1F24944020EA04000C6801
:101C7C00944020432863D1E70568E86A02EB8202AE
:101C8C00413A1F24944020EA04000C6894402043FD
:101C9C00E862C3E71C68206902EB42024FF0070CB4
:101CAC000CFA02FC20EA0C008D6805FA02F20243E1
:101CBC002261C6E71A681648824205D09A6A42F039
:101CCC0020029A620120C1E7906810F4000F1BD12A
:101CDC00906840F4000090600A68102A01D000203F
:101CEC00B4E70C4A12680C49A1FB0212920C02EBED
:101CFC0082025200019202E0019A013A0192019A89
:101D0C00002AF9D10020A1E700209FE70220A0E7DC
:101D1C00002401400400002083DE1B4330B583B057
:101D2C000023019303689A6812F0010F33D1044623
:101D3C009A6842F001029A60184B1B68184AA2FB81
:101D4C0003239B0C019302E0019B013B0193019B3C
:101D5C00002BF9D1FFF7FEFE054623689B6813F0B4
:101D6C00010F16D1FFF7F6FE431B022BF5D92368A2
:101D7C009B6813F0010FF0D1A36A43F01003A36228
:101D8C00E36A43F00103E362002384F8243001206A
:101D9C0002E0002000E0002003B030BD0400002071
:101DAC0083DE1B43F8B504460D46164601684448CD
:101DBC00814259D0434B994256D094F82430012B90
:101DCC007CD0012384F824302046FFF7A7FF074678
:101DDC0000286ED1A16A21F4706121F0010141F457
:101DEC008071A1622268374B9A4244D0A36A23F4D3
:101DFC008013A362536813F4806F05D0A36A23F495
:101E0C00405343F48053A362A36A13F4805F48D019
:101E1C00E36A23F00603E362002384F82430236A88
:101E2C00294A9A62236A294ADA62236A284A1A637F
:101E3C0023686FF002021A602268936843F480737F
:101E4C009360216833462A464C31206A00F034FAFC
:101E5C0023689A6802F46022B2F5602F24D09A6845
:101E6C0042F480129A6027E0154B5B6813F4702FD4
:101E7C00A3D0012720E0A3F580635B6813F4702FD7
:101E8C00B4D0A36A43F48013A3620D4B5B6813F4C4
:101E9C00806FB9D0A36A23F4405343F48053A362F8
:101EAC00B2E70023E362B7E79A6842F4A0029A60B3
:101EBC0002E0002384F824303846F8BD0227FBE703
:101ECC0000240140002801406D1B0008C11B0008C4
:101EDC00CD1B000838B503689A6812F0010F01D1C8
:101EEC00002038BD04469A6822F001029A60FFF780
:101EFC0031FE054623689B6813F0010F13D0FFF7E2
:101F0C0029FE431B022BF5D923689B6813F0010FA4
:101F1C00F0D0A36A43F01003A362E36A43F0010319
:101F2C00E3620120DDE70020DBE7000000287BD026
:101F3C0070B50446836A002B4DD02046FFF7CAFFCC
:101F4C00A36A13F0100369D1002867D1A26A22F4A6
:101F5C00885222F0020242F00202A2626268E16937
:101F6C000A43217B42EA4102A568B5F5807F02D085
:101F7C00012D36D01D46267D012E35D02668716880
:101F8C0021F46941294371602568AE6827493140C5
:101F9C001143A960A168B1F5807F01D0012902D15C
:101FAC002369013B1B052568E96A21F470010B4389
:101FBC00EB62236899681E4B0B409A4225D0A36AAA
:101FCC0023F0120343F01003A362E36A43F001030E
:101FDC00E362012027E0C36280F82430FEF762FA46
:101FEC00ABE74FF48075C6E731B9A169013945EA11
:101FFC00413141F40065C1E7A16A41F02001A162C1
:10200C00E16A41F00101E162B8E70023E362A36AEF
:10201C0023F0030343F00103A36204E0A36A43F03B
:10202C001003A362012070BD01207047FDF7E1FF92
:10203C00FE0E1FFF70B582B00023019390F8243080
:10204C00012B72D00446012380F82430FFF742FFA5
:10205C002046FFF763FE054628B1002384F82430A0
:10206C00284602B070BDA36A23F4885323F0020300
:10207C0043F00203A3622E4B1E68022000F03CFFCB
:10208C00B6FBF0F67600019602E0019B013B019352
:10209C00019B002BF9D12268936843F008039360ED
:1020AC00FFF758FD064623689A6812F0080F14D003
:1020BC00FFF750FD801B0A28F5D923689B6813F0A5
:1020CC00080FF0D0A36A23F0120343F01003A362AD
:1020DC00002384F824300125C2E79A6842F00402F8
:1020EC009A60FFF737FD064623689B6813F0040FD0
:1020FC0014D0FFF72FFD801B0A28F5D923689B68A5
:10210C0013F0040FF0D0A36A23F0120343F0100372
:10211C00A362002384F824300125A1E7A36A23F0ED
:10212C00030343F00103A36297E7022598E700BF7E
:10213C0004000020002808DB0901C9B200F160404E
:10214C0000F5614080F80013704700F00F000901A2
:10215C00C9B2014B1954704714ED00E000B500F002
:10216C000700C0F1070CBCF1040F28BF4FF0040CA2
:10217C00031D062B0FD9C31E4FF0FF3E0EFA0CF0B9
:10218C0021EA000199400EFA03FE22EA0E0241EA0E
:10219C0002005DF804FB0023EEE70000074AD36859
:1021AC0023F4E0631B041B0C000200F4E060034307
:1021BC0043F0BF6343F40033D360704700ED00E09D
:1021CC0010B50446054BD868C0F30220FFF7C6FFD4
:1021DC0001462046FFF7AEFF10BD00BF00ED00E04A
:1021EC00002807DB00F01F02400901239340024A3C
:1021FC0042F82030704700BF00E100E00138B0F138
:10220C00807F0BD24FF0E0235861054AF02182F811
:10221C0023100020986107221A6170470120704733
:10222C0000ED00E030B40124056CAC40C56B6C6073
:10223C00046863604368102B05D0036899600368D9
:10224C00DA6030BC704703689A600368D960F8E7BD
:10225C0050B310B402460168144B0B441448A0FB55
:10226C0003031B099B001364124BD363022382F8F4
:10227C00213008686FF30D10536894682343D468B9
:10228C002343146923435469234394692343D46936
:10229C00234303430B6000209063012382F8213019
:1022AC0082F8200010BC704701207047F8FFFDBF7A
:1022BC00CDCCCCCC0000024038B5044690F82000C0
:1022CC00012832D0012084F8200094F82100C0B2FB
:1022DC00012804D0002384F82030022038BD0220CD
:1022EC0084F821000020A0632568286820F00100F4
:1022FC0028602046FFF796FFE36A5BB122681368FB
:10230C0043F00E0313602268136843F0010313605B
:10231C000020E3E72268136823F0040313602268AB
:10232C00136843F00A031360EDE70220D6E7034677
:10233C0090F82120D2B2022A06D004228263002215
:10234C0080F820200120704701680A6822F00E02F4
:10235C000A6001680A6822F001020A60026CC06B14
:10236C00012101FA02F2426083F82110002083F867
:10237C002000704708B590F82130DBB2022B03D057
:10238C0004238363012008BD0268136823F00E0345
:10239C0013600268136823F0010313600368194A81
:1023AC00934214D0143293421FD0143293421ED055
:1023BC00143293421ED0143293421ED014329342E4
:1023CC0002D04FF0807203E04FF4801200E0012243
:1023DC000D4B5A60012380F82130002380F8203007
:1023EC00436B6BB198470020CDE71022F0E74FF418
:1023FC008072EDE74FF48052EAE74FF48032E7E762
:10240C000020C0E7080002400000024038B5C36B52
:10241C001A6804682568016C04238B40134235D07C
:10242C0015F0040F32D0236813F0200F03D123686A
:10243C0023F0040323600368434A934214D01432FC
:10244C00934218D01432934217D01432934217D0BF
:10245C001432934217D01432934202D04FF0806260
:10246C0003E04FF4800200E00422384B5A60C36A48
:10247C0003B1984738BD4022F7E74FF48062F4E788
:10248C004FF48042F1E74FF48022EEE702238B40B9
:10249C0013423CD015F0020F39D0236813F0200FF3
:1024AC0006D1236823F00A032360012380F821302E
:1024BC000368254A934214D0143293421CD0143230
:1024CC0093421BD0143293421BD0143293421BD034
:1024DC001432934202D04FF0007203E04FF400121A
:1024EC0000E00222194B5A60002380F82030836AE6
:1024FC00002BBFD09847BDE72022F3E74FF40072C2
:10250C00F0E74FF40052EDE74FF40032EAE708230E
:10251C008B401342AED015F0080FABD0236823F0DC
:10252C000E032360026CC16B012303FA02F24A60B2
:10253C00836380F82130002380F82030036B002B5C
:10254C0098D0984796E700BF080002400000024070
:10255C0070B582B00024A446A1E07E4DAB4214D0ED
:10256C000CD8A5F58015AB420FD005F57025AB4204
:10257C000BD0A5F58015AB4210D106E0764DAB42E1
:10258C0003D005F58035AB4208D18B68002B50D0B9
:10259C00012B49D04261082400E0CC68BEF1FF0F4A
:1025AC0049D806464FEA8C0233680F25954023EA3A
:1025BC00050304FA02F2134333604B6813F0805F97
:1025CC006BD0664B9A6942F001029A619B6903F0E9
:1025DC0001030193019B4FEA9C02951C604B53F83D
:1025EC0025600CF00305AD000F23AB4026EA030673
:1025FC005C4B984226D003F58063984200F08C80A7
:10260C0003F58063984200F0898003F5806398425B
:10261C0016D0042317E0CC680434BFE7CC68083428
:10262C00BCE7CC680C34B9E702610824B6E7002497
:10263C00B4E70424B2E7061DACF108029200B3E73C
:10264C00032300E00023AB4033430232444D45F8F2
:10265C0022304B6813F4801F62D0434A936843EADC
:10266C000E0393604B6813F4001F5FD03E4AD3688F
:10267C0043EA0E03D3604B6813F4003F5CD03A4A34
:10268C00536843EA0E0353604B6813F4803F59D0F0
:10269C00354A136843EA0E0313600CF1010C0B6806
:1026AC0033FA0CF254D0012202FA0CF203EA020EB5
:1026BC0032EA0303F1D14B68122B3FF64EAF122BCB
:1026CC003FF66CAF01A555F823F000BF9725000825
:1026DC00A7250008292600083B260008A925000884
:1026EC00A9250008A9250008A9250008A925000886
:1026FC00A9250008A9250008A9250008A925000876
:10270C00A9250008A9250008A9250008A925000865
:10271C00232600082F260008012394E7022392E7C2
:10272C00114A936823EA0E0393609BE70E4AD36821
:10273C0023EA0E03D3609EE70B4A536823EA0E0389
:10274C005360A1E7084A136823EA0E031360A4E759
:10275C0002B070BD000022100000311000100240C9
:10276C000000014000080140000401400AB1016171
:10277C0070470904016170477047000008B5054BAC
:10278C005B69034200D108BD024B5861FFF7F4FFAF
:10279C00F9E700BF0004014082B0084B1B68084AEF
:1027AC00A2FB03235B0A00FB03F3019300BF019B15
:1027BC005A1E0192002BF9D102B070470400002080
:1027CC00D34D6210002800F0F18170B582B0044640
:1027DC00036813F0010F2CD0994B5B6803F00C03CA
:1027EC00042B1DD0964B5B6803F00C03082B12D006
:1027FC006368B3F5803F41D0002B55D103F1804382
:10280C0003F504331A6822F480321A601A6822F431
:10281C0080221A6037E08A4B5B6813F4803FE7D064
:10282C00874B1B6813F4003F03D06368002B00F048
:10283C00BF81236813F0020F75D0814B5B6813F0D6
:10284C000C0F5FD07E4B5B6803F00C03082B54D04D
:10285C002369002B00F08A807A4B01221A60FFF763
:10286C0079F90546764B1B6813F0020F75D1FFF70B
:10287C0071F9401B0228F5D903209EE1704A1368B8
:10288C0043F480331360636843B3FFF763F9054681
:10289C006B4B1B6813F4003FCBD1FFF75BF9401B6C
:1028AC006428F5D9032088E1B3F5A02F09D0644B37
:1028BC001A6822F480321A601A6822F480221A6094
:1028CC00E1E703F18043A3F53C331A6842F480221C
:1028DC001A601A6842F480321A60D4E7FFF73AF9AA
:1028EC000546574B1B6813F4003FA2D0FFF732F993
:1028FC00401B6428F5D903205FE1514B5B6813F44E
:10290C00803FA5D14E4B1B6813F0020F03D02369F7
:10291C00012B40F04F814A4A136823F0F803616998
:10292C0043EAC1031360236813F0080F33D0A36983
:10293C00002B5CD0434B0122C3F88024FFF70AF92B
:10294C0005463F4B5B6A13F0020F21D1FFF702F9EA
:10295C00401B0228F5D903202FE1394A136823F0D4
:10296C00F803616943EAC1031360DCE7354B0022CD
:10297C001A60FFF7EFF80546314B1B6813F0020F96
:10298C00D1D0FFF7E7F8401B0228F5D9032014E15A
:10299C000120FFF701FF236813F0040F00F096806D
:1029AC00274BDB6913F0805F34D1254BDA6942F099
:1029BC008052DA61DB6903F080530193019B01259E
:1029CC00214B1B6813F4807F26D0E368012B3DD08C
:1029DC00002B53D103F1804303F504331A6A22F020
:1029EC0001021A621A6A22F004021A6233E0154BD1
:1029FC000022C3F88024FFF7ADF80546104B5B6A44
:102A0C0013F0020FC7D0FFF7A5F8401B0228F5D929
:102A1C000320D2E00025D3E70B4A136843F48073FC
:102A2C001360FFF797F80646074B1B6813F4807F7B
:102A3C00CBD1FFF78FF8801B6428F5D90320BCE0BD
:102A4C000010024000004242007000405F4A136ACE
:102A5C0043F001031362E36833B3FFF77BF80646D8
:102A6C005A4B1B6A13F0020F2FD1FFF773F8801B20
:102A7C0041F288339842F3D903209EE0052B09D00C
:102A8C00524B1A6A22F001021A621A6A22F00402EC
:102A9C001A62E0E74D4B1A6A42F004021A621A6A93
:102AAC0042F001021A62D6E7FFF754F80646474B8C
:102ABC001B6A13F0020F08D0FFF74CF8801B41F291
:102ACC0088339842F3D9032077E0E5B9E369002B0A
:102ADC0072D03E4A526802F00C02082A56D0022BE1
:102AEC0017D03B4B00221A66FFF734F80446374BDD
:102AFC001B6813F0007F47D0FFF72CF8001B02284F
:102B0C00F5D9032059E0314AD36923F08053D361BE
:102B1C00DCE72F4B00221A66FFF71CF805462B4BFF
:102B2C001B6813F0007F06D0FFF714F8401B022837
:102B3C00F5D9032041E0236AB3F5803F1AD023492D
:102B4C004B6823F47413226A606A024313434B608C
:102B5C001F4B01221A66FEF7FDFF04461B4B1B6838
:102B6C0013F0007F0ED1FEF7F5FF001B0228F5D9FC
:102B7C00032022E0154A536823F40033A1680B4369
:102B8C005360DCE7002018E0002016E0012B16D083
:102B9C000E4B5B6803F48031226A914211D103F42D
:102BAC007013626A93420ED1002006E00120704738
:102BBC00012002E0012000E0002002B070BD0120E5
:102BCC00FBE70120F9E70120F7E700BF0010024006
:102BDC00000042420F4B5B6803F00C02082A01D044
:102BEC000D487047C3F383420C49885C13F4803F53
:102BFC000BD0084B5B68C3F34043094AD35C064ACD
:102C0C0002FB00F0B0FBF3F07047064B03FB00F047
:102C1C00704700BF0010024000127A003C430008CD
:102C2C003843000800093D00002800F0A08070B572
:102C3C000D460446524B1B6803F007038B420BD224
:102C4C004F4A136823F007030B431360136803F018
:102C5C0007038B4240F08D80236813F0020F17D0CE
:102C6C0013F0040F04D0474A536843F4E0635360F5
:102C7C00236813F0080F04D0424A536843F460539E
:102C8C005360404A536823F0F003A1680B43536030
:102C9C00236813F0010F31D06368012B20D0022B75
:102CAC0025D0384A126812F0020F64D035494A68B0
:102CBC0022F0030213434B60FEF74CFF0646314BE8
:102CCC005B6803F00C036268B3EB820F16D0FEF75F
:102CDC0041FF801B41F288339842F0D9032045E034
:102CEC00284A126812F4003FE0D101203EE0254A48
:102CFC00126812F0007FD9D1012037E0204B1B68FD
:102D0C0003F00703AB420AD91D4A136823F00703EB
:102D1C002B431360136803F00703AB422DD12368D8
:102D2C0013F0040F06D0174A536823F4E063E168EC
:102D3C000B435360236813F0080F07D0114A5368F4
:102D4C0023F46053216943EAC1035360FFF742FF48
:102D5C000C4B5B68C3F303130B4AD35CD8400B4B8F
:102D6C0018600B4B1868FEF7B1FE002070BD0120F7
:102D7C0070470120FAE70120F8E70120F6E700BFD1
:102D8C0000200240001002402843000804000020EC
:102D9C000C000020014B1868704700BF0400002095
:102DAC0008B5FFF7F7FF044B5B68C3F30223034A34
:102DBC00D35CD84008BD00BF00100240204300087F
:102DCC0008B5FFF7E7FF044B5B68C3F3C223034A64
:102DDC00D35CD84008BD00BF00100240204300085F
:102DEC0070B582B00446036813F0010F36D03F4B28
:102DFC00DB6913F0805F49D13C4BDA6942F08052B9
:102E0C00DA61DB6903F080530193019B0125384B98
:102E1C001B6813F4807F3BD0344B1B6A13F4407354
:102E2C0013D0626802F440729A420ED02F4A136A91
:102E3C0023F440702F490126C1F840640026C1F8E4
:102E4C004064106213F0010F36D1284A136A23F440
:102E5C00407361680B431362002D3ED1236813F05D
:102E6C00020F06D0214A536823F44043A1680B4358
:102E7C005360236813F0100F34D01C4A536823F4AA
:102E8C008003E1680B43536000202CE00025BEE773
:102E9C00174A136843F480731360FEF75BFE064613
:102EAC00134B1B6813F4807FB6D1FEF753FE801BC7
:102EBC006428F5D9032016E0FEF74CFE06460B4BB2
:102ECC001B6A13F0020FC0D1FEF744FE801B41F2C7
:102EDC0088339842F3D9032005E0D36923F080535B
:102EEC00D361BBE7002002B070BD00BF00100240F0
:102EFC00007000400000424208B502284ED0102855
:102F0C0003D0012828D0002052E02B4B5A681868B7
:102F1C0010F080704CD0C2F383432849C85C12F483
:102F2C00803F15D0244B5B68C3F34043244AD25CEA
:102F3C00244BB3FBF2F303FB00F01F4B5B6813F461
:102F4C00800F35D14000204BA3FB003040082FE010
:102F5C001E4B03FB00F0F0E7174B1B6A40F20232EA
:102F6C001A40B2F5817F24D003F44073B3F5007F8F
:102F7C0004D0B3F5407F09D0002019E00E4A526A04
:102F8C0012F0020FF5D049F6404011E00A4B1868D8
:102F9C0010F400300CD04FF2244009E0FFF710FF82
:102FAC00054B5B68C3F3813301335B00B0FBF3F07B
:102FBC0008BD4FF40040FBE70010024050430008EE
:102FCC004C43000800127A00ABAAAAAA00093D00E3
:102FDC0030B4026A036A23F0010303624568836913
:102FEC0023F073030C681C4322F002028B6813431A
:102FFC000B4A904206D0456084614A684263036282
:10300C0030BC704723F00803CA681A4322F004034B
:10301C0025F440754A692A438D691543EBE700BFD7
:10302C00002C014030B4036A026A22F480720262FE
:10303C004468C26922F073020D68154323F40073CF
:10304C008A6843EA02230D4A904206D04460C56167
:10305C004A68C263036230BC704723F40063CA68D9
:10306C0043EA022323F4806324F440544A6944EA7B
:10307C0002148A6944EA0214E8E700BF002C0140FC
:10308C0030B4036A026A22F4805202624468C26954
:10309C0022F4E6420D6842EA052223F400538D68BF
:1030AC0043EA0533074DA84206D04460C2614A6822
:1030BC000264036230BC704724F480444D6944EAD6
:1030CC008514F2E7002C014090F83D30DBB2012B67
:1030DC0027D1022380F83D300268D36843F0010306
:1030EC00D3600368114A934210D0B3F1804F0DD0D6
:1030FC00A2F59432934209D002F58062934205D036
:10310C001A6842F001021A60002070479A6802F0B7
:10311C000702062A07D01A6842F001021A60002042
:10312C007047012070470020704700BF002C014001
:10313C00704770477047704770B504460368DE6887
:10314C001D6915F0020F10D016F0020F0DD06FF0A4
:10315C0002021A610123037703689B6913F0030FC2
:10316C005ED0FFF7E6FF0023237715F0040F12D093
:10317C0016F0040F0FD023686FF004021A610223BB
:10318C00237723689B6913F4407F4FD02046FFF7C9
:10319C00D0FF0023237715F0080F12D016F0080F7C
:1031AC000FD023686FF008021A6104232377236879
:1031BC00DB6913F0030F40D02046FFF7BAFF002362
:1031CC00237715F0100F12D016F0100F0FD02368C4
:1031DC006FF010021A61082323772368DB6913F45C
:1031EC00407F31D02046FFF7A4FF0023237715F052
:1031FC00010F02D016F0010F2DD115F0800F02D067
:10320C0016F0800F2FD115F0400F02D016F0400FA2
:10321C0031D115F0200F02D016F0200F33D170BD34
:10322C00FFF786FF2046FFF785FF9CE72046FFF758
:10323C007FFF2046FFF77EFFABE72046FFF778FFC6
:10324C002046FFF777FFBAE72046FFF771FF2046CD
:10325C00FFF770FFC9E723686FF001021A6120467F
:10326C00FDF756FBC9E723686FF080021A61204610
:10327C0000F093FAC7E723686FF040021A6120460A
:10328C00FFF759FFC5E723686FF020021A6120464B
:10329C0000F082FAC3E7000003681F4A90420AD08C
:1032AC00B0F1804F07D0A2F59432904203D002F5D2
:1032BC008062904203D123F070034A681343164A8C
:1032CC0090420AD0B0F1804F07D0A2F594329042D0
:1032DC0003D002F58062904203D123F44073CA6894
:1032EC00134323F080034A69134303608B68C36262
:1032FC000B688362084B98420AD00123436103692F
:10330C0013F0010F03D0036923F00103036170472D
:10331C000B690363F1E700BF002C014040B310B50B
:10332C00044690F83D30F3B1022384F83D30214639
:10333C0051F8040BFFF7B0FF012384F8463084F8F2
:10334C003E3084F83F3084F8403084F8413084F8C3
:10335C00423084F8433084F8443084F8453084F8A3
:10336C003D30002010BD80F83C30FEF783FADBE7DF
:10337C0001207047002856D070B50D46044690F8D1
:10338C003D30002B4AD0022384F83D3022689368EC
:10339C0023F4804323F007039360214651F8040B78
:1033AC00FFF77AFF21688B688A690E6A28681843D0
:1033BC0022F4407222F00302AB68D5F818C043EA3D
:1033CC000C23134323F47C4323F0FC03EA68D5F865
:1033DC001CC042EA0C221A432B6A1B03D5F810C0FE
:1033EC0043EA0C13134326F022066A686D6942EA1D
:1033FC0005123243886021688B6123681A620123AD
:10340C0084F8463084F83E3084F83F3084F84230FB
:10341C0084F8433084F83D30002070BD80F83C3097
:10342C00FEF7DAF9AFE701207047000030B4036A09
:10343C00026A22F0100202624468826922F4E642B7
:10344C000D6842EA052223F020038D6843EA051338
:10345C000C4DA84206D0446082614A6882630362C4
:10346C0030BC704723F08003CD6843EA051323F08A
:10347C00400324F440644D6944EA85048D6944EAB0
:10348C008504E8E7002C014038B590F83C30012B5E
:10349C0066D004460D46012380F83C300C2A5AD8DD
:1034AC00DFE802F0075959591B59595930595959E4
:1034BC0044000068FFF78CFD2268936943F0080311
:1034CC0093612268936923F00403936122689369E2
:1034DC0029690B43936100203EE00068FFF7A6FFCB
:1034EC002268936943F4006393612268936923F41F
:1034FC008063936122689369296943EA012393618C
:10350C00002029E00068FFF78DFD2268D36943F0A5
:10351C000803D3612268D36923F00403D3612268C2
:10352C00D36929690B43D361002015E00068FFF7CC
:10353C00A7FD2268D36943F40063D3612268D36981
:10354C0023F48063D3612268D369296943EA012398
:10355C00D361002000E00120002384F83C3038BD0A
:10356C000220FCE701F01F014FF0010C0CFA01FCEA
:10357C00036A23EA0C030362036A8A40134303625F
:10358C007047000010B50446084651BB94F83E3015
:10359C00DBB2013B18BF0123002B5BD1002839D1D2
:1035AC00022384F83E30012201462068FFF7DAFF3F
:1035BC0023682A4A93423DD02368284A93423ED03E
:1035CC00B3F1804F3BD0A2F59432934237D002F541
:1035DC008062934233D01A6842F001021A600020D4
:1035EC0039E0042908D008290DD094F84130DBB219
:1035FC00013B18BF0123CFE794F83F30DBB2013B0E
:10360C0018BF0123C8E794F84030DBB2013B18BF68
:10361C000123C1E7042805D0082807D0022384F829
:10362C004130C0E7022384F83F30BCE7022384F822
:10363C004030B8E75A6C42F400425A64BCE79A68CE
:10364C0002F00702062A07D01A6842F001021A603B
:10365C00002000E0012010BD0020FCE7002C014000
:10366C0038B5044690F83E00C0B294F83F3094F858
:10367C004220D2B294F843C00D46B1B9012849D1C9
:10368C00012A48D1022384F83E3084F842307DB3BD
:10369C00042D39D0012200212068FFF763FF01229D
:1036AC0004212068FFF75EFF27E0DBB25FFA8CFC99
:1036BC00042912D0012833D1012B2CD1012A31D16C
:1036CC00BCF1010F30D1022384F83E3084F83F3036
:1036DC0084F8423084F84330D9E7012B1CD1BCF17B
:1036EC00010F1BD1022384F83F3084F84330CEE71E
:1036FC00012200212068FFF735FF2268136843F090
:10370C0001031360002006E0012204212068FFF76A
:10371C0029FFF2E7012038BD0120FCE71846FAE743
:10372C000120F8E71846F6E71046F4E790F83C203D
:10373C00012A2CD010B40346012280F83C2002222E
:10374C0080F83D2002685068946820F0700C08687E
:10375C0040EA0C0050601A680E4882420AD0B2F15E
:10376C00804F07D0A0F59430824203D000F58060E2
:10377C00824204D124F080044968214391600122E3
:10378C0083F83D20002083F83C0010BC70470220D9
:10379C00704700BF002C014070477047026802F16F
:1037AC000C0353E8003F23F0C0030C3242E8003115
:1037BC000029F3D1202380F841307047026802F1D0
:1037CC000C0353E8003F23F490730C3242E80031B1
:1037DC000029F3D1026802F1140353E8003F23F0EF
:1037EC000103143242E800310029F3D1036B012BA1
:1037FC0005D0202380F84230002303637047026811
:10380C0002F10C0353E8003F23F010030C3242E8A2
:10381C0000310029F3D1ECE790F84130DBB2212BD9
:10382C0001D0022070478368B3F5805F17D0036A1C
:10383C005A1C02621A7803685A60C38C9BB2013B13
:10384C009BB2C3844BB90268D36823F08003D36066
:10385C000268D36843F04003D360002070470369CB
:10386C00002BE4D1036A1B880268C3F3080353607E
:10387C00036A02330362E0E710B504460268136979
:10388C0023F44053C1680B431361836802691343EB
:10389C0042691A430168CB6823F4B05323F00C033C
:1038AC001343CB600268536923F4407381690B4363
:1038BC0053610268134B9A4220D0FFF771FA02460B
:1038CC0002EB820202EB820263689B00B2FBF3F212
:1038DC000D48A0FB02314909642303FB11231B0192
:1038EC003233A0FB03035B0903F0F00202EB01127D
:1038FC0003F00F03216813448B6010BDFFF760FACF
:10390C000246DDE7003801401F85EB5160B310B56E
:10391C00044690F8413013B3242384F841302268D4
:10392C00D36823F40053D3602046FFF7A5FF226829
:10393C00136923F4904313612268536923F02A031B
:10394C0053612268D36843F40053D3600020606451
:10395C00202384F8413084F84230606310BD80F835
:10396C004030FEF737F8D7E70120704738B51346DB
:10397C0090F84120D2B2202A2FD1044600292ED013
:10398C000BB9012038BD01628384C38400224264D8
:10399C00212084F84100A06B124D8562A06B124D62
:1039AC00C562A06B114D0563A06B426322680432A3
:1039BC00A06BFEF781FC23686FF040021A6022684E
:1039CC0002F1140353E8003F43F08003143242E841
:1039DC0000310029F3D10020D4E70220D2E70120E6
:1039EC00D0E700BFFD390008653A0008733A0008BB
:1039FC0008B50346406A1B681B6813F0200F1AD1E8
:103A0C000023C384026802F1140353E8003F23F03F
:103A1C008003143242E800310029F3D1026802F12C
:103A2C000C0353E8003F43F040030C3242E80031F2
:103A3C000029F3D108BDFDF7C5FAFBE708B501680D
:103A4C00CA6822F04002CA60202280F84120FDF7AB
:103A5C00B9FA002008BD704708B5406AFFF7FBFFB4
:103A6C0008BD7047704710B5446A23685A6994F8CA
:103A7C004130DBB2212B10D023685A6902F040028E
:103A8C0094F84230DBB2222B11D0636C43F010035C
:103A9C0063642046FFF7E6FF10BD02F08002002AA7
:103AAC00EAD00023E3842046FFF778FEE4E7002AFF
:103ABC00EBD00023E3852046FFF780FEE5E708B551
:103ACC00406A0023C385C384FFF7CCFF08BD704751
:103ADC0090F84230DBB2222B69D18368B3F5805F5A
:103AEC004FD0826AB3F5805F04D0002B56D10369A6
:103AFC00002B53D103685B681370836A01338362B4
:103B0C00C38D9BB2013B9BB2C385002B51D100B539
:103B1C0083B00268D36823F02003D3600268D368B3
:103B2C0023F48073D3600268536923F0010353615B
:103B3C00202380F8423000234363036B012B33D1E5
:103B4C0000230363026802F10C0353E8003F23F0E7
:103B5C0010030C3242E800310029F3D103681A68D3
:103B6C0012F0100F06D0002201921A6801925B68C5
:103B7C000193019B818DFFF7AAFF002003B05DF834
:103B8C0004FB0269002AACD1826A03685B68C3F348
:103B9C0008031380836A02338362B1E703685B68AE
:103BAC0003F07F031370A8E7FDF720F9E5E7022087
:103BBC00704700207047000010B582B004460268C0
:103BCC001368D068516913F00F0F09D113F0200F4F
:103BDC000CD010F0200F09D02046FFF779FF16E02B
:103BEC0011F0010115D110F4907F12D1216B012934
:103BFC0079D013F0800F03D010F0800F40F01381B8
:103C0C0013F0400F03D010F0400F40F0108102B0C1
:103C1C0010BD13F0010F06D010F4807F03D0626C3E
:103C2C0042F00102626413F0040F04D019B1626C0B
:103C3C0042F00202626413F0020F04D019B1626CFC
:103C4C0042F00402626413F0080F07D010F0200F4A
:103C5C0000D119B1626C42F008026264626C002AF5
:103C6C00D5D013F0200F02D010F0200F29D12368EB
:103C7C005B6903F04003626C12F0080F00D163B370
:103C8C002046FFF79BFD23685B6913F0400F20D0A3
:103C9C00226802F1140353E8003F23F0400314326E
:103CAC0042E800310029F3D1E36B73B1624A5A63E5
:103CBC00E06BFEF75FFB0028A9D0E06B436B9847E5
:103CCC00A5E72046FFF704FFD1E72046FFF7CAFE21
:103CDC009DE72046FFF7C6FE99E72046FFF7C2FE98
:103CEC000023636493E713F0100F82D010F0100FD1
:103CFC003FF47FAF00230193136801935368019342
:103D0C00019B536913F0400F51D0E26B13685B6851
:103D1C009BB2002B3FF47BAFA18D99427FF677AF1E
:103D2C00E3859369202B37D0226802F10C0353E80A
:103D3C00003F23F480730C3242E800310029F3D1A8
:103D4C00226802F1140353E8003F23F001031432FC
:103D5C0042E800310029F3D1226802F1140353E840
:103D6C00003F23F04003143242E800310029F3D124
:103D7C00202384F8423000232363226802F10C03D1
:103D8C0053E8003F23F010030C3242E800310029C5
:103D9C00F3D1E06BFEF7CBFA02236363A18DE38DC5
:103DAC009BB2C91A89B22046FFF791FE2FE7A18D6D
:103DBC00E38D9BB2C91A89B2E38D9BB2002B3FF401
:103DCC0026AF00293FF423AF226802F10C0353E81D
:103DDC00003F23F490730C3242E800300028F3D1FA
:103DEC00226802F1140353E8003F23F0010314325C
:103DFC0042E800300028F3D1202384F8423000231D
:103E0C002363226802F10C0353E8003F23F01003F4
:103E1C000C3242E800300028F3D1022363632046C1
:103E2C00FFF755FEF3E62046FFF7F6FCEFE62046DB
:103E3C00FFF704FEEBE600BFCB3A000808B5406A7A
:103E4C0001234363036B012B02D0FFF70AFE08BD6D
:103E5C00818D4908FFF73BFEF9E708B50346406A38
:103E6C001B681B6813F0200F2BD10023C38502683D
:103E7C0002F10C0353E8003F23F480730C3242E848
:103E8C0000310029F3D1026802F1140353E8003F1A
:103E9C0023F00103143242E800310029F3D1026807
:103EAC0002F1140353E8003F23F04003143242E8BC
:103EBC0000310029F3D1202380F84230036B012B11
:103ECC0007D000234363036B012B0FD0FCF78EFF4D
:103EDC0008BD026802F10C0353E8003F23F0100305
:103EEC000C3242E800310029F3D1EAE7818DFFF76B
:103EFC00EEFDEDE781628285C285002343642223B7
:103F0C0080F84230036923B10268D36843F48073AC
:103F1C00D3600268536943F0010353610268D368AC
:103F2C0043F02003D3600020704708B590F842306E
:103F3C00DBB2202B08D149B10AB9012008BD0023FE
:103F4C000363FFF7D7FFF9E70220F7E70120F5E756
:103F5C0030B583B0044613468162828500254564E2
:103F6C00222280F84220C26B1F489062E26B1F48ED
:103F7C00D062E26B1E481063E26B556320680A4600
:103F8C00011DE06BFEF798F9019523681A68019200
:103F9C005B680193019B23695BB1226802F10C03FE
:103FAC0053E8003F43F480730C3242E8003100299F
:103FBC00F3D1226802F1140353E8003F43F00103EC
:103FCC00143242E800310029F3D1226802F11403C3
:103FDC0053E8003F43F04003143242E8003100291B
:103FEC00F3D1002003B030BD673E0008493E000805
:103FFC00733A000808B590F84230DBB2202B08D198
:10400C0049B10AB9012008BD00230363FFF7A0FFE3
:10401C00F9E70220F7E70120F5E70000FDF770FB58
:10402C000B480C490C4A002302E0D458C45004330A
:10403C00C4188C42F9D3094A094C002301E01360DF
:10404C000432A242FBD300F033F9FCF721FD704798
:10405C000000002060000020684300086000002081
:10406C00E8060020FEE7000091F0000F04BF6FF09F
:10407C000040704710B54FF0010E90EA010F48BF99
:10408C004FF0000E002848BF4042002948BF49426B
:10409C00B0FA80F4122CA8BF122400FA04F2C4F176
:1040AC00120CB2FBF1F0B0FA80F39C45A4BFCEF138
:1040BC00004010BD01FB1022B2FA82F464450EDA06
:1040CC00ACEB040C02FA04F200FA04F0B2FBF1F3CC
:1040DC0001FB13221844B2FA82F46445F0DD02FAB3
:1040EC000CF200FA0CF0B2FBF1F318449EF0000F46
:1040FC0008BF404210BD00BF80FB01014FEA904059
:10410C0000EB8130704700BF024B0146186800F08D
:10411C0025B800BF1000002070B50F4E0C4631685A
:10412C00054611B900F0AEF830602146284600F083
:10413C00A9F8431C03D14FF0FF34204670BDC41CBA
:10414C0024F00304A042F8D0211A284600F09AF873
:10415C000130F2D1EFE700BFA00500202DE9F843B4
:10416C00CD1C25F0030508350C2D38BF0C25002D72
:10417C00064601DBA94204D90C2333600020BDE8BC
:10418C00F883DFF8D48000F069F8D8F800301C46CA
:10419C0044BB29463046FFF7BFFF431C044658D1A9
:1041AC00D8F800402746002F43D1002C4BD0236871
:1041BC003946304604EB030900F064F8814542D1DE
:1041CC00216830466D1A2946FFF7A6FF01303AD018
:1041DC0023682B442360D8F800305A6862BBC8F8B7
:1041EC0000700FE02268521B20D40B2A17D96119DA
:1041FC00A342256018BF5960636808BFC8F8001057
:10420C0062514B60304600F02FF804F10B00231D77
:10421C0020F00700C21A1CBF1B1AA350AFE762683C
:10422C00A3420CBFC8F800205A60EBE72346646831
:10423C00AEE73C467F68B6E71A465B68A342FBD103
:10424C0000235360DEE70C233046336000F00CF89B
:10425C0094E70560D6E700BFA4050020014800F0F4
:10426C004BB800BFE4060020014800F046B800BF80
:10427C00E406002003460244934200D1704703F841
:10428C00011BF9E738B50023054D044608462B60A1
:10429C00FDF712FA431C02D12B6803B1236038BD21
:1042AC00E0060020014B1868704700BF100000208A
:1042BC0070B500260C4D0D4C641BA410A64209D100
:1042CC0000F01CF800260A4D0A4C641BA410A642F0
:1042DC0005D170BD55F8043B98470136EEE755F80B
:1042EC00043B98470136F2E760430008604300083E
:1042FC00604300086443000870477047F8B500BF7E
:10430C00F8BC08BC9E467047F8B500BFF8BC08BCAA
:04431C009E46704702
:104320000000000001020304000000000000000083
:104330000102030406070809010200000203040544
:10434000060708090A0B0C0D0E0F101001020000E1
:1043500002030405060708090A0B0C0D0E0F1010C6
:044360001D04000830
:04436400F903000851
:10436800010000000024F40001000000100000001B
:104378001400002000000000A805002010060020FE
:104388007806002000000000000000000000000087
:104398000000000000000000000000000000000015
:1043A8000000000000000000000000000000000005
:1043B80000000000000000000000000000000000F5
:040000050800402986
:00000001FF
